:020000040001F9
:1080000038350020F58001000F8101001181010049
:108010000000000000000000000000000000000060
:1080200000000000000000000000000013810100BB
:108030000000000000000000158101001781010010
:1080400019810100198101006D840100198101006D
:10805000198101000000000029820100198101003E
:1080600019810100198101001981010019810100A4
:108070001981010019810100198101001981010094
:10808000198101008183010019810100198101001A
:10809000A183010019810100F5830100198101000C
:1080A000198101001981010000000000000000009A
:1080B00000000000000000000000000000000000C0
:1080C0000348854600F080F80048004731B50100BC
:1080D00038350020401E00BF00BF00BF00BF00BFFA
:1080E00000BF00BF00BF00BF00BF00BF00BFF1D195
:1080F000704700000321094802680A4302600848EB
:1081000002680A4302600748804707480047FEE7C5
:10811000FEE7FEE7FEE7FEE7FEE70000240500407D
:108120005405004019840100C180010030B50B46A0
:10813000014600202022012409E00D46D5409D4241
:1081400005D31D469540491B2546954040191546C7
:10815000521E002DF1DC30BD03460B439B0703D0BC
:1081600009E008C9121F08C0042AFAD203E00B78FC
:108170000370401C491C521EF9D27047D2B201E074
:108180000270401C491EFBD270470022F6E710B572
:1081900013460A4604461946FFF7F0FF204610BD75
:1081A000421C0178401C0029FBD1801A704730B571
:1081B00004460020034600E05B1C934203D2E05CCF
:1081C000CD5C401BF8D030BD064C0125064E05E0C5
:1081D000E36807CC2B430C3C98471034B442F7D3E8
:1081E000FFF772FFA0CE0100C0CE010030B58C18A1
:1081F0000278401C13071B0F01D10378401C1209A1
:1082000006D10278401C03E005780D70401C491C23
:108210005B1EF9D101E00B70491C521EFBD1A1423B
:10822000E6D3002030BD0000FEB50024FF25013557
:10823000012726460194284603F00CFC00280AD0AA
:10824000374901204968B040014204D03548002137
:1082500028183C4301602D1D7F00761CADB2042E12
:10826000E9D3FF207D3003F0F5FB002807D02E482E
:1082700000210160400704432C48006901902C4F05
:10828000200713D00126002526420BD02948AA003A
:10829000111808690969C004C00E8903890FD21931
:1082A0005268904776006D1C042DEDD3002C34DA13
:1082B00000241F4F012638194030007B8506AD0E83
:1082C00080090090AE40284603F0CCFC002821D065
:1082D000284601F0CDFD8000C0194768002F19D055
:1082E0001549A8004018006801998003800F0E42CC
:1082F00002D0022802D00DE003280BD100990329F7
:1083000005D102280AD00221284603F093FB284613
:108310000099B847641C062CCBD3FEBD0321F3E7BC
:1083200000630040006000407C6100400005005098
:10833000E82B002000650040000700508307FF2263
:10834000DB0E9A408907090E994000280BDA0007D6
:10835000000F0838830808489B001818C369934326
:108360000B43C3617047830804489B001B181868BF
:10837000904308431860704700ED00E000E400E01F
:1083800010B506490020086048608860C86003494D
:1083900040390860486004F0DFFB10BD4011014027
:1083A000FEB50020C043124D0290686901906846F6
:1083B0002E6902F073FC074602F0F8FF0446002F16
:1083C00008D002AA0199009802F088FC029803F0F4
:1083D00037F806E0029803F033F8002801D1002CAA
:1083E00002D0304601F066FE00206871FEBD00003C
:1083F0003821002010B507484068002807D0804782
:10840000002803D00022114600F0F2F910BD02F05E
:10841000FFFE10BD5C21002010B502F047FF0028D0
:1084200005D00E490C484860C8130D4988610D48B5
:10843000018CC9B201290ED1818C09070BD1018DA4
:108440000906090F042906D1808D0006000F02D10C
:1084500005490120886010BDDFFF07C0000500400E
:10846000006C0040C00F00F0000600407CB51B4CC3
:10847000A0681B4E0025002818D0A5601948806907
:10848000C1B2194800F0EBF9002805D001216A4675
:1084900011700190684607E013488168C068401A6F
:1084A000012803D16846057071688847E069002893
:1084B00003D0E561032003F069FB606A00280BD05C
:1084C0006562084980390868086002216A461170AF
:1084D00001907168684688477CBD0000002100401B
:1084E0000C210020002500403C2C002030B47446B4
:1084F000641E2578641CAB4200D21D46635D5B00A0
:10850000E31830BC184702E008C8121F08C1002A4F
:10851000FAD170477047002001E001C1121F002A04
:10852000FBD1704738B50D4C6078022802D00C4959
:108530000120886069460B4800F06EF9002802D0DF
:1085400000F016F838BD0848802181606A46074B64
:108550001278DA6102226270416038BD0C2100207D
:10856000002000404C2C002000230040002500404B
:108570001CB506490120C8600549487003206A46B9
:1085800010704968684688471CBD00000020004004
:108590000C21002004490020487004490122CA60CF
:1085A0004A600349086070470C2100200020004009
:1085B00000250040F7B582B0002605461670007809
:1085C0001446002805D02846039903F0B1F80600A8
:1085D00008D1A87800281ED02078039F001D1F28EE
:1085E00002D90C2005B0F0BD684679DF0028F9D12A
:1085F00021780322481C20707A5421781922481CC3
:1086000020707A542078C1196846008804F023FB52
:10861000217840182070E8780223002810D02078B4
:10862000039A411C2170135420780399471C01229E
:1086300027700A542078EA78471C039927700A5457
:108640006868002815D00021415620788C460246E3
:10865000C01C03991F28C4D8501C20708B5422784A
:108660000A23501C20708B5420786246431C2370D0
:108670000A542889002809D028460094062202219D
:108680000830039B04F064FB0600ABD1288A002865
:1086900009D028460094072203211030039B04F0E0
:1086A00057FB06009ED1288B002809D0284600944D
:1086B000152214211830039B04F04AFB060091D1C7
:1086C000286A002805D02246039901F045FD0600DE
:1086D00088D1686A002805D02246039902F0F6FF87
:1086E000060084D12C20405D002806D02246284672
:1086F000039903F0E4FF0600C7D1304672E710B5D6
:1087000001220221002001F0E1F9002801D0072810
:1087100012D107220221012001F0D8F9002801D04E
:10872000072809D100210A22084601F0CFF90028C4
:1087300001D0072800D1002010BD00000448426885
:108740000121C9050B46934383600A40C26070470C
:108750000005005070B50024064D06E06968E00091
:10876000085C012103F050F8641C28788442F5D39A
:10877000002070BD20210020F8B515460C460646A5
:10878000052A01D20720F8BD03F000F9002803D123
:1087900003F0D4F80028F6D1114900204E600C7087
:1087A00008618D6048610F4D0DE0E0002968801977
:1087B000009181786A46517000780B4A694603F04F
:1087C00069F80028DFD12046641EE4B20028ECD10D
:1087D0000348064A00210C3000F064F8F8BD0000A0
:1087E000202100209CCE0100ADB10100A1A201001A
:1087F000BFF34F8F04490348C860BFF34F8F00BFDA
:10880000FDE700000400FA0500ED00E0014B1B68E5
:1088100018470000B02A00208268C36893420AD03B
:10882000826883881A4003689A5C0A708168491CD0
:1088300081600020704705207047002906D0002A7B
:1088400002D0531E134203D0092070470E207047F8
:108850000160838000218160C160084670478268A2
:10886000C3689B1A8288934208D8C3681340026881
:10887000D154C168491CC160002070470420704772
:1088800038B50C46A268064B12019D5809786288DB
:1088900000920246204608302369A84738BD0000F0
:1088A000282D002070B5114CA568002D06D0002A97
:1088B00006D0002804D00023247809E0082070BDE9
:1088C000072070BD24265E43AE5D002E04D05B1CE5
:1088D000A342F7DB042070BD242401265C432E55FF
:1088E00064196170A2610360002070BD382100200E
:1088F000FFB59807002481B01E4615460F46002894
:108900000BD1002E09D003F06DFE22490A98886130
:108910000F70324600208E6008E0072005B0F0BDE1
:1089200024234343D4549B181C75401CB842F7DBE6
:1089300024204743BB19032048700F461846CB60DC
:1089400019461830002218232E465E43D3005B18C8
:108950001C705C709D7058603018521C032AF5DB47
:108960000020C0433861BC70FC7001240A48240513
:10897000046003211420FFF7E1FC08480460084C60
:108980000198A06003211120FFF7D8FC606878618E
:108990000020C3E73821002080E200E000E100E091
:1089A00000150140FEB504461D48174682680D4675
:1089B000002A0CD001788C4201D2052D01D207206B
:1089C000FEBD214624235943535C012B01D00820CE
:1089D000FEBD8818407801281DD0002604F07CF9DF
:1089E000C0000F490190C9684018694604F09EF91B
:1089F000002812D0012101700A49446049680830FA
:108A0000E2C007490198C96841180098487004F00D
:108A100031F80020FEBD2E46E0E70420FEBD000038
:108A20003821002000150140F8B5144D0446A8680F
:108A3000002809D029788C4201D30720F8BD2421D1
:108A40006143405C012801D00820F8BD04F044F9DE
:108A5000C600E8686946301804F068F900280AD0B2
:108A6000022101704460E86831180098487004F0F1
:108A700001F80020F8BD0420F8BD000038210020D6
:108A8000FFB5584F83B000260D4604467E707A60CD
:108A900000292AD0A888296882B25348FFF7CDFE62
:108AA000002823D1A889A96882B24F481030FFF767
:108AB000C4FE00281AD160784C4903228000401877
:108AC000026022783046920051180E60484D61785D
:108AD000E96021786961A1686962454E6179403633
:108AE000002905D00E21F16203E0072007B0F0BD98
:108AF000F0622379022B17D03E493F4A012B45D023
:108B000004232B608860C861F06A40084000F0626E
:108B1000581FA860286101209060106078700C9840
:108B2000008800283FD043E002F030FF002803D146
:108B300002F004FF0028D9D130486946006800904F
:108B4000A07802F02BFF0028D0D1401E2861A07829
:108B5000A860F06A01210843F0622848284A40686A
:108B60000190E07801A902F095FE0028BED1E078DE
:108B7000012102F049FEE07802F0D6FE002801D083
:108B8000002000E0012003F001F8C8E704232B6077
:108B90008860C861F16A01200143F162E1782961CE
:108BA000A178A960B8E70C9938780880401C387023
:108BB00000211448C9438160A12189004160124904
:108BC00004200860114B06991A68FF2424048907C1
:108BD000090EA24309040A431A600D4908600020E7
:108BE00084E700000C2100203C2C002000070050EE
:108BF00000250040002100400020004094CE0100EC
:108C0000F9B101000023004080E200E000E400E050
:108C100000E100E0F0B50546007D002493B00E466B
:108C200000280DD0012001466846103103940173DD
:108C3000717B4173817BF92001406846891C8173F7
:108C40001C2104A8FFF7A1FA6946087C0221084309
:108C5000694608742A7DEF21002A02D010221043B1
:108C600000E008406A461074059407940894287D33
:108C7000002800D003A8099001270A941046977194
:108C8000304A82800094B27B0270F27B427080781E
:108C9000F9221040F722801C1040EF2108404108C3
:108CA000490068468170317B017214210BA8FFF7DF
:108CB0006CFA01A80B9068460C908786C4860787DB
:108CC00002A80F90A888AB1D0BAA04A9A2DF002858
:108CD00035D1B068002830D0684687711A49818044
:108CE0000094317C01700020014668464170807814
:108CF000F9210840F721801C0840EF210840410875
:108D000049006846817011A8B16800F08BFD0646E5
:108D100014210BA8FFF739FA01A80B9068460C90B4
:108D20008686C486068711A80F902A46E8880E32E8
:108D30000BA9A3DF002802D100E0EC81002013B0D2
:108D4000F0BD0000192A00000829000010B50C49E8
:108D50000C4803F099FCC1B20948483800F03AFACF
:108D600000280BD0082809D00749884206D00749B7
:108D7000884203D000221146FFF73AFD10BD0000E3
:108D800008260020182000200430000001340000D4
:108D900070B50C4692B000216A461170072511711A
:108DA000002809D0C17849070CD502A9FFF702FCB9
:108DB000002808D102AE00E00026002C0ED0E0789A
:108DC000002802D0284612B070BD01AA0AA9204688
:108DD000FFF7F0FB0028F6D10AAA00E0002268465F
:108DE00003790178304672DFEDE70000F8B50D46F3
:108DF00006991746040013D0002F11D04A480026C8
:108E00004671C3600161202239464848FFF7A4F942
:108E10004648C168002905D00169002902D002E056
:108E20000E20F8BD06728169002902D0C1690029AF
:108E300000D1067500F0DCF83C49303108461038A6
:108E400001602031816030215038FFF79EF93748AA
:108E5000217830380170A1788170E178C170617833
:108E600041706269216942610161E268A168C26082
:108E700081600146E369A269CB618A61616A002968
:108E800017D00146A0310246AC3241628A60636A63
:108E90001B880B80616A436A898899800021436A34
:108EA00004E0666AB668765C5654491C9E888E4219
:108EB000F7D8A16A00291CD01C4AA83211460C39E7
:108EC0008A608162A36A9B888B80A16A836A098811
:108ED00019800021836A04E0A66AB668765C56545D
:108EE000491C9E888E42F7D82C210A5D0F49103903
:108EF0000A73216A002909D00B4914310162226AE0
:108F000052884A80216A026A0988118061680029B2
:108F100004D00549C91D4160616841600348294684
:108F20003038FFF735FFF8BDD4200020042B002097
:108F300010B50288204C102A15D00021112A15D016
:108F4000192A0FD1807900280CD1607901281CD012
:108F500002282DD0032805D12171E2680846002A95
:108F600000D0904710BD8088208110BD61701349EA
:108F70000979A171808821898842F6D1012012E007
:108F800021690029F1D0884710BDA079002809D0B7
:108F90000948193002F03EFE002803D0A079401E97
:108FA000A071EBE7022000F04BF80028E8D110BDDB
:108FB000022020710320F6E7D4200020042B00209B
:108FC00010B5022801D003280ED1084C20780028C3
:108FD0000AD000202070607900F032F8002803D019
:108FE0002169002900D0884710BD0000D42000204E
:108FF00010B507210148FFF7C8F810BDEC2000208C
:1090000010B50D480078012814D10C4C6078002868
:1090100010D16079002802D074DF00280BD1012024
:109020006070607900F00CF8002803D021690029F5
:1090300000D08847002010BD042B0020D420002041
:10904000F0B5624C87B06071002606A8069602F063
:1090500041FE0127082806D0002878D1069800286C
:1090600002D02770AFE00696FFF7C2FF584D687830
:10907000002808D06079012816D1E168002906D0BF
:10908000E770072088476079012802D00CE0E6707D
:1090900002E06878002805D04C48193002F0BAFD8B
:1090A000002801D102206071287A002804D160795B
:1090B000022801D103206071287D002804D1607945
:1090C000032801D166712671E16800290AD0607910
:1090D000022801D0032805D12878002802D0607822
:1090E000002814D0A67018216846FFF74EF868468D
:1090F0000670019606720396607901280BD0344FF2
:109100000426203702280FD0032850D12EE0A77064
:1091100006208847E7E72D48183001906846077019
:1091200046820682277145E0288A69464882A889D6
:1091300008822748203003F06FFE002805D02878E9
:10914000002802D06078002802D002202EE03BE008
:109150000220694608721E4803973038C670002105
:10916000FFF716FE00282FD1267120E0288B6946D4
:109170000882A88B48821648203003F04DFE002854
:1091800005D02878002802D06078002801D003207C
:109190000CE00220694608720D4803973038C6700B
:1091A0000021FFF7F5FD00280ED105202071607920
:1091B000002803D0684673DF002805D1E168002944
:1091C00001D020798847002007B0F0BDD4200020CE
:1091D000042B002073B586B004466946227C097FC3
:1091E00000208A4225D00025012668460095068089
:1091F000458007A801902174E188608A6A46A4DF4F
:10920000002816D1608A0D49884214D0207D00289C
:1092100011D00295039504950595E1886846018172
:10922000867241888181049001980590608A02A924
:10923000A6DF08B070BD0820FBE70000FFFF0000BC
:1092400038B50446086820600020C0436082087971
:109250002075FF200D462074012168468170064963
:109260000180221D69460120A0DF002803D1294684
:109270002046FFF7CFFC38BD0F18000038B50A882C
:10928000102A1AD0112A1AD0502A1BD1027D002A86
:1092900018D0CA884389891D9A4213D10A8B022AA1
:1092A00010D10268002A0DD0CB7E8C7E190221439A
:1092B000C907C90F07D0002106E0898801E0002115
:1092C000C943418238BD01216B46197069469047F8
:1092D00038BD000070B5054601461C220F48FEF758
:1092E0003BFF0F4C002626702968002907D0082272
:1092F000A018FEF731FF204608307ADF02E0084868
:1093000008307BDF002808D1401E6080044866706A
:10931000044A0021001DFFF7C5FA70BDCC2B0020C8
:10932000F420002075CC0100F8B5224C02880027FB
:109330001F4DE689102A16D029464968112A21D0E6
:10934000122A2DD0502A1CD1C288801DB24218D1B9
:10935000028B022A15D1C27E837E10021843C007F9
:10936000C00F0CD112E081886980014610480822A4
:1093700016311030FEF7F0FE6F70002E01D100F0B4
:1093800033FFF8BD0020C04368806F700846FFF7C8
:109390004BFB0028F5D0A1690029F2D08847F8BD21
:1093A000811D034808221030FEF7D6FEE7E70000D3
:1093B000F4200020CC2B00207FB504460121684614
:1093C00081714A4981804A4A01A90120A0DF002811
:1093D0007ED1228825463C35002A09D044482B46B8
:1093E000801C00904348616800F04AFD00287BD152
:1093F0002289002A0AD03E482B460A3000903D4878
:10940000E168401F00F03CFD00286DD1228A002A4F
:109410000AD037482B461230009036486169001F49
:1094200000F02EFD00285FD1228B002A0AD03048A0
:109430002B461A3000902F48E169801E00F020FD75
:10944000002851D1228C002A0AD029482B462230EC
:1094500000902848616AC01E00F012FD002843D128
:10946000228D002A0AD022482B462A30009021481B
:10947000E16A401E00F004FD002835D1216B00296F
:109480000ED002A803F0CAFA19482B4632300090D9
:109490001848082202A9801F00F0F2FC002823D1FE
:1094A000606B00280BD012492B463A3100910279AB
:1094B00001681048401C00F0E3FC002814D1A16BA7
:1094C000002910D002A802F0E5FB0948423000E074
:1094D0000AE0009007482B46072202A9273000F037
:1094E000CFFC002800D1002004B070BD0A18000095
:1094F00058200020292A000010B5044601F020F869
:109500002146094800F0F2F8074821461838FFF7CD
:10951000B5FE2046FFF708FF204600F00BFA204674
:10952000FFF706FD10BD0000D8250020FEB5002580
:109530000F4604460221684601958180C58002904D
:10954000E189608D01AAA5DF002814D16846008852
:10955000E18CC607F60F608D01AAA5DF00280AD1AD
:10956000684600888007C00F304202D00120387062
:1095700000E03D700020FEBD30B50020074A084CD9
:109580000146FF232C25454351552354401C1428E4
:10959000F8DB04480180002030BD000024260020B4
:1095A00094290020B820002001480088704700005E
:1095B000B820002070B5114D01462888142809D024
:1095C0000F4A00242C206043105C002804D0641C47
:1095D000142CF7DB042070BD20462C260123704399
:1095E000135480182A22801CFEF7B6FD05492888EE
:1095F0000C54401C2880002070BD0000B8200020C2
:1096000024260020942900200B4610B5094909881A
:10961000884201D3072010BD07492A22085C2C216B
:109620004843064941181846891CFEF795FD00205D
:1096300010BD0000B820002094290020242600201E
:10964000084610B50349CA884280521CCA80FFF7F9
:10965000B1FF10BDA4200020F0B58DB00D4604462A
:10966000FFF78AFF00283AD1FFF79EFF1D4E002723
:1096700000280BD0401EC0B201A9FFF7C5FF00288B
:109680002DD16846C088401CF08000E0F780286833
:109690002060686860602889A085A97A2E2001551D
:1096A0000020C0436085002030703771012168467A
:1096B00081700D4901802246083269460120A0DFF1
:1096C00000280CD1204601F009FD002807D12046D2
:1096D00001F08EFC002802D1204602F0E5FE0DB01C
:1096E000F0BD0000A42000200818000038B5324A60
:1096F0000D8800231478502D1ED008DC012D3CD09D
:10970000102D14D0112D01D1591E418538BD512D78
:1097100040D0532DFAD1C988438C9942F6D1032CFD
:1097200007D041680029F1D00820884738BD8988D2
:1097300041850020107038BDCA88C489891DA242A5
:1097400015D10A8B022AF6D1CA7E8C7E11022143E2
:10975000C907C90F02D069460B7002E001216A46B1
:1097600011700268002AE6D06946904738BD438CE4
:109770009A42FBD102F09CF938BD1371022C04D03F
:10978000012CF9D102F0B0FD38BD0B490C3102F0CB
:1097900015FE38BD0A1D891D0B78022BF9D192796F
:1097A000042AF6D0062AF4D0052AF2D04A88438C3F
:1097B0009A42EED1891CDDE7A4200020FF2313701C
:1097C000537000239370536000280BD00B781370F4
:1097D000012801D94B785370022803D9801E90705C
:1097E000891C51607047034610B5002000290FD036
:1097F00018780870587848700220002205E05C68EC
:10980000A45C0C54401CC0B2521C9C789442F6DC00
:1098100010BD70B504460D460846FEF7C1FC208019
:10982000656070BD0A780270497841700220704707
:109830001CB5002348221549082003F02DF8002804
:1098400003D000221146FEF7D3FF002000906946A6
:1098500001900870684660DF002803D0002211469E
:10986000FEF7C6FF0A4803F00DF8002803D00022D7
:109870001146FEF7BDFF074803F026F8002803D085
:1098800000221146FEF7B4FF1CBD00007824002022
:10989000F99401000DCA01001CB5044681786A469E
:1098A0000C4802F02BFA002812D160781C214843A2
:1098B00009491C2340181A46694602F0D7FA06489F
:1098C00006494430807A80000A582146684690470D
:1098D0001CBD0000CC2000206C2A002074CE0100AA
:1098E0007CB5134E00250C463060002918D069461F
:1098F000002000F0B3F8002819D101A9012000F0E0
:10990000ADF8002813D1684601790020002901D064
:10991000022004E069460978002900D00B2020705D
:109920007068002802D1FEF7EAFE054628467CBD95
:109930004C20002010B51C4C0188606810290DD007
:1099400011290AD1401E606007D1FEF7D8FE002819
:1099500003D02168002900D0884710BD00281ED1FF
:1099600000210122084600F0B1F8002801D00728A4
:1099700011D107220221012000F0A8F8002801D00F
:10998000072808D104220221002000F09FF80028B7
:1099900005D0072803D02168002900D088476068D7
:1099A000401C606010BD00004C20002010B503205A
:1099B00000F006FA002801D0062800D1002010BDD2
:1099C000F8B507460024224802E0641C042C19D292
:1099D000A2008258BA42F8D1042C13D21D4E1E4D5B
:1099E000F069002928D001290DD002290AD1600090
:1099F000201840194578002D04D0F168002901D0C5
:109A000028468847F8BD610062182946AD5C5118A8
:109A100000914978002909D071680A2251430D4A02
:109A2000521CFEF7BFFF002800D1777000988178A4
:109A3000084810300155DEE7FEF7F6FF05486100E3
:109A4000611810304919005D8D78A842D3D0F8BD57
:109A500034CE01002C2000201826002004280CD22F
:109A6000074A1269074B80001B5C01209840904315
:109A700000D001200870002070470020FAE70000A5
:109A80000005005034CE010010B504280BD0072883
:109A900015D00A2804D00E2801D102F0CFFC10BD49
:109AA00002F0D0FE10BD08481321808876DF08E060
:109AB0000028F7D000221146FEF79AFE10BDFFF7EE
:109AC0009FFA0828F4D110BD0020002070B50023B3
:109AD000042811D2440004190D4D012A02D1012994
:109AE0000DD0002246008019094E801900290CD0A3
:109AF000012906D0022906D00723184670BD0D3073
:109B0000C2B22A55F9E74270F7E78270F5E7000024
:109B10001826002010B5054A0146127A0020D20707
:109B200002D0084600F054F810BD00002C200020A0
:109B300070B50E46204905464E608D600020CA6013
:109B4000A9071ED50024012211462046FFF7BEFFBB
:109B5000641C042C02D20028F5D012E0002810D199
:109B6000720804211548FEF707FE002809D1FEF708
:109B7000F1FD002805D11048114A00211C30FEF7E4
:109B800091FEE90706D00F220E4952058A60002394
:109B9000CB608A6100280DD107480B4A00211430A0
:109BA000FEF780FE002805D10348084A012118303D
:109BB000FEF778FE70BD00002C20002044CE01008E
:109BC000FD9D01000005005095B301003D87010097
:109BD000FEB5784906464F684B690093BB00FB18F9
:109BE00000200122019352050546734C3300FEF715
:109BF0007DFC180D13133749596C828E858E97A101
:109C0000A5A5A5A5A5C3C8CDD4DADA120B225205A5
:109C1000A260E5600D70FEBD05208005A060E560D6
:109C200060680F235B055840800209D5A260E5609B
:109C3000022E02D1E120C0000AE07D20400107E0B1
:109C4000E260A560022E01D1C82001E0FF20913022
:109C50000E706421FEF76AFA78430022014646E05E
:109C600005208005A060E56060680F235B05584013
:109C7000800204D5A260E56019204001E8E7E260B7
:109C8000A560E1E705208005A060E56060680F231E
:109C90005B055840800202D5A260E560CDE7E26036
:109CA000A560D3E705208005A060E56060680F230C
:109CB0005B055840800202D5A260E56001E0E260E9
:109CC000A5600E707900002211E005208005A060DB
:109CD000E56060680F235B055840800202D5A260F2
:109CE000E56001E0E260A5600E7000223946009850
:109CF000FEF758FEFEBD05239B0544E06068012188
:109D000089050A468243A2600840E06010E061686D
:109D10000120800502468A43A2600140E160E4E739
:109D200061680120800502468A43A2600140E1602B
:109D30000199C8E70F214905E1601BE00F468869DA
:109D4000FEF772FE11218A1B1C4E01D0002802D0A2
:109D5000A660E560FEBD012A0BD91046C821484324
:109D60006421FEF7E3F9796800224143B869FEF700
:109D700019FEE660A560FEBD0F225205A260E560F7
:109D800015E007239B05A360E5600EE00D22520558
:109D9000A260E5600122920507E00322D205A260DD
:109DA000E560921001E00F225205E260A5600E709E
:109DB000FEBD00002C2000200005005000008000A7
:109DC000F0B500210B4C0C4D03273F048A00A2582C
:109DD00092005619326801238B40034000D00323C0
:109DE000BA431B0413433360491C0429EED30020FB
:109DF000F0BD000034CE01000007005010B500781F
:109E00000221FFF7DDFD10BD054900228300D2438A
:109E10005B185A60042802D3081840300272704759
:109E2000E82B0020F0B50025ED43002A02D00023E6
:109E3000042601E004230A260C4C05E09F003F198C
:109E40007F687F1C04D05B1CB342F7D32846F0BD6B
:109E500026185DB2203635739E0036197160002ACF
:109E6000F4D1E11840310872F0E70000E82B00203F
:109E7000024909182C20085670470000E82B0020E2
:109E8000FFB58FB01E4615460F0004D100221146C3
:109E90001046FEF7ADFC002D04D1002211461046FD
:109EA000FEF7A6FC1C216846FEF76FF968460178AC
:109EB0000220014368460170002401940394049435
:109EC0000594012108A80694817068460F990184C1
:109ED00007943178017771784177807FF9210840C4
:109EE000F721801C0840EF210840410849006846DE
:109EF0008177142109A8FEF748F908A8099007A856
:109F00000A9068468585C485058604480D9709AA88
:109F100069460088189BA2DF13B0F0BD58200020CE
:109F2000F8B53B4914230A780F205A435418217975
:109F30002569384E241D02291AD004292ED005295E
:109F400064D101F055FF01462846FEF7EFF80646BA
:109F500001F04EFF0146A08871434019401A87085E
:109F600001F046FF711C4843A1886288891836E0D9
:109F7000B0882269800261881318091AA2882818FB
:109F8000101801229202914203D28A08194629DF51
:109F900037E0FF220132194629DF32E0A2681C486F
:109FA0001101CC30091808894B894968A94203D1AD
:109FB0006188584388421BD0022A19D001F018FF4B
:109FC00001462846FEF7B2F8064601F011FF70433D
:109FD000281A870801F00CFF711C484361883A4633
:109FE0004919401A83083146204602F079FC08E0FE
:109FF00001F0FEFE01462846FEF798F8B1884018A9
:10A0000028DF002802D1024901228A70F8BD000031
:10A010005C2C00201421002010B5084900204A784B
:10A02000002A09D08978002906D1FFF779FF002896
:10A0300002D0112800D1002010BD00005C2C0020AF
:10A0400014225043054A002180180171C180012269
:10A050000161C26041610181704700005C2C0020F9
:10A06000F8B5134C069E65780A2D1FD027787D1908
:10A07000EDB20A2D01D30A3DEDB214277D432D190F
:10A080002871002068716A6103C92961E860EB806A
:10A090002E81A1780020002904D1FFF741FF11286B
:10A0A00000D100206178491C6170F8BD0420F8BD22
:10A0B0005C2C0020F8B5224801694A1C3DD02422BE
:10A0C0005143826889184E681E494C684769007977
:10A0D000E11B0D022D0AED1C002814D101201A4AA3
:10A0E00000045060184A403A506018494000086027
:10A0F000174908601749012008602F20FDF7EAFF83
:10A100000F4901200871B54200D23546E819000216
:10A110000C49000A403108600A494968001B091BC4
:10A120000902090A0002000AC91C814204D901205F
:10A130000649400480390860F8BD02F053FAF8BDC2
:10A1400038210020001501404013014080E200E06A
:10A1500000E100E000100140F8B50D461178064618
:10A16000881D14461F2801D90C20F8BD338807200C
:10A17000062BFAD31927FF01BB4202D9164A934294
:10A18000F3D17288062AF0D3BA4202D9124FBA42EA
:10A19000EBD1114FBB4203D0BA4201D09342E4D875
:10A1A000481C052220706A5420781222411C21701C
:10A1B0002A5420784119308802F04DFD217840184A
:10A1C000C0B220704119708802F045FD2178401816
:10A1D00020700020F8BD0000FFFF000010B5002235
:10A1E0001146FEF705FB10BDF8B5164801F050F812
:10A1F000144D0026103D144C002807D06169002939
:10A200001BD001206A461070684615E028780028A7
:10A2100005D06169002910D0684606700CE06878A6
:10A2200000280CD0A16800226868FEF7BBFB00285C
:10A2300003D0A169002900D088472E70F8BD61685D
:10A24000F1E7000004210020CC2B002070B5094B61
:10A2500004469E7A082000250E4207D00648844214
:10A2600002D01889A04202D10020156070BD0520DF
:10A2700070BD0000A42A0020FFFF00000C2148430D
:10A28000064910B5012240188272911E0181FF21FA
:10A29000C1720721FDF779FF10BD0000A42A00203C
:10A2A000F8B500260124154D23E06968F000471831
:10A2B000387821466A698140114218D08A436A6120
:10A2C00001F032FB3A7821462B6991401940034650
:10A2D000934099420BD17978012901D0012100E006
:10A2E00000217B684140002B01D010469847761C26
:10A2F000F6B228788642D8D3F8BD0000202100208D
:10A30000FEB50E46044681786A46234801F0F6FC05
:10A31000002827D160780C21204F4843C019807A4B
:10A32000400620D4022E1ED0012E1ED01C4DA07837
:10A330001C21484319490023FC3941181C22684656
:10A34000A847002813D0022E0CD020780C214843B7
:10A3500012490C314018807A124980000A5821466F
:10A3600068469047FEBD104DE1E7104DDFE7022E35
:10A37000F8D060780C214843C019817ABF2211407F
:10A38000817260781C2148430449383941181C23E4
:10A390001A466846A847D8E7CC200020A42A002007
:10A3A000DDC8010064CE0100B1C10100F9BF0100A8
:10A3B00070B50546114A124800241C2363431B183C
:10A3C0009B7EFF2B04D0641C072CF6D3104670BD77
:10A3D0000A78022A09D01C2262431018FD228276D4
:10A3E00007221030FDF7B8FE04E01C216143081875
:10A3F000FE2181762C700022E8E7000043800000F7
:10A40000A8290020F7B505250F4F06460024002E89
:10A410000AD01C206043C019072231461030FDF7D6
:10A42000C6FE002807D00AE01C206043C019018B3B
:10A430000298814203D101980025046002E0641C67
:10A44000072CE4D32846FEBDA82900207CB505468C
:10A4500081B26A46074801F051FC040008D1582136
:10A46000684601F075FC040002D1284601F0DEFBCD
:10A4700020467CBDCC20002070B50D461446014618
:10A4800004221048FDF768FE200003D00022114688
:10A49000FEF7AEF92878112811D10A488078FF28F4
:10A4A0000DD0084801211438002249040069FEF744
:10A4B00079FA002803D000221146FEF799F900200E
:10A4C00070BD0000142000201FB56946087301F01C
:10A4D00095FC002803D000221146FEF789F903A855
:10A4E00000F028FA002803D000221146FEF780F978
:10A4F00001A805210130FDF748FE6946487901228F
:10A500001043DF210840072369468B711023CB716C
:10A510000949009169460A7102210843E321084074
:10A5200069464871054800F019FB002803D0002255
:10A530001146FEF75DF91FBD79A40100022000203D
:10A54000F0B5054693B000200290FF24ED480E942C
:10A55000007800284BD0EC4F3868002847D001A87D
:10A5600000F0DAF9002803D000221146FEF740F986
:10A57000281D05902A2069460883FF20002688713F
:10A580000E710396E04C28880C3C10280ED0A88849
:10A5900003AA0221FFF75AFE002807D103980C21D5
:10A5A00041430919CA7A69468A7148712888132279
:10A5B00017287CD00FDC10281BD0112853D013286B
:10A5C00076D0142813D103980C2148430019C07A7F
:10A5D000FF2871D08DE0CD4918286BD01C286AD097
:10A5E000522804D1B87A8000095801A8884713B0CE
:10A5F000F0BDC74F03AA01213846FFF727FE002808
:10A60000F5D103990C2048430222001982721123CC
:10A610006A4613745171A98801810722A91DFDF7AB
:10A620009BFD287DC10707D04108B6480830405C33
:10A63000FF2808D00E9006E03A460EA9A81DFFF7A5
:10A64000E1FE00280ED103990C22514309190E98FE
:10A65000C8728A7A08231A438A726946887101A8E7
:10A66000FFF71AF939E103980C2148430119887A58
:10A67000FD2210408872010706D5C0090DD00021C7
:10A6800001A8FFF73DFE08E068468079FF2804D066
:10A6900001F0CCFAFF206946887103980C225043E0
:10A6A00010210019817212206946087415E17FE0BB
:10A6B00030E001E0D5E00EE1EA890EA90020FFF7C5
:10A6C000A1FE00280ED103980C22504300190E99C8
:10A6D000C172837A0822134383726846817101A88C
:10A6E000FFF7DAF803980C2148430019C07AFF28D5
:10A6F00006D003981C2148438349443940180290EE
:10A7000003981C21484383494218A88800230299D2
:10A7100082DF6CE768460274039B0C2058430119E2
:10A72000887A042210438872C87AFF2830D0162015
:10A73000694608741C2043437348142128381818AC
:10A740000830FDF722FD03980C2148430019817A57
:10A7500040221143817203990C2200204A430A903F
:10A760001219D27A1C235A436A4B0C90D2180B92BE
:10A770001C2251431A46C432891807910890099047
:10A780003A1DA88807AB00217FDF0028C1D1A4E0D3
:10A790000EA8FFF70DFE002801D00646DBE769464C
:10A7A0000E98887103990C2251430919C872D2E797
:10A7B000787A400840007872039A0C20944642430D
:10A7C00011198B7AFB2003408B7214206F4638746A
:10A7D000A879002804D0C87AFFF738FEAE797CE06B
:10A7E000E879400779D5B879FF2876D008273B4328
:10A7F0008B72EB7A9B0708D51C2503466B43454DAE
:10A800005B199D7E6D086D009D76CB7AFF2B64D021
:10A81000A25C022A10D01C2250433E4D0722401950
:10A820001030FDF799FC684680791C214843401997
:10A83000817EFD2211400EE061461C225143324AC6
:10A84000443A89184A8A1C214843324940180283F5
:10A85000817E490849008176012101A8FFF750FD5A
:10A860003BE0A8790209012A23D10007000F012843
:10A870001FD103980C2242431219927A120718D55D
:10A880001C21484320492839401814210830FDF77D
:10A890007CFC16206946087403980C214843011972
:10A8A000887A602210438872787A0221084378728D
:10A8B0000FE003980C2250430019827A80231A4338
:10A8C000827215206A461074B87A8000095801A86F
:10A8D0008847002601E068460274324604A901A8B0
:10A8E000FDF794FF6846007C122800D07FE60398AD
:10A8F0000C2141430919897A0129F7D0FFF7BEFCE1
:10A9000075E60000BC200020B02A002084CE0100A3
:10A91000FFFF0000A8290020002806D0FF210170B9
:10A9200041708170C170002070470148704700007D
:10A930000E800000F0B585B0040036D0294800250F
:10A940000560457285722846FFF798FC25481C2152
:10A950002838FDF71AFC0026FF27304601F066F97B
:10A9600021488755761C072EF7D3582168468180E9
:10A970000721C1801D481C4900900831684601F03C
:10A98000C7FA00280FD1184E0120083E30702078F9
:10A9900000280CD069468888C988484381B230466F
:10A9A000103001F0D5F905B0F0BD1148FBE7114FAB
:10A9B00000240D48A1B202AA083001F09FF9002836
:10A9C00009D11C206043C01900231C2202A901F0F8
:10A9D0004DFA002801D03570E5E7641C072CE8D358
:10A9E000E1E70000B02A0020C4200020F9A90100FE
:10A9F0000E800000A8290020FFB555488FB00068E0
:10AA0000189F1E46002851D0582F4FD86846FFF790
:10AA100083FF002803D000221146FDF7E9FE002441
:10AA2000684604700471254605970696A9B20DAADA
:10AA3000484801F063F9002806D108220DA90F98B3
:10AA4000FDF7B5FB002819D06D1C072DEED3684625
:10AA500080780790FF2829D010982025042810D04E
:10AA60003D481C21301AFDF761FB012707282DD234
:10AA700004A80290119800281AD021E06846857039
:10AA8000E5E7582F03D040206946087101E0684689
:10AA9000057169460879032108436946087104A8CD
:10AAA000029001A96846119AFDF7B0FE13B0F0BDFF
:10AAB0000799384688402749103949680842F5D037
:10AAC000079802F0CDF86846057138E020481C214F
:10AAD0004438301AFDF72AFB00280BD01C4D1C21EE
:10AAE000283D701BFDF722FB00281AD04020694644
:10AAF0000871DBE704A802906846057144701448A9
:10AB00000A940C300B9050380790684680781C21CE
:10AB1000484311494018089007A80690182005904E
:10AB20000DE03021684601714470C77008480C3848
:10AB3000807A800703D428461C21FDF726FB109855
:10AB400069460328087901D00221A5E73843A5E723
:10AB5000B02A0020CC200020A829002070B506468D
:10AB600018480D46007800280ED01749002E0ED048
:10AB7000002D0CD02868002809D0144C2168002929
:10AB800007D011480A3870BD0F48801F70BD0846B5
:10AB900070BD20600522691D201DFDF7DDFA2879B2
:10ABA000A072207A0221400840000843FB22104096
:10ABB0002072E0790123184308431040E07100201F
:10ABC000307070BDBC2000200E800000B02A002034
:10ABD00010B51349134B0978002910D0002803D071
:10ABE000017800290BD102E00E48801D10BD0E49EE
:10ABF0000A68002A03D0407800280ED101E01846E8
:10AC000010BD094A0C3A947A012C06D01846A307C5
:10AC1000F6D51089091D7EDF10BD0248083010BD31
:10AC2000BC20002008800000B02A002010B5184A7F
:10AC3000184B1278002A13D09A1D002805D000293D
:10AC400003D00278002A0BD101E0104610BD124C4F
:10AC500000222468002C03D0407800280CD101E0A9
:10AC6000184610BD0C480C38807A012804D02423E3
:10AC7000184204D0012005E00648083010BD000647
:10AC800002D50220087000E00A70002010BD00000C
:10AC9000BC20002008800000B02A002010B50E491A
:10ACA00000238A78CC78A24212D0521CD2B28A7089
:10ACB000022A00D18B708A78074B92001C339A5875
:10ACC0000260486910180002000A4861012010BDA6
:10ACD0000360002010BD000038210020F7B5144C9F
:10ACE0000025A76823691EE024215943C9194E682D
:10ACF000864202D9301A486017E0801B7519002679
:10AD00004E600E750E699C460B6AB646002E0AD040
:10AD1000019E76193602360A8E607646CE60166837
:10AD20000E6261461160591CDED12361FEBD000038
:10AD3000382100200EB51120694608720C2213A19B
:10AD400002A87CDF002803D000221146FDF750FD49
:10AD50000120800278DF002803D000221146FDF791
:10AD600047FD002000900822694601900A80502289
:10AD70004A808880FF209130C88068467ADF0028AA
:10AD800003D000221146FDF733FD0EBD4E6F7264F5
:10AD900069635F6E52463531000000000020704745
:10ADA0000020704700207047F8B5064640781C2107
:10ADB00004464C4324490C2250436118224A002582
:10ADC0004B681C328018AE462F469C46002B0CD098
:10ADD000827A1346D20908D05A0606D40D461A4A7A
:10ADE000614689B2175908358E46174C00891C34C4
:10ADF0003B4672462946A9DF0B2819D0002800D00F
:10AE00001248012F13D170780C2148430019008992
:10AE10000F4AA7DF00280AD00E49884212D008281E
:10AE200010D0891C88420DD011280BD00020F8BD0D
:10AE300070780C2148430123001900897246294685
:10AE4000A9DFE0E70148F8BD882A00204180000022
:10AE5000FFFF00000230000070B50C46014660782C
:10AE60001C22084D50434019382300F0FFFF0028F2
:10AE700007D161781C22514349194A68521C00D1FC
:10AE80004A6070BD882A0020F3B587B00D461420B3
:10AE90006946888268780C2103274843224E3B4646
:10AEA0008019008905AA6946AADF002838D1687888
:10AEB0001C214843741A001969468A8A0830FDF734
:10AEC00076F90028687807D01C21484301194968A1
:10AED00000290DD0154E0CE00C2141438919897AC7
:10AEE00089071DD41C2148430019FDF74EF917E0CE
:10AEF0000F4E27506846828A68781C214843001903
:10AF0000426068784843001969460830FDF724F923
:10AF100068781C214843011938231C220798B04740
:10AF2000002009B0F0BD0000A42A0020B1C101003A
:10AF3000F9BF010010B5FFF737FF10BD10B5FFF7DF
:10AF40008BFF10BD10B5FFF79FFF10BDF8B504468D
:10AF5000007808700E46491C608801F077FE401C9E
:10AF6000C7B2F519A088294601F070FEA1792954CD
:10AF7000401CC0B2E1792954401CC0B2217A295446
:10AF8000401CC0B2617A2954401CC0B2A17A295435
:10AF9000401CC019C5B22078C00705D07119A0891E
:10AFA00001F054FE4019C5B22078800715D5218ADA
:10AFB000A07B09050003090D084370556D1CE9B21B
:10AFC000000A7054491CC8B2A27CE17C1207090136
:10AFD000120F11433154401CC5B22078000705D52B
:10AFE0007119A08A01F032FE4019C5B22846F8BD99
:10AFF00070B590B005461C216846FDF7C6F8694655
:10B0000008780226304308700024019403940494C5
:10B010000594012008A90694887018486946088498
:10B02000601C0007000F2030079408770020487745
:10B03000887FF9210840F721801C0840EF21084053
:10B04000400840006946887714210AA8FDF79DF85A
:10B05000A88D08A90871000A487107A80A910B90E9
:10B0600069460E864C868E8609A80E902B46288946
:10B070001A330AAAA2DF10B070BD0000512A0000E6
:10B0800030B50A468DB0044606A91046FFF75EFFAC
:10B0900069460546088000200190029003900490C4
:10B0A00062898A8001228A71088106A8039104902E
:10B0B000608D01A9A6DF002804D169460988A9424C
:10B0C00002D00C200DB030BD0349CA78521CCA70A2
:10B0D0000A79521C0A71F5E7A420002070B50024FB
:10B0E0000546601CA0B00007000F08A910300D94A1
:10B0F0000875601C0007000F20304875887DF92610
:10B100003040801C88751C2106A8FDF73EF8694672
:10B11000087E10210843694608760DA807940B9015
:10B1200009940A94012208A90C948A761E4869465B
:10B1300008870020059408754875887DF721304000
:10B14000801C0840EF21084010436946887514218F
:10B150006846FDF71AF82C210FA8FDF716F8FEF740
:10B1600023FA0006000E06D0401EC0B20FA9FEF75B
:10B170004BFA002815D10EA8009005A801901AA935
:10B180000FA8FFF7E3FE01466846018114214481C0
:10B1900081811AA804902B4628890A336A4606A999
:10B1A000A2DF20B070BD0000182A000070B506466E
:10B1B000104C0125B540E068FDF736FC00280CD1A5
:10B1C0006169294207D1304600F0AEFB00282069B2
:10B1D00004D0284303E0A943616170BDA843206106
:10B1E0006069002228436061A168E068FDF7DAFB2E
:10B1F00070BD00002021002010B500F095FB002854
:10B2000001D0002000E0012000F0C0FC10BD0000D3
:10B21000F8B51E4C2078002837D02069002807D0C8
:10B220000026E068002805D00025002E04D013E099
:10B230000126F6E70125F8E7684651DF052806D024
:10B24000002806D000221146FDF7D2FA04E00126BC
:10B2500002E0216900988847002D12D16088694674
:10B260000880A06861DF052806D0002806D00022EB
:10B270001146FDF7BDFA04E0012502E0E168A0688F
:10B280008847002ED8D0002DCFD0F8BD5C210020FB
:10B29000418805480288914204D34088814201D800
:10B2A0000120704700207047FC2000201048018CCE
:10B2B000C9B2012917D1818C090714D1018D090662
:10B2C0000A0F03D1828D1206120F0ED0090F012929
:10B2D00003D1828D1206120F07D0032903D1808D6E
:10B2E0000006000F01D000207047012070470000C9
:10B2F000C00F00F070B500220A70224C03780325BD
:10B3000005222478032B02D0002C35D110E0012C2B
:10B3100001D007200AE04378002B01D00D702BE00C
:10B320008078002801D00A7026E00120087023E010
:10B33000012B03D0042B01D00220F7E74478042628
:10B340002300FDF7D3F8071B0518091805051B0096
:10B3500080780028E7D10CE043681B78012B05D0EA
:10B360000920022BE2D0072BE0D2DCE7807803280B
:10B37000D9D1012070BD0E70002070BD072CFAD20B
:10B38000CCE70000A4200020800701D000207047F7
:10B390000120704710B50448017AC90702D000782F
:10B3A000FEF716FC10BD00002C200020F8B5234845
:10B3B00001690091457833E02048E900C0680E1823
:10B3C00034782AE0182060437168641C0818B1784A
:10B3D000E4B2A14200D100240178022902D003295D
:10B3E0001BD113E0154A40682421926841438F180D
:10B3F000397D002911D001F077FB002038750CE071
:10B4000024277843C0180275006A03E00B49002224
:10B410008B680869471CF3D108617078A042D1D1CC
:10B4200028466D1EEDB20028C6D104480169009877
:10B43000814201D00120F8BD0020F8BD3821002054
:10B44000F8B50446384800270169009146785CE069
:10B450003548F100C2688D1851E0601C07D0324AAF
:10B4600024209268604321468018046A24E02878EA
:10B47000182141436A68401CC0B252182870A9784C
:10B48000884200D12F70284B516824209B68484384
:10B49000C0181378012B34D1037D002B31D1936870
:10B4A0008360D368C360136903615269C2611E4A35
:10B4B0005279002A00D087601B4B82685B699646F0
:10B4C0009C46D31A1A02194B120A9A4202D2C36836
:10B4D000D21808E0724663469A1A1202C368120A2A
:10B4E000934202D99A1A426000E0476087600122C5
:10B4F000C7600275921E0262084601F0C3FA601C22
:10B50000ABD1287869788842A7D13046761EF6B24A
:10B5100000289DD1044801690098814201D0012092
:10B52000F8BD0020F8BD000038210020FFFF7F009B
:10B5300096B001F051FB5B4A05AB07CA07C3002573
:10B540006846058458480190012458480390200219
:10B55000049008A8009002940323554A01A905A865
:10B56000FDF78EFA002803D000221146FDF740F9BE
:10B57000504A51490320FEF7DBFA002803D000228D
:10B580001146FDF735F969460020FEF7A9F90028B4
:10B5900003D000221146FDF72BF9684600780228F7
:10B5A0007ED0002168460171FEF742F968460079B5
:10B5B000FEF78AFFFFF7BEFB302101A8FCF7E5FD8F
:10B5C00002216846017184710521C17103268682BA
:10B5D000354820211F3006900DA8FCF7D6FD08A89D
:10B5E000047728201090B4201190344B0DAA00212C
:10B5F000009501A8FDF7FAFB002803D000221146B0
:10B60000FDF7F6F801F0A0F82D48512101608C21DA
:10B6100084604160047301462348173001F028F824
:10B620001C216846FCF7B1FD0520C00301900F20E6
:10B6300000040290009568460673C5810574214890
:10B640000590214806906846FDF744FE002803D087
:10B6500000221146FDF7CCF813480521401E0022B8
:10B660000904C068FDF79EF9002803D000221146A6
:10B67000FDF7BEF800F0E2FE0220FDF7E1FC002835
:10B6800003D000221146FDF7B3F848DF002803D0AD
:10B6900000221146FDF7ACF800F0D0FEF5E7FFE719
:10B6A00001217FE728CE010001200020C0240020D6
:10B6B00035CC0100899A0100CD0C000069BA010067
:10B6C000082600208DBA0100DDA1010070B50546F5
:10B6D00000790E46801C1446C0B21178821C8A186C
:10B6E0001F2A01D90C2070BD0A46491C2170401C3C
:10B6F000B0542078FF22411C2170325420788119E7
:10B70000288801F0A8FA21784018C0B22070AA88D1
:10B71000002A09D0A968002908D08019FCF71CFD6F
:10B720002078297940182070002070BD072070BD56
:10B73000F8B514780746A01C15460E461F2803D8F6
:10B740007878801C1F2801D90C20F8BD1D20001B13
:10B7500080B26946864608803019801C7DDF00284B
:10B76000F3D13878022805D168460088704501D8A1
:10B77000092107E078780821002801D0704501D917
:10B7800068460088421C3255641CE2B2B1542978E4
:10B79000801C081828700020F8BD00207047002089
:10B7A00070470020704700008207D30EFF229A40A6
:10B7B0008907090E10B5994000280BDA03071B0F03
:10B7C000083B9C080C4BA400E318DC6994430C4331
:10B7D000DC6107E08408094BA400E4182368934364
:10B7E0000B432360C106C90E01208840044908604C
:10B7F0000449086010BD000000ED00E000E400E036
:10B8000080E200E000E100E070B50D46064600F081
:10B8100029FA01240028304618D0FEF729FB1849E0
:10B82000001F08184030007B8009032802D001283F
:10B8300005D006E013480069B440204201D102213E
:10B8400000E00321304600F0F5F870BD00F016FA74
:10B850000028FAD03046FEF70BFB8100CA1D0A4BC8
:10B86000F932C9180B6992B223430B610749511889
:10B8700000220A60002DE8D084400548446070BD75
:10B88000E82B0020000500500065004000600040EB
:10B8900000630040F8B5204F0D46044638192C21AE
:10B8A00041560026C8171346401C01D0082630E038
:10B8B000EA7819462046FEF7B5FA411C28D0174B06
:10B8C000AA78A100C918002A03D00A6802239A4363
:10B8D00001E06A7892000A60E978002910D08200BD
:10B8E0000F482978101802690E4B1A400261E206CF
:10B8F000D20C8907890B0A4301690A43026108E0F7
:10B90000381840302A78017A92011143017200E020
:10B9100004263046F8BD0000E82B00200007005048
:10B9200000650040FFE0FCFF03490969C140C8070A
:10B93000C00F00D0012070470005005070B5114DB8
:10B940002878002801D0082070BD0020411E2A1848
:10B950002032401CC0B211732028F8D300242046A6
:10B96000FEF752FA641CE4B20A2CF8D30121062037
:10B97000FFF71AFF01200449C00748600120287022
:10B98000002070BDE82B00200063004002480078D2
:10B99000002800D001207047E82B0020F8B50446AD
:10B9A0001F480D46001920300C2141560026491C25
:10B9B00001D008262FE0A97800291DD001220021FE
:10B9C0002046FEF72FFA411C14D0830015482A7830
:10B9D000181869780369144F3B4003610369E7064F
:10B9E000FF0C9207920BC907C90A3B430A43134352
:10B9F000036104E004260EE00121C94301730B4AF0
:10BA00000320A100891808606A780120A040084935
:10BA1000012A02D0C8603046F8BD8860FBE700000C
:10BA2000E82B002000650040FFE0ECFF000700501D
:10BA300000050050820006481018026803231B040A
:10BA40009A430260026809040A43026070470000DA
:10BA500000070050034940180068012800D000206A
:10BA6000704700000060004010B500280AD002288E
:10BA700007D1FEF74FF8002803D000221146FCF74B
:10BA8000B7FE10BD00F0DEFE10BD000010B500785E
:10BA9000002809D105483B21808876DF002803D0A3
:10BAA00000221146FCF7A4FE10BD0000002000207B
:10BAB00070B58AB00D46044602206946087307A98E
:10BAC0002046FDF733FD002859D16846007F002845
:10BAD00015D02946287E01AA1A31FDF76FFE694666
:10BAE00001A8FFF707FC0026274D002868462BD049
:10BAF0000682608D03A9A8DF002840D107E0FF205F
:10BB0000823069460882608D03A9A8DF35E0684667
:10BB10000079012807D0042803D101A9204600F0AC
:10BB200019FD0AB070BD029920468A784B7811023F
:10BB300001222A70AE706A4652796A701943EE701B
:10BB4000298100F0D1FBECE7007800280ED0684690
:10BB50000682608D03A9A8DF002810D128706846EE
:10BB600001790278204600F017FCDAE7FF208130E7
:10BB700069460882608D03A9A8DF0028D1D06168DA
:10BB80000029CED08847CCE7A420002010B51D4A5C
:10BB90001D490300FCF7AAFC05040B312027120005
:10BBA000487801281FD0022808D1032005E04878F2
:10BBB000002804D0032801D10220487010BD134B87
:10BBC00004201860124B012018609368D2689A42D2
:10BBD000F3D0FCF7A7FC10BD4878012806D0022856
:10BBE00004D00328F7D1FCF7D5FC10BD9068D168CC
:10BBF0008142EED1FCF7BCFC10BD48780128E8D0AA
:10BC000010BD00004C2C00200C210020002500401D
:10BC1000002000400021425C002A01D00120704732
:10BC2000491C0629F7D300207047000070B505466F
:10BC30001C200B4968434418204611300621FCF7AC
:10BC4000A4FA20461021FCF7A0FAFF21217400205D
:10BC5000A176C0432083284601F002F870BD0000A1
:10BC6000A8290020044908182C214156042901DB89
:10BC70000120704700207047E82B00200449081875
:10BC80002C214156042901D2012070470020704721
:10BC9000E82B002070B50D00044604D100221146A7
:10BCA0001046FCF7A5FD002C04D1002211461046D9
:10BCB000FCF79EFD2878207069886170090AA170E0
:10BCC000A988E170090A2171E8886071000AA071F1
:10BCD00070BD000007490978002906D0002806D069
:10BCE00005494978016000207047082070470E2000
:10BCF00070470000142100205C2C002030B5124B4E
:10BD00001B78002B07D0002807D0002A05D0046834
:10BD1000002C12D103E0082030BD0E2030BD0B4BAB
:10BD20001D68002D09D045681889414369185D894F
:10BD3000454358682818884201D8072030BD146050
:10BD40000020516030BD000014210020282D00206B
:10BD5000F8B505461B480F460078002805D0002D91
:10BD600005D02868002820D103E00820F8BD0E2067
:10BD7000F8BD154C00262068002816D0608921895E
:10BD8000484361684118686881420ED9FFF7FCFAA0
:10BD900000280CD029686868090109194A680989CE
:10BDA000801AFCF7C3F9002903D00720F8BD102042
:10BDB000F8BD3B460022294604200096FEF750F9C4
:10BDC000F8BD000014210020282D002010B50748E0
:10BDD0004469601C06D000F00BF801462046FCF7D1
:10BDE000A5F910BD01200007406910BD001000102A
:10BDF00001200007006980B270470000F8B50024F8
:10BE0000184D194EAC806C7034707470B470274645
:10BE10003846FEF715F97F1C0A2FF9D36C80FFF71F
:10BE2000D5FF871EFFF7E4FF47430F48AF60AC80A4
:10BE3000CC30046004818481448108206870FFF75D
:10BE4000D7FF0746FFF7C2FF441EFFF7D1FF60434D
:10BE50003946FCF76BF928DF002802D10121B170C7
:10BE60002970F8BD142100205C2C0020FFB5264865
:10BE700081B000781F4616460D46002808D0002DD8
:10BE800009D00198002806D02868002818D104E0BD
:10BE9000082005B0F0BD0E20FBE71C4C20680028F0
:10BEA0000ED0618920896268414389186A6891428D
:10BEB00006D9002E04D0B04202D3F119814201D933
:10BEC0000720E6E70198FFF75FFA00281AD0384606
:10BED000FFF75AFA002815D06868FFF755FA0028CE
:10BEE00010D068683246C1190198FCF735F9009600
:10BEF000286800220001245803212846019BA047FE
:10BF00000020C6E71020C4E714210020282D0020BF
:10BF1000F8B5374D044628780E4600282ED0002C60
:10BF20002ED0002E2CD02068002829D0FFF760FFEB
:10BF30000146A088814228D3102826D3E088002813
:10BF400023D0FFF743FF471EFFF752FF4743E08828
:10BF5000A1884843A9684018874216D3FFF748FFD5
:10BF60000146E088A288504381420BDAFFF740FF88
:10BF7000A188FCF7DBF8002907D103E00820F8BD11
:10BF80000E20F8BD2079800701D00720F8BD688811
:10BF900001281BD03060174FA9680201D0197160C9
:10BFA00041602168B950A1880181E1884181A08860
:10BFB000E188002648430446761CB6B2FFF718FF16
:10BFC000A04205D2FFF714FF241A02E00420F8BDB6
:10BFD0000024FFF70DFFA9684018A860002CEBD1E2
:10BFE00068880101C9198E81401C68800020F8BD55
:10BFF00014210020282D0020F8B5044620481E46B4
:10C00000007815460F46002807D0002F07D0002CD7
:10C0100005D02068002817D103E00820F8BD0E20C5
:10C02000F8BD1848016800290ED04289018940688E
:10C030004A4310186268904206D9002D04D0A942E4
:10C0400002D3A819884201D90720F8BD3846FFF766
:10C050009BF9002811D03046FFF796F900280CD044
:10C060006068FFF791F9002807D02B463A46214631
:10C0700002200096FDF7F4FFF8BD1020F8BD000087
:10C0800014210020282D0020F8B507460020464E38
:10C090008646B07801281ED10020444BB0705A78F3
:10C0A000082A19D034462578142169430C19022F27
:10C0B00020D0032F0FD16079401CC0B26071241DC5
:10C0C00003286AD0FDF72CFF002804D0112802D0E5
:10C0D0002146FCF7D5FBF8BD022F09D01870FDF7FB
:10C0E0009BFF0028F7D0317814225143891959E079
:10C0F0005870F4E72D498B885B1C9EB28E802379A3
:10C10000241D022B05D16788B102B94201D3012158
:10C1100000E000218C46052B01D1072A03D0002125
:10C12000042B02D003E00121FAE7072A03D00027FD
:10C13000042B02D007E00127FAE76488B302A34288
:10C1400001D3002A27D0002239431143624611430C
:10C1500017D0164A1449507090804878401E487095
:10C16000681CC0B208700A2801D30A38087014206D
:10C17000684341187046091DFCF782FB2846FDF70D
:10C180005FFFFDF749FF0028A5D0074914230A786F
:10C190005A43511806E00122D6E73078142148436B
:10C1A00081190D20091D94E75C2C0020142100202A
:10C1B000F8B5044620481E46007815460F4600286C
:10C1C00007D0002F07D0002C05D02068002817D1F9
:10C1D00003E00820F8BD0E20F8BD184801680029CA
:10C1E0000ED04289018940684A4310186268904223
:10C1F00006D9002D04D0A94202D3A819884201D93A
:10C200000720F8BD3846FFF7BFF8002811D03046A8
:10C21000FFF7BAF800280CD06068FFF7B5F80028DF
:10C2200007D02B463A46214605200096FDF718FF19
:10C23000F8BD1020F8BD000014210020282D00209A
:10C2400010B58CB00446FDF7AFF91149CA78002A41
:10C2500007D1002805D04978052905D0062906D040
:10C260000CE0002008700FE06946002002E0401E4C
:10C27000C0B26946FDF7C8F9002806D169462046D4
:10C28000FEF7FEFE002800D100200CB010BD00001B
:10C29000A420002070B58CB00646FDF785F9054650
:10C2A000104C13E06946FDF7AFF9002817D1684636
:10C2B00040882189884206D369463046FEF7E0FE71
:10C2C00000280CD105E0A078401CA070A078A842FE
:10C2D000E8D3A078A84201D10020207000200CB043
:10C2E00070BD0000A420002030B58BB00546284C5E
:10C2F00049E0607801280AD0032821D005281BD006
:10C30000062819D06968002928D0032025E0FDF708
:10C310004BF9A278824202D30020207022E06946C5
:10C320001046FDF771F900280DD169462846FEF741
:10C33000A7FE002807D115E02846FFF781FF02E09D
:10C340002846FFF7A7FF00280CD0082806D011497F
:10C35000C84205D06968002900D0884700202070B5
:10C360000BB030BD2078012805D0E178284600299F
:10C3700005D0012204E0A078401CA070B9E7062295
:10C38000012100F009F820780128B2D0E8E7000088
:10C39000A4200020FCCFFFFF10B5074B06241C7023
:10C3A00000245C7002249C709C1E5C602170627092
:10C3B000194600F003F810BDB020002070B51D4CE8
:10C3C000054620788EB00A46022804D0207900283D
:10C3D00001D0022022E007A91046FDF704FA6946C1
:10C3E00006460880002001900290039004906A8C19
:10C3F0008A8002228A71088107A803910490688DBF
:10C4000001A9A6DF0C4900280BD0082805D0C84296
:10C41000DFD06968002900D08847002020700EB066
:10C4200070BD68460088B04201D00C20F1E70320BF
:10C43000F4E70000A4200020FCCFFFFF10B58CB073
:10C4400007216846017015498180062181711A21F2
:10C45000C1710C2101721E2141720F21817210499C
:10C4600000230A7A8273CC88048283810122827439
:10C47000C2748382173420B2C8800A2801DD0D30CF
:10C48000C8800878C01CC0B208703B2800D90B7067
:10C4900069460448FDF7D4F80CB010BDDF07000072
:10C4A00000200020D825002070B500240546601C1F
:10C4B00090B00007000F08A9103008940870601CA5
:10C4C0000007000F203048708878F9263040801C23
:10C4D00088701C2101A8FBF758FE694608792821BD
:10C4E00008436946087108A80294069004940594CC
:10C4F000012208A907948A7115486946888400209A
:10C5000000940870401C0007000F203048708878A5
:10C51000F7213040801C0840102108431043694631
:10C52000887014210AA8FBF730FE09A80A90684613
:10C530000B9069460C8617204C8688860E942B46F5
:10C54000288922330AAA01A9A2DF10B070BD000019
:10C55000522A0000F3B58BB00E46FDF725F80546CC
:10C5600070780024012806D0032806D0052823D09F
:10C57000062821D023E02C4621E07068817840789D
:10C580000F020743002614E0F0B26946FDF73CF8BD
:10C59000002806D00B994968002900D088470DB0C3
:10C5A000F0BD68464088B84201D3641CA4B2761C32
:10C5B000B6B2AE42E8D302E0002D00D00124084814
:10C5C000052101700021417002218170811E4160AE
:10C5D0000C70200A4870891C0B98FFF7EFFEDEE70D
:10C5E000B020002070B501240B49600408600B499D
:10C5F00040108860094940398860094D6C602F20DF
:10C60000FBF768FDAC60074D00242F206C61FBF741
:10C6100061FD2C7170BD000080E100E0401301401D
:10C62000001001403821002008B50F480F498088CC
:10C63000884218D00C4869461430FEF7F7FA0028F3
:10C6400003D000221146FCF7D3F868460078002892
:10C6500009D105481430FEF7BBFA002803D00022A8
:10C660001146FCF7C5F808BD00200020FFFF0000C0
:10C670000A7B002A03D049680160002102E00968B2
:10C68000016001210171704710B504798B6802685F
:10C69000002C08D049688C1A9C4201D9D11807E0B7
:10C6A0000160002108E00968541A9C4202D9D11A9D
:10C6B000016002E0016001210171006810BDF7B561
:10C6C00082B002981446806A0F46002833D0029840
:10C6D00000252030009028E00298816A0C206843F1
:10C6E0000E18217830794A1C2270C01C78542078AA
:10C6F0001622411C21703A542078C119308800F06C
:10C70000AAFA21784018C0B22070B288002A09D055
:10C71000B16800290FD0C019FBF71EFD20783179D0
:10C72000401820706D1C0098EDB2007BA842D3D851
:10C73000002005B0F0BD0720FBE710B50022114630
:10C74000FCF756F810BD000070B59CB000253248CB
:10C750001690FF202C46423004431595179510A8DB
:10C7600084838577012615A92C48FCF775FF0028DE
:10C7700003D000221146FCF73BF8142110A8FBF768
:10C7800004FD0120014610A810314173012001462B
:10C7900010A8103181730020014610A8C173012038
:10C7A000014610A810310174109506718C21129564
:10C7B0000173014619481838FCF742FD002803D0E0
:10C7C00000221146FCF714F840216846FBF7DDFC17
:10C7D00013A16846FDF71DF816A104A8FDF719F886
:10C7E0001648189016481A9018A855210C901991BF
:10C7F0000120014608A8103101770020014608A851
:10C8000041776846FCF7D8FD002803D00022114686
:10C81000FBF7EEFF1CB070BD3BC70100D825002020
:10C820004E6F7264696353656D69636F6E6475639F
:10C83000746F72006E5246353100000055AA55AA39
:10C84000EEBBEE0010B50020FDF764F9002803D020
:10C8500000221146FBF7CCFFFDF7A8F8002803D013
:10C8600000221146FBF7C4FF3CDF002803D0002262
:10C870001146FBF7BDFF10BD10B508461146C04676
:10C88000C04610BD002803D00249C8600020704790
:10C890000E2070475C21002070B5002901D08C0764
:10C8A00001D0072070BD064C0125A16062800549BA
:10C8B000636010DF0028F5D1257016202EDF70BDD3
:10C8C0005C21002079C80100002803D002490861DA
:10C8D000002070470E2070475C2100200020704728
:10C8E000FFB581B0484C0E46039F049A0546617817
:10C8F00003201743002903D1002F0DD001216170BF
:10C90000039AC9B2920000920B00FBF7EFFD072CCF
:10C91000071B2E465D6C2C000221F0E7FFF768FA3A
:10C920008708FFF765FA70430546FFF74FFA461E82
:10C93000FFF75EFA70433A46294629DF002812D1F4
:10C9400002210FE0304628DF00280CD1039900298E
:10C9500001D0032106E00499002917D12978042980
:10C9600050D018E0617005B0F0BDFFF72FFA471EF8
:10C97000FFF73EFA4743FFF73BFA70433946039A05
:10C9800029DF0028EFD10499002901D00421E9E72B
:10C990002978042925D00521E4E7FFF717FA471E77
:10C9A000FFF726FA47436888391800980F18FFF7F1
:10C9B0001FFA6988704341180098049A081839468C
:10C9C00029DF0028E4D0CEE7FFF712FA0099704380
:10C9D000401869888A08296929DF0028C3D1002FF7
:10C9E00010D00621BEE7FFF703FA0646FFF7EEF97F
:10C9F000451EFFF7FDF968433146FBF797FB28DF3B
:10CA00000028B0D10721ADE71421002010B504465D
:10CA1000FFF73AFB2046FCF7D3FA10BD70B50C00C7
:10CA2000054604D1002211461046FBF7E1FE002D19
:10CA300004D1002211461046FBF7DAFE2078287058
:10CA40002088FF2109020840000A68702068090256
:10CA50000840000CA8702068000EE870207928714A
:10CA6000207A68712089000AA871A068000CE8711A
:10CA700070BD0000012002490005086070470000F9
:10CA800000E200E0F0B5174F2421BC6841430D19C6
:10CA900039694A1C09D024224A4316196B68726806
:10CAA000934204D8D21A726029623861F0BD0A46F6
:10CAB00002E00A46396A9B1B4E1C0BD024264E43CB
:10CAC00037197E689E42F4D324264E433619776880
:10CAD000FF1A77606B60296224214A4311190862AA
:10CAE000F0BD00003821002070B5194C2269A568FE
:10CAF0001346114606E0814207D00A4624267143B8
:10CB00004919096A4E1CF6D170BD002EFCD08A422C
:10CB10000CD1242043435819006A2061401C05D1E0
:10CB20000C4B012098600023636160712420414315
:10CB30004819242341685A43006A52191062421C62
:10CB4000E2D024225043401942685118416070BD20
:10CB50003821002000100140F8B51D4C2569681CE3
:10CB600035D01C48002640686169401A07023F0A18
:10CB700019E024204543A0682A185068B84214D808
:10CB8000A3693F1A8619156A002B09D0D1699069EB
:10CB90009847002807D000221146FBF729FE02E043
:10CBA0009169D0698847681CE3D1A178E078814217
:10CBB00006D1401CC0B2E070022801D10020E07014
:10CBC00003490006800D1C310E50FFF753FFF8BDDE
:10CBD000382100200015014008B50020114B052226
:10CBE00008210090FBF784FE002803D000221146A4
:10CBF000FBF7FEFD0C4A01210C48FBF753FE002811
:10CC000003D000221146FBF7F3FD0848084A002133
:10CC1000001DFBF747FE002803D000221146FBF75A
:10CC2000E7FD08BD702100204D8D01000C20002083
:10CC300029C6010010B50178022901D0012904D1CB
:10CC4000002240681146FBF7D3FD10BD0870000AB2
:10CC50004870022070470870000A48700220704730
:10CC600001218140024842688A43426070470000C7
:10CC7000BC20002038B51549154A488890420FD08D
:10CC80004A78144C521CD2B24A70237B934208D388
:10CC9000083175DF002803D0A169002900D088473A
:10CCA00038BD00254D70217C002907D03B2176DF5F
:10CCB000002803D0A169002900D0884761690029B4
:10CCC000EED068460570884738BD0000F42000208B
:10CCD000FFFF0000CC2B002012494868C005C00DA2
:10CCE00019D0103840B2002807DA0207120F083AAC
:10CCF000920892005118C96904E081080A4A890023
:10CD0000891809688007C00EC1400806800F0128F5
:10CD100003D0032803D00220704700207047012071
:10CD20007047000000ED00E000E400E04278837806
:10CD3000521C934200D100220378934201D100207B
:10CD400070470A60416840781822504308187047BD
:10CD5000F8B51546069C1E4607460222009400F0D0
:10CD60000AF8002806D13346102229463846009496
:10CD700000F001F8F8BDFFB583B0074600200C9C19
:10CD80008646267805463AE07868A90041180A8860
:10CD9000684682804988C1800022694601A865DF13
:10CDA000002810D1684601780598814226D1704646
:10CDB000002801D0002200E00222207889184118C2
:10CDC0001F2902D90C2007B0F0BD7146002908D1F7
:10CDD000401CC0B2411C069B049A21701A540120C9
:10CDE0008646217806980A18694601A865DF00285A
:10CDF000E9D1694620780978401820706D1C388880
:10CE0000A842C1DC7046002804D020780699801B17
:10CE1000401E88550020D6E70179002902D1007B09
:10CE2000002800D0012070470B09080A010000000B
:10CE300000509D00110000001200000013000000CF
:10CE40001400000011000300C1990100120003004A
:10CE5000C199010013000300C199010014000300EF
:10CE6000C1990100A3B7010089AE0100A5AD010081
:10CE700045AF01009FB7010059AE0100A1AD01000F
:10CE80003DAF01009BB70100A9AD01009DAD0100C0
:10CE900035AF0100000100000300000003000000A6
:10CEA000C0CE01000020002070010000EC810100D4
:10CEB000E4CE010070210020C81300001685010097
:10CEC00042050717FFFF8C00FDFF0C2B081801001F
:10CED0000F1801000A1801038624F4032FFFFF0234
:04CEE00064010000E9
:04000005000180C1B5
:00000001FF
