:020000040001F9
:10800000C03E00204D8201006782010069820100AC
:108010000000000000000000000000000000000060
:108020000000000000000000000000005981010075
:108030000000000000000000ED8101003982010015
:1080400071820100718201002D85010071820100A1
:108050007182010000000000A18301007182010013
:108060007182010071820100718201007182010040
:108070007182010071820100718201007182010030
:1080800071820100E58001007182010071820100AE
:108090007182010071820100B584010071820100CA
:1080A00071820100718201000000000000000000E8
:1080B00000000000000000000000000000000000C0
:1080C0000748854600F03AF903F00AF90021034811
:1080D00003F0DCF903F018F9FEE700007820002037
:1080E000C03E002000F0ACF880F309887047EFF341
:1080F00009807047684680F3098806480078C00701
:1081000003D1032080F314887047022080F3148881
:108110007047000048D50100064B9C46EFF30583ED
:108120001B0605D1EFF31483DB0701D000DF704796
:1081300060470000B5BC0100064B9C46EFF3058389
:108140001B0605D1EFF31483DB0701D000DF704776
:1081500060470000B5BE0100EFF309808169891E08
:10816000097800292BD1A6461FC8A4467446E047CB
:10817000EFF3098307C31A4B06CB91421CD0083B8F
:1081800000290DD0EFF3098020388862F0C0444602
:108190004D4656465F46F0C00CB404F0D5F90CBC11
:1081A0001A60906A1030F0C8A046A946B246BB4695
:1081B00080F309882038F0C80220C043004710B57A
:1081C000084A1268914209D8074C89006458A646AB
:1081D0001FC8A446F047EFF309840FC410BD000088
:1081E000742100209C8301009C83010004F048F866
:1081F000104B06CB91421AD0083BEFF30980203890
:108200008862F0C044464D4656465F46F0C00CB406
:1082100004F09AF90CBC1A60906A1030F0C8A046BD
:10822000A946B246BB4680F309882038F0C8022030
:10823000C04300477421002004F04AFAD8E7000048
:1082400003F00EFA04F044FAD2E7000003210948D3
:1082500002680A430260084802680A43026007484D
:10826000804707480047FEE7FEE7FEE7FEE7FEE738
:10827000FEE700002405004054050040D9840100B9
:10828000C180010030B50B460146002020220124A8
:1082900009E00D46D5409D4205D31D469540491B3A
:1082A0002546954040191546521E002DF1DC30BD83
:1082B00010B5431A934209D28318881803E0401E70
:1082C00001785B1E1970521EF9D210BD03460B4394
:1082D0009B0703D009E008C9121F08C0042AFAD27C
:1082E00003E00B780370401C491C521EF9D210BDEC
:1082F000D2B201E00270401C491EFBD2704700223E
:10830000F6E710B513460A4604461946FFF7F0FF94
:10831000204610BD421C0178401C0029FBD1801A68
:10832000704730B504460020034600E05B1C9342D2
:1083300003D2E05CCD5C401BF8D030BD064C01257B
:10834000064E05E0E36807CC2B430C3C98471034FD
:10835000B442F7D3FFF7B8FEBCD50100DCD501006D
:1083600030B58C180278401C13071B0F01D103781D
:10837000401C120906D10278401C03E005780D70FC
:10838000401C491C5B1EF9D101E00B70491C521EB8
:10839000FBD1A142E6D3002030BD00000000000068
:1083A000FEB50024FF250135012726460194284605
:1083B00002F016FF00280AD0374901204968B04072
:1083C000014204D03548002128183C4301602D1D8E
:1083D0007F00761CADB2042EE9D3FF207D3002F081
:1083E000FFFE002807D02E4800210160400704430B
:1083F0002C48006901902C4F200713D0012600253E
:1084000026420BD02948AA00111808690969C0043E
:10841000C00E8903890FD2195268904776006D1CEF
:10842000042DEDD3002C34DA00241F4F0126381917
:108430004030007B8506AD0E80090090AE40284696
:1084400003F046F9002821D0284601F0BFFB800048
:10845000C0194768002F19D01549A80040180068B6
:1084600001998003800F0E4202D0022802D00DE055
:1084700003280BD10099032905D102280AD0022133
:10848000284602F09DFE28460099B847641C062C39
:10849000CBD3FEBD0321F3E7006300400060004042
:1084A0007C61004000050050003500200065004060
:1084B0000007005010B507484068002807D08047E3
:1084C000002803D00022114600F016FA10BD02F079
:1084D0007DFB10BD5821002010B502F0C5FB00281F
:1084E00005D00E490C484860C8130D4988610D48F5
:1084F000018CC9B201290ED1818C09070BD1018DE4
:108500000906090F042906D1808D0006000F02D14B
:1085100005490120886010BDDFFF07C0000500404D
:10852000006C0040C00F00F0000600407CB51B4C02
:10853000A0681B4E0025002818D0A5601948806946
:10854000C1B2194800F0FDF9002805D001216A46A2
:1085500011700190684607E013488168C068401AAE
:10856000012803D16846057071688847E0690028D2
:1085700003D0E561032002F061FE606A00280BD0A1
:108580006562084980390868086002216A461170EE
:1085900001907168684688477CBD0000002100405A
:1085A0002C210020002500405435002030B47446B2
:1085B000641E2578641CAB4200D21D46635D5B00DF
:1085C000E31830BC184702E008C8121F08C1002A8F
:1085D000FAD170477047002001E001C1121F002A44
:1085E000FBD1704710B5002A06DA52005208D21D9E
:1085F000D308DB00102203E0D21C93089B000C225E
:10860000002B02D09C188C4201D9012010BD821889
:108610008360411802604160C91AD018884202D8AC
:1086200010600246F9E70020106010BD38B50D4C0F
:108630006078022802D00C490120886069460B4806
:1086400000F06EF9002802D000F016F838BD084896
:10865000802181606A46074B1278DA6102226270DB
:10866000416038BD2C2100200020004064350020EE
:1086700000230040002500401CB506490120C860C9
:108680000549487003206A46107049686846884763
:108690001CBD0000002000402C21002004490020C7
:1086A000487004490122CA604A6003490860704763
:1086B0002C2100200020004000250040F7B582B0AA
:1086C00000260546167000781446002805D0284676
:1086D000039902F03FFC060008D1A87800281ED0BC
:1086E0002078039F001D1F2802D90C2005B0F0BD83
:1086F000684679DF0028F9D121780322481C2070D0
:108700007A5421781922481C20707A542078C11993
:108710006846008804F032FE217840182070E8781E
:108720000223002810D02078039A411C2170135492
:1087300020780399471C012227700A542078EA7890
:10874000471C039927700A546868002815D0002137
:10875000415620788C460246C01C03991F28C4D875
:10876000501C20708B5422780A23501C20708B548C
:1087700020786246431C23700A542889002809D0B7
:1087800028460094062202210830039B04F038FE9C
:108790000600ABD1288A002809D028460094072279
:1087A00003211030039B04F02BFE06009ED1288B82
:1087B000002809D028460094152214211830039B64
:1087C00004F01EFE060091D1286A002805D022463A
:1087D000039901F017FB060088D1686A002805D0CC
:1087E0002246039902F084FB060084D12C20405DD0
:1087F000002806D022462846039904F092F9060084
:10880000C7D1304672E710B501220221002001F0E5
:108810000BF8002801D0072812D1072202210120DD
:1088200001F002F8002801D0072809D100210A220E
:10883000084600F0F9FF002801D0072800D10020E9
:1088400010BD0000044842680121C9050B4693434E
:1088500083600A40C26070470005005070B5002474
:10886000064D06E06968E000085C012102F0DEFBCD
:10887000641C28788442F5D3002070BD402100207C
:10888000F8B515460C460646052A01D20720F8BD64
:1088900002F08EFC002803D102F062FC0028F6D121
:1088A000114900204E600C7008618D6048610F4DC9
:1088B0000DE0E00029688019009181786A465170C6
:1088C00000780B4A694602F0F7FB0028DFD120460A
:1088D000641EE4B20028ECD10348064A00210C30A3
:1088E00000F052F8F8BD000040210020B8D501008A
:1088F00049AA01004D9F0100BFF34F8F044903486F
:10890000C860BFF34F8F00BFFDE700000400FA0509
:1089100000ED00E0014B1B6818470000C833002041
:108920008268C36893420AD0826883881A400368C9
:108930009A5C0A708168491C81600020704705209C
:1089400070478268C3689B1A8288934208D8C368BC
:1089500013400268D154C168491CC16000207047AF
:108960000420704738B50C46A268064B12019D588A
:108970000978628800920246204608302369A84799
:1089800038BD000040360020F8B50646002A06D063
:10899000002E04D0134D00242B78A86808E007208F
:1089A000F8BD242767432037C759002F04D0641C23
:1089B000A342F6DC0420F8BD24235C43231DC250EF
:1089C000A8680022C01802F08FFD2034A968002E8C
:1089D0000851306001D00020F8BDA968002008517E
:1089E000DDE7000050360020F0B5002B06D00C4A21
:1089F000506011700020064693600DE00720F0BD26
:108A000024244443234695680C33EF181B1FEF5072
:108A100020349368401C1E518842F1DB0020F0BDD9
:108A20005036002070B50446052922D3134840680B
:108A3000401C48437D21C900484301218903401857
:108A4000C50BA00715D1200013D02946E26002F023
:108A500065FD00280ED080280BD0822809D1294638
:108A6000204604F0CFFA002804D0802801D08228C4
:108A700001D0072070BD082070BD000050360020D6
:108A800010B5044602F058FD002811D080280ED001
:108A9000812810D082280AD1204604F0D8FA002874
:108AA00006D0802803D0812805D0822801D0072055
:108AB00010BD082010BD002010BD0000F0B5054617
:108AC000007D002493B00E4600280DD00120014601
:108AD0006846103103940173717B4173817BF920E7
:108AE00001406846891C81731C2104A8FFF707FC1C
:108AF0006946087C02210843694608742A7DEF21F3
:108B0000002A02D01022104300E008406A46107488
:108B1000059407940894287D002800D003A80990A4
:108B200001270A9410469771304A82800094B27BE4
:108B30000270F27B42708078F9221040F722801C8C
:108B40001040EF2108404108490068468170317BA0
:108B5000017214210BA8FFF7D2FB01A80B90684605
:108B60000C908786C486078702A80F90A888AB1D43
:108B70000BAA04A9A2DF002835D1B068002830D0A4
:108B8000684687711A4981800094317C0170002009
:108B90000146684641708078F9210840F721801C21
:108BA0000840EF210840410849006846817011A83B
:108BB000B16800F08AFC064614210BA8FFF79FFB62
:108BC00001A80B9068460C908686C486068711A87B
:108BD0000F902A46E8880E320BA9A3DF002802D1A5
:108BE00000E0EC81002013B0F0BD0000192A000065
:108BF0000829000010B50C490C4803F077FFC1B2FA
:108C00000948683800F01AFA00280BD0082809D063
:108C10000749884206D00749884203D000221146FE
:108C2000FFF76AFE10BD0000A025002020200020D4
:108C3000043000000134000070B50C4692B00021F1
:108C40006A46117007251171002809D0C1784907BB
:108C50000CD502A9FFF732FD002808D102AE00E0D2
:108C60000026002C0ED0E078002802D0284612B052
:108C700070BD01AA0AA92046FFF720FD0028F6D101
:108C80000AAA00E00022684603790178304672DFC4
:108C9000EDE70000F8B50D4606991746040013D01D
:108CA000002F11D04A4800264671C360016120227E
:108CB00039464848FFF7FCFA4648C168002905D004
:108CC0000169002902D002E00E20F8BD0672816918
:108CD000002902D0C169002900D1067500F0DCF836
:108CE0003C49303108461038016020318160302124
:108CF0005038FFF704FB3748217830380170A178ED
:108D00008170E178C1706178417062692169426166
:108D10000161E268A168C26081600146E369A269FD
:108D2000CB618A61616A002917D00146A0310246F1
:108D3000AC3241628A60636A1B880B80616A436A55
:108D4000898899800021436A04E0666AB668765C87
:108D50005654491C9E888E42F7D8A16A00291CD01F
:108D60001C4AA83211460C398A608162A36A9B882A
:108D70008B80A16A836A098819800021836A04E0D4
:108D8000A66AB668765C5654491C9E888E42F7D80F
:108D90002C210A5D0F4910390A73216A002909D074
:108DA0000B4914310162226A52884A80216A026AA0
:108DB000098811806168002904D00549C91D4160F6
:108DC00061684160034829463038FFF735FFF8BD38
:108DD000F42000201C34002010B50288204C102AFA
:108DE00015D00021112A15D0192A0FD18079002819
:108DF0000CD1607901281CD002282DD0032805D180
:108E00002171E2680846002A00D0904710BD808892
:108E1000208110BD617013490979A1718088218971
:108E20008842F6D1012012E021690029F1D088475B
:108E300010BDA079002809D00948193002F020FCA3
:108E4000002803D0A079401EA071EBE7022000F0BB
:108E50002BF80028E8D110BD022020710320F6E78E
:108E6000F42000201C34002010B5022801D0032873
:108E70000ED1084C207800280AD00020207060799C
:108E800000F012F8002803D02169002900D088479B
:108E900010BD0000F420002010B507210148FFF7A5
:108EA0002EFA10BD0C210020F0B5624C87B0607125
:108EB000002606A8069602F043FC0127082806D0E3
:108EC000002878D10698002802D02770AFE00696D7
:108ED000FFF7E2FF584D6878002808D06079012834
:108EE00016D1E168002906D0E7700720884760792D
:108EF000012802D00CE0E67002E06878002805D076
:108F00004C48193002F0BCFB002801D102206071EE
:108F1000287A002804D16079022801D103206071E9
:108F2000287D002804D16079032801D1667126715B
:108F3000E16800290AD06079022801D0032805D110
:108F40002878002802D06078002814D0A670182154
:108F50006846FFF7D4F968460670019606720396D4
:108F6000607901280BD0344F0426203702280FD017
:108F7000032850D12EE0A77006208847E7E72D4848
:108F8000183001906846077046820682277145E0D6
:108F9000288A69464882A88908822748203004F038
:108FA00093FA002805D02878002802D0607800289D
:108FB00002D002202EE03BE00220694608721E48E3
:108FC00003973038C6700021FFF736FE00282FD1F6
:108FD000267120E0288B69460882A88B48821648B3
:108FE000203004F071FA002805D02878002802D03B
:108FF0006078002801D003200CE002206946087246
:109000000D4803973038C6700021FFF715FE002881
:109010000ED1052020716079002803D0684673DFE7
:10902000002805D1E168002901D020798847002077
:1090300007B0F0BDF42000201C34002073B586B0CA
:1090400004466946227C097F00208A4225D00025FB
:109050000126684600950680458007A80190217486
:10906000E188608A6A46A4DF002816D1608A0D492B
:10907000884214D0207D002811D0029503950495D4
:109080000595E18868460181867241888181049056
:1090900001980590608A02A9A6DF08B070BD08207B
:1090A000FBE70000FFFF000038B5044608682060B9
:1090B0000020C043608208792075FF200D4620748F
:1090C00001216846817006490180221D6946012000
:1090D000A0DF002803D129462046FFF7EFFC38BD6A
:1090E0000F18000038B50A88102A1AD0112A1AD091
:1090F000502A1BD1027D002A18D0CA884389891DB5
:109100009A4213D10A8B022A10D10268002A0DD08C
:10911000CB7E8C7E19022143C907C90F07D00021DD
:1091200006E0898801E00021C943418238BD012160
:109130006B4619706946904738BD000070B505460A
:1091400001461C220F48FFF7B3F80F4C002626708B
:109150002968002907D00822A018FFF7A9F820469F
:1091600008307ADF02E0084808307BDF002808D1A9
:10917000401E608004486670044A0021001DFFF70D
:1091800003FC70BDE4340020142100209DD30100B5
:10919000F8B5224C028800271F4DE689102A16D008
:1091A00029464968112A21D0122A2DD0502A1CD1D3
:1091B000C288801DB24218D1028B022A15D1C27E0C
:1091C000837E10021843C007C00F0CD112E08188C3
:1091D000698001461048082216311030FFF768F800
:1091E0006F70002E01D100F055FEF8BD0020C04385
:1091F00068806F700846FFF743FC0028F5D0A1692E
:109200000029F2D08847F8BD811D0348082210309C
:10921000FFF74EF8E7E7000014210020E4340020B7
:109220007FB504460121684681714A4981804A4AD6
:1092300001A90120A0DF00287ED1228825463C35E7
:10924000002A09D044482B46801C0090434861689E
:1092500000F0C4FC00287BD12289002A0AD03E48B5
:109260002B460A3000903D48E168401F00F0B6FCF4
:1092700000286DD1228A002A0AD037482B461230A6
:10928000009036486169001F00F0A8FC00285FD1FB
:10929000228B002A0AD030482B461A3000902F48E3
:1092A000E169801E00F09AFC002851D1228C002A2E
:1092B0000AD029482B46223000902848616AC01EF7
:1092C00000F08CFC002843D1228D002A0AD02248CD
:1092D0002B462A3000902148E16A401E00F07EFCB7
:1092E000002835D1216B00290ED002A803F0EAFF37
:1092F00019482B46323000901848082202A9801FD6
:1093000000F06CFC002823D1606B00280BD01249C0
:109310002B463A310091027901681048401C00F058
:109320005DFC002814D1A16B002910D002A802F026
:10933000E7F90948423000E00AE0009007482B4670
:10934000072202A9273000F049FC002800D10020A4
:1093500004B070BD0A18000090200020292A0000E7
:1093600070B5044600F022FF2146104800F07CF85A
:109370000E4821461838FFF7B5FE2046FFF708FFD4
:10938000204600F08FF92046FFF726FD084E706951
:1093900002F03CF8054630222146FEF789FF002204
:1093A0002946B06902F024F870BD00005025002065
:1093B0000020002030B50446008C134A8BB0904248
:1093C0001FD006AA204601F0BDFB6946054608806D
:1093D0000020019002900390049022898A8001224B
:1093E0008A71088106A803910490208C01A9A6DF48
:1093F000002804D169460988A94200D00C200BB08E
:1094000030BD0820FBE70000FFFF000038B5044630
:1094100008682060087960710020C0430D462084F0
:109420000020222108554C210853012168468170F3
:109430000C490180A21D69460120A0DF00280FD140
:109440002946204601F026FB002809D1A8680028FB
:1094500005D02946204600F093F8002800D10020CE
:1094600038BD00000D18000038B50A88102A17D042
:10947000112A17D0502A18D1CA888389891D9A4287
:1094800013D10A8B022A10D10268002A0DD0CB7E9C
:109490008C7E19022143C907C90F07D0002106E0BD
:1094A000898801E00021C943018438BD01216B4650
:1094B00019706946904738BD70B504460D46084698
:1094C000FEF728FF2080656070BD0A780270497839
:1094D00041700220704700001CB500234822154946
:1094E000082003F005FC002803D000221146FFF7F6
:1094F00003FA00200090694601900870684660DF1A
:10950000002803D000221146FFF7F6F90A4803F0BD
:10951000E5FB002803D000221146FFF7EDF90748CC
:1095200003F0FEFB002803D000221146FFF7E4F908
:109530001CBD0000F024002061930100B5D20100A1
:1095400000260E4DF6433146A86901F02DFF102884
:10955000F9D108880C4610280AD1072000F088F9B4
:10956000002803D000221146FFF7C6F9A088A88082
:109570002146686901F078FFE5E70000002000203F
:10958000F0B58FB00D4606461C216846FEF7B7FEC3
:109590006846017802200143684601700024019466
:1095A000039404940594012708A80694877015492C
:1095B000684601840794E97B0177297C4177807FA5
:1095C000F9210840F721801C0840EF21084041089C
:1095D000490068468177142109A8FEF790FE08A883
:1095E000099007A80A9068468785C4850786A868F9
:1095F0000D903346F088103309AA6946A2DF0FB0F8
:10960000F0BD0000382A00001CB5044681786A4687
:109610000C4802F0A9F8002812D160781C214843B8
:1096200009491C2340181A46694602F051F90648B8
:1096300006494030807A80000A58214668469047A3
:109640001CBD0000EC2000208833002098D50100CC
:109650007CB5134E00250C463060002918D06946B1
:10966000002000F0B3F8002819D101A9012000F072
:10967000ADF8002813D1684601790020002901D0F7
:10968000022004E069460978002900D00B202070F0
:109690007068002802D1FFF7B6F8054628467CBD61
:1096A0006420002010B51C4C0188606810290DD082
:1096B00011290AD1401E606007D1FFF7A4F80028E5
:1096C00003D02168002900D0884710BD00281ED192
:1096D00000210122084600F0A7F8002801D0072841
:1096E00011D107220221012000F09EF8002801D0AC
:1096F000072808D104220221002000F095F8002854
:1097000005D0072803D02168002900D08847606869
:10971000401C606010BD00006420002010B50320D4
:1097200000F0FCF9002801D0062800D1002010BD6F
:10973000F8B507460024224802E0641C042C19D224
:10974000A2008258BA42F8D1042C13D21D4E1E4DED
:10975000F069002928D001290DD002290AD1600022
:10976000201840194578002D04D0F168002901D057
:1097700028468847F8BD610062182946AD5C51183B
:1097800000914978002909D071680A2251430D4A95
:10979000521CFFF747F9002800D1777000988178B4
:1097A000084810300155DEE7FFF76AF90548610007
:1097B000611810304919005D8D78A842D3D0F8BDEA
:1097C0000CD50100442000208427002004280CD25E
:1097D000074A1269074B80001B5C012098409043A8
:1097E00000D001200870002070470020FAE7000038
:1097F000000500500CD5010010B5042804D00A283B
:1098000001D103F04BFA10BD06481321808876DFA2
:109810000828F8D00028F6D000221146FFF76CF88F
:1098200010BD00000020002070B50023042811D2D4
:10983000440004190D4D012A02D101290DD0002246
:1098400046008019094E801900290CD0012906D044
:10985000022906D00723184670BD0D30C2B22A5522
:10986000F9E74270F7E78270F5E7000084270020EF
:1098700010B5054A0146127A0020D20702D00846E8
:1098800000F054F810BD00004420002070B50E46D2
:10989000204905464E608D600020CA60A9071ED58C
:1098A0000024012211462046FFF7BEFF641C042C51
:1098B00002D20028F5D012E0002810D1720804214D
:1098C0001548FEF7DDFF002809D1FEF7C7FF002885
:1098D00005D11048114A00211C30FFF755F8E9075F
:1098E00006D00F220E4952058A600023CB608A61A0
:1098F00000280DD107480B4A00211430FFF744F827
:10990000002805D10348084A01211830FFF73CF828
:1099100070BD0000442000201CD50100599B0100AF
:109920000005005041AD010045880100FEB57849B1
:1099300006464F684B690093BB00FB1800200122CC
:10994000019352050546734C3300FEF72FFE180DA8
:1099500013133749596C828E858E97A1A5A5A5A5AD
:10996000A5C3C8CDD4DADA120B225205A260E56095
:109970000D70FEBD05208005A060E56060680F23C6
:109980005B055840800209D5A260E560022E02D135
:10999000E120C0000AE07D20400107E0E260A56010
:1099A000022E01D1C82001E0FF2091300E70642109
:1099B000FEF768FC78430022014646E0052080055A
:1099C000A060E56060680F235B055840800204D505
:1099D000A260E56019204001E8E7E260A560E1E7E8
:1099E00005208005A060E56060680F235B05584096
:1099F000800202D5A260E560CDE7E260A560D3E712
:109A000005208005A060E56060680F235B05584075
:109A1000800202D5A260E56001E0E260A5600E7000
:109A20007900002211E005208005A060E5606068F3
:109A30000F235B055840800202D5A260E56001E07B
:109A4000E260A5600E70002239460098FEF7EAFF3A
:109A5000FEBD05239B0544E06068012189050A4697
:109A60008243A2600840E06010E061680120800548
:109A700002468A43A2600140E160E4E76168012098
:109A8000800502468A43A2600140E1600199C8E76F
:109A90000F214905E1601BE00F468869FEF7F0FFE2
:109AA00011218A1B1C4E01D0002802D0A660E5605F
:109AB000FEBD012A0BD91046C82148436421FEF798
:109AC000E1FB796800224143B869FEF7ABFFE6602D
:109AD000A560FEBD0F225205A260E56015E00723D8
:109AE0009B05A360E5600EE00D225205A260E560D3
:109AF0000122920507E00322D205A260E5609210E0
:109B000001E00F225205E260A5600E70FEBD00006C
:109B1000442000200005005000008000F0B5002126
:109B20000B4C0C4D03273F048A00A2589200561993
:109B3000326801238B40034000D00323BA431B0447
:109B400013433360491C0429EED30020F0BD00000C
:109B50000CD501000007005010B500780221FFF776
:109B6000E7FD10BD054900228300D2435B185A600F
:109B7000042802D3081840300272704700350020D4
:109B8000F0B50025ED43002A02D00023042601E0B1
:109B900004230A260C4C05E09F003F197F687F1CB8
:109BA00004D05B1CB342F7D32846F0BD26185DB243
:109BB000203635739E0036197160002AF4D1E11801
:109BC00040310872F0E70000003500200249091812
:109BD0002C2008567047000000350020FFB58FB0DC
:109BE0001E4615460F0004D1002211461046FEF70E
:109BF00083FE002D04D1002211461046FEF77CFEA4
:109C00001C216846FEF77BFB684601780220014371
:109C10006846017000240194039404940594012182
:109C200008A80694817068460F99018407943178DA
:109C3000017771784177807FF9210840F721801CF6
:109C40000840EF2108404108490068468177142107
:109C500009A8FEF754FB08A8099007A80A906846CF
:109C60008585C485058604480D9709AA694600883C
:109C7000189BA2DF13B0F0BD90200020F8B5384942
:109C800014230A780F205A4354183649227926693A
:109C90008F88241D022A1BD001252D07042A2AD0D3
:109CA000052A5BD1286981B23046FEF7EBFA0146FE
:109CB000A38828699A1980B24843101A82086088DC
:109CC0001818861928694B1C80B25843801B34E051
:109CD000B80262882169121A0918A3883018181866
:109CE00001239B029A4202D2920829DF31E0FF222F
:109CF000013229DF2DE0A36819481901CC3008187A
:109D0000018942894068B04203D160885143814251
:109D100018D0022B16D0286981B23046FEF7B2FA6D
:109D20000146286980B24843301A820828694B1CD2
:109D300080B2584363889B19C01A8308204603F0F9
:109D400099F906E0286981B23046FEF79BFAC019FE
:109D500028DF002802D1024901228A70F8BD0000E4
:109D6000743500203421002010B5084900204A78BD
:109D7000002A09D08978002906D1FFF77FFF002843
:109D800002D0112800D1002010BD00007435002041
:109D900014225043054A002180180171C18001221C
:109DA0000161C2604161018170470000743500208B
:109DB000F8B5134C069E65780A2D1FD027787D19BB
:109DC000EDB20A2D01D30A3DEDB214277D432D19C2
:109DD0002871002068716A6103C92961E860EB801D
:109DE0002E81A1780020002904D1FFF747FF112818
:109DF00000D100206178491C6170F8BD0420F8BDD5
:109E000074350020F8B50D4611780646881D1446B5
:109E10001F2801D90C20F8BD33880720062BFAD360
:109E20001927FF01BB4202D9164A9342F3D1728827
:109E3000062AF0D3BA4202D9124FBA42EBD1114FDF
:109E4000BB4203D0BA4201D09342E4D8481C052259
:109E500020706A5420781222411C21702A542078E4
:109E60004119308803F08AFA21784018C0B2207076
:109E70004119708803F082FA217840182070002080
:109E8000F8BD0000FFFF000010B500221146FEF7EC
:109E900033FD10BDF8B5164800F0D8FE144D00266D
:109EA000103D144C002807D0616900291BD0012007
:109EB0006A461070684615E02878002805D0616968
:109EC000002910D0684606700CE0687800280CD095
:109ED000A16800226868FEF7A5FD002803D0A169EB
:109EE000002900D088472E70F8BD6168F1E70000B6
:109EF00024210020E434002070B5094B04469E7AEA
:109F0000082000250E4207D00648844202D0188956
:109F1000A04202D10020156070BD052070BD000078
:109F2000BC330020FFFF00000C214843064910B558
:109F3000012240188272911E0181FF21C172072106
:109F4000FEF7DDF910BD0000BC330020F8B5002697
:109F50000124154D23E06968F00047183878214640
:109F60006A698140114218D08A436A6101F0EEF8B3
:109F70003A7821462B699140194003469340994213
:109F80000BD17978012901D0012100E000217B6803
:109F90004140002B01D010469847761CF6B2287835
:109FA0008642D8D3F8BD000040210020FEB50E4601
:109FB000044681786A46234801F0D6FB002827D161
:109FC00060780C21204F4843C019807A400620D485
:109FD000022E1ED0012E1ED01C4DA0781C214843FD
:109FE00019490023F83941181C226846A84700285F
:109FF00013D0022E0CD020780C21484312490C318A
:10A000004018807A124980000A58214668469047D5
:10A01000FEBD104DE1E7104DDFE7022EF8D060786D
:10A020000C214843C019817ABF22114081726078A7
:10A030001C2148430449343941181C231A466846F8
:10A04000A847D8E7EC200020BC33002035CD010024
:10A0500088D5010025BC01006DBA010070B5054628
:10A06000114A124800241C2363431B189B7EFF2BBC
:10A0700004D0641C072CF6D3104670BD0A78022A5F
:10A0800009D01C2262431018FD228276072210306C
:10A09000FEF70EF904E01C2161430818FE218176C9
:10A0A0002C700022E8E7000043800000C43200204A
:10A0B000F7B505250F4F06460024002E0AD01C20B8
:10A0C0006043C019072231461030FEF72AF90028F4
:10A0D00007D00AE01C206043C019018B029881421E
:10A0E00003D101980025046002E0641C072CE4D32E
:10A0F0002846FEBDC43200207CB5054681B26A46C2
:10A10000074801F031FB040008D15421684601F0F2
:10A1100055FB040002D1284601F0BEFA20467CBD62
:10A12000EC20002010B5100003D000221146FEF7ED
:10A13000E3FB002010BD00001FB56946087301F065
:10A140007BFB002803D000221146FEF7D5FB03A8B5
:10A1500000F026FA002803D000221146FEF7CCFBBF
:10A1600001A805210130FEF7CAF8694648790122A5
:10A170001043E1210840DF210C3008406946487156
:10A18000072088711020C871064800900A7106489F
:10A1900000F01AFB002803D000221146FEF7ACFBAA
:10A1A0001FBD000025A1010002200020F0B50546DA
:10A1B00093B000200290FF24ED480E940078002810
:10A1C0004BD0EC4F3868002847D001A800F0DAF9EE
:10A1D000002803D000221146FEF78EFB281D0590B3
:10A1E0002A2069460883FF20002688710E71039695
:10A1F000E04C28880C3C10280ED0A88803AA022125
:10A20000FFF77AFE002807D103980C214143091972
:10A21000CA7A69468A7148712888132217287CD027
:10A220000FDC10281BD0112853D0132876D0142807
:10A2300013D103980C2148430019C07AFF2871D02C
:10A240008DE0CD4918286BD01C286AD0522804D143
:10A25000B87A8000095801A8884713B0F0BDC74FED
:10A2600003AA01213846FFF747FE0028F5D10399DC
:10A270000C20484302220019827211236A4613748B
:10A280005171A98801810722A91DFEF711F8287DC7
:10A29000C10707D04108B6480830405CFF2808D005
:10A2A0000E9006E03A460EA9A81DFFF701FF002810
:10A2B0000ED103990C22514309190E98C8728A7A5B
:10A2C00008231A438A726946887101A8FFF79CF92E
:10A2D00039E103980C2148430119887AFD22104086
:10A2E0008872010706D5C0090DD0002101A8FFF72B
:10A2F0005DFE08E068468079FF2804D001F0CCF9C3
:10A30000FF206946887103980C22504310210019E0
:10A31000817212206946087415E17FE030E001E0A7
:10A32000D5E00EE1EA890EA90020FFF7C1FE002862
:10A330000ED103980C22504300190E99C172837AF2
:10A340000822134383726846817101A8FFF75CF904
:10A3500003980C2148430019C07AFF2806D00398BF
:10A360001C214843834940394018029003981C211E
:10A37000484383494218A8880023029982DF6CE78A
:10A3800068460274039B0C2058430119887A042202
:10A3900010438872C87AFF2830D0162069460874A6
:10A3A0001820434373480E21243818180830FDF74D
:10A3B000A6FF03980C2148430019817A40221143DB
:10A3C000817203990C2200204A430A901219D27A12
:10A3D0001C235A436A4B0C90D2180B921C225143F7
:10A3E0001A46C43289180791089009903A1DA88826
:10A3F00007AB00217FDF0028C1D1A4E00EA8FFF742
:10A400002DFE002801D00646DBE769460E988871CC
:10A4100003990C2251430919C872D2E7787A40088F
:10A4200040007872039A0C209446424311198B7AAB
:10A43000FB2003408B7214206F463874A8790028E3
:10A4400004D0C87AFFF758FEAE797CE0E87940077F
:10A4500079D5B879FF2876D008273B438B72EB7A01
:10A460009B0708D51C2503466B43454D5B199D7E14
:10A470006D086D009D76CB7AFF2B64D0A25C022A1A
:10A4800010D01C2250433E4D072240191030FDF7DA
:10A490000FFF684680791C2148434019817EFD22C8
:10A4A00011400EE061461C225143324A403A89185D
:10A4B0004A8A1C214843324940180283817E490858
:10A4C00049008176012101A8FFF770FD3BE0A879E2
:10A4D0000209012A23D10007000F01281FD1039888
:10A4E0000C2242431219927A120718D518214843B8
:10A4F0002049243940180E210830FDF700FF1620AE
:10A500006946087403980C2148430119887A60222F
:10A5100010438872787A0221084378720FE003981A
:10A520000C2250430019827A80231A43827215202C
:10A530006A461074B87A8000095801A88847002636
:10A5400001E068460274324604A901A8FEF7E2F968
:10A550006846007C122800D07FE603980C21414316
:10A560000919897A0129F7D0FFF7DEFC75E60000AA
:10A57000DC200020C8330020A8D50100FFFF000028
:10A58000C4320020002806D0FF2101704170817084
:10A59000C170002070470148704700000E80000025
:10A5A000F0B585B0040036D0294800250560457215
:10A5B00085722846FFF7B8FC254818212438FDF796
:10A5C0009EFE0026FF27304601F066F82148875599
:10A5D000761C072EF7D35421684681800721C1805D
:10A5E0001D481C4900900831684601F0C3F9002855
:10A5F0000FD1184E0120083E3070207800280CD072
:10A6000069468888C988484381B23046103001F0D5
:10A61000D5F805B0F0BD1148FBE7114F00240D48F7
:10A62000A1B202AA083001F09FF8002809D11C202D
:10A630006043C01900231C2202A901F049F9002837
:10A6400001D03570E5E7641C072CE8D3E1E7000092
:10A65000C8330020E420002065A601000E80000021
:10A66000C4320020FFB555488FB00068189F1E46C1
:10A67000002851D0542F4FD86846FFF783FF002899
:10A6800003D000221146FEF737F900246846047013
:10A690000471254605970696A9B20DAA484801F00F
:10A6A00063F8002806D108220DA90F98FDF739FE9E
:10A6B000002819D06D1C072DEED3684680780790CE
:10A6C000FF2829D010982025042810D03D481C21AF
:10A6D000301AFDF7D7FD012707282DD204A80290D4
:10A6E000119800281AD021E068468570E5E7542FBC
:10A6F00003D040206946087101E06846057169464B
:10A700000879032108436946087104A8029001A949
:10A710006846119AFEF7FEF813B0F0BD0799384667
:10A7200088402749103949680842F5D0079802F057
:10A730002BFE6846057138E020481C214038301A4D
:10A74000FDF7A0FD00280BD01C4D1821243D701BE7
:10A75000FDF798FD00281AD0402069460871DBE714
:10A7600004A8029068460571447014480A940C309D
:10A770000B904C380790684680781C21484311495B
:10A780004018089007A80690182005900DE0302189
:10A79000684601714470C77008480C38807A800799
:10A7A00003D428461821FDF7AAFD1098694603280E
:10A7B000087901D00221A5E73843A5E7C833002076
:10A7C000EC200020C432002070B5064618480D4623
:10A7D000007800280ED01749002E0ED0002D0CD086
:10A7E0002868002809D0144C2168002907D0114896
:10A7F0000A3870BD0F48801F70BD084670BD2060CC
:10A800000522691D201DFDF753FD2879A072207ACD
:10A810000221400840000843FB2210402072E079EA
:10A820000123184308431040E0710020307070BDD0
:10A83000DC2000200E800000C83300203EB511202F
:10A84000694608720A2211A102A87CDF040008D020
:10A8500000221146FEF750F8002220461146FEF76E
:10A860004BF80021FF20913000916A460191108041
:10A87000430053809180D08068467ADF002803D05F
:10A8800000221146FEF738F83EBD00004E6F72649C
:10A8900069635F4E524600000020704700207047F9
:10A8A00000207047F8B506464078182104464C430E
:10A8B00024490C2250436118224A00254B68183263
:10A8C0008018AE462F469C46002B0CD0827A134649
:10A8D000D20908D05A0606D40D461A4A614689B2F2
:10A8E000175908358E46174C008918343B46724676
:10A8F0002946A9DF0B2819D0002800D01248012FC3
:10A9000013D170780C214843001900890F4AA7DF42
:10A9100000280AD00E49884212D0082810D0891C7D
:10A9200088420DD011280BD00020F8BD70780C2182
:10A93000484301230019008972462946A9DFE0E750
:10A940000148F8BDA433002041800000FFFF000053
:10A950000230000070B50C46014660781822084DA0
:10A9600050434019382300F0B3FF002807D1617825
:10A970001822514349194A68521C00D14A6070BDDF
:10A98000A4330020F3B585B00D460E206946088239
:10A9900068780C2103274843224E3B4680190089E2
:10A9A00004AA6946AADF002838D1687818214843EC
:10A9B000741A001969460A8A0830FDF7B2FC0028AB
:10A9C000687807D0182148430119496800290DD03B
:10A9D000154E0CE00C2141438919897A89071DD451
:10A9E000182148430019FDF78AFC17E00F4E275045
:10A9F0006846028A687818214843001942606878DE
:10AA00004843001969460830FDF752FC6878182160
:10AA100048430119382318220598B047002007B091
:10AA2000F0BD0000BC33002025BC01006DBA010060
:10AA300010B5FFF737FF10BD10B5FFF78BFF10BD46
:10AA400010B5FFF79FFF10BD70B50646104C0125ED
:10AA5000B540E068FEF714F800280CD1616929427E
:10AA600007D1304600F072FB0028206904D028434B
:10AA700003E0A943616170BDA843206160690022C1
:10AA800028436061A168E068FDF7CCFF70BD00005D
:10AA900040210020F0B5002406460D46601C010749
:10AAA00095B0090F08A810310C940174297B4174EA
:10AAB000817CF9273940891C81741C2105A8FDF788
:10AAC0001EFC6846017D10200143684601750CA8F4
:10AAD00006940A900894099401220B9408A882769F
:10AAE0001749684601870D94697B08A80175A97B01
:10AAF0004175817DF7203940891C0140EF200140DC
:10AB0000114308A8817514216846FDF7F8FB0EA8CB
:10AB100000900DA801900FAA0021304600F012F815
:10AB20000146684601811421448181810FA8049067
:10AB30003346F08808336A4605A9A2DF15B0F0BD98
:10AB4000372A0000F7B542790025002A00D00425F5
:10AB50002222135C0222002B00D01543CBB2FF2926
:10AB600007D901221543029A090A537091700326EE
:10AB700002E0029902264B7004464034A189002964
:10AB800001D010210D43002716E0B11C142909D96A
:10AB9000A189C91B4A007900091824302431FDF726
:10ABA00087FB0CE0029B7A0012189B19928C1A709A
:10ABB000120A5A70CEB27F1CA189B942E5DCA08985
:10ABC000C01BA081029805703046FEBDF8B51E4C32
:10ABD0002078002837D02069002807D00026E068B8
:10ABE000002805D00025002E04D013E00126F6E74A
:10ABF0000125F8E7684651DF052806D0002806D071
:10AC000000221146FDF778FE04E0012602E02169EA
:10AC100000988847002D12D1608869460880A06896
:10AC200061DF052806D0002806D000221146FDF776
:10AC300063FE04E0012502E0E168A0688847002E79
:10AC4000D8D0002DCFD0F8BD58210020418805482C
:10AC50000288914204D34088814201D80120704784
:10AC6000002070471C2100201048018CC9B2012926
:10AC700017D1818C090714D1018D09060A0F03D160
:10AC8000828D1206120F0ED0090F012903D1828D79
:10AC90001206120F07D0032903D1808D0006000F82
:10ACA00001D000207047012070470000C00F00F065
:10ACB000800701D0002070470120704770B50D4615
:10ACC000040004D0002A02D12078012801D080207D
:10ACD00070BD204601F096F9002805D0294620468F
:10ACE00000F027F8002070BD812070BD10B504462B
:10ACF000808900281CD060898000001900690860E4
:10AD00006078022805D10021204601F001FB01F006
:10AD1000EFFA72B6A089401EA08162B66089401C1D
:10AD200080B26081E189884201D1002060810420E5
:10AD300010BD10B501F0ECFA01F0DAFA10BD000018
:10AD400010B50448017AC90702D00078FEF7EEFD7D
:10AD500010BD000044200020002596B0594B05226C
:10AD6000092128460095FDF73FFE002803D0002268
:10AD70001146FDF7C1FD00220121534800F0B4FB4C
:10AD8000524C0022E06050480121083000F0ACFB3A
:10AD900020614F4A4F490320FEF778FD002803D079
:10ADA00000221146FDF7A8FD01A90020FEF750FC86
:10ADB000002803D000221146FDF79EFD6846007969
:10ADC00002287CD0002168460170FEF785FB6846AA
:10ADD0000078FFF7B1F9FFF731FD302101A8FDF749
:10ADE0008EFA022168460171012787710621C1711F
:10ADF0000326868235482021383006900DA8FDF7BD
:10AE00007EFA08A8077728201090B4201190324BC2
:10AE10000DAA0021009501A8FDF73CFF002803D0F2
:10AE200000221146FDF768FD01F0BAFE01F02AFE8E
:10AE30001C216846FDF763FA2848019028480290D3
:10AE4000009568460673274881896846C181057464
:10AE500025480590254806906846FEF76FF90028BA
:10AE600003D000221146FDF747FD1748183000F0C7
:10AE7000E1FA606114480021103000F07BFAA06113
:10AE800011480021243000F001FB7D21E06109011F
:10AE9000E06800F043FB7D25ED002946206900F0C5
:10AEA0003DFB0220FEF700F8002803D000221146E7
:10AEB000FDF722FD284600F005FAFBE7FFE7012138
:10AEC00081E70000C0210020D8D40100002000202C
:10AED000F9970100CD0C0000F5B1010088130000C6
:10AEE000307500005025002019B20100899E010034
:10AEF00070B5054600790E46801C1446C0B2117824
:10AF0000821C8A181F2A01D90C2070BD0A46491CD0
:10AF10002170401CB0542078FF22411C2170325413
:10AF200020788119288802F029FA21784018C0B2C7
:10AF30002070AA88002A09D0A968002908D08019A1
:10AF4000FDF7B6F92078297940182070002070BDEF
:10AF5000072070BDF8B514780746A01C15460E46AC
:10AF60001F2803D87878801C1F2801D90C20F8BD31
:10AF70001D20001B80B26946864608803019801C5F
:10AF80007DDF0028F3D13878022805D16846008893
:10AF9000704501D8092107E078780821002801D000
:10AFA000704501D968460088421C3255641CE2B2E3
:10AFB000B1542978801C081828700020F8BD0020A2
:10AFC0007047002070470020704700008207D30EB2
:10AFD000FF229A408907090E10B5994000280BDA24
:10AFE00003071B0F083B9C080C4BA400E318DC690B
:10AFF00094430C43DC6107E08408094BA400E41887
:10B00000236893430B432360C106C90E0120884087
:10B01000044908600449086010BD000000ED00E02C
:10B0200000E400E080E200E000E100E070B50D46E1
:10B03000064600F04DFB01240028304618D0FEF7EC
:10B04000C5FD1849001F08184030007B80090328FF
:10B0500002D0012805D006E013480069B440204220
:10B0600001D1022100E00321304600F0A9F870BDB3
:10B0700000F03AFB0028FAD03046FEF7A7FD810029
:10B08000CA1D0A4BF932C9180B6992B223430B61EE
:10B090000749511800220A60002DE8D08440054875
:10B0A000446070BD00350020000500500065004080
:10B0B0000060004000630040F8B5204F0D46044694
:10B0C00038192C2141560026C8171346401C01D0C0
:10B0D000082630E0EA7819462046FEF751FD411C6B
:10B0E00028D0174BAA78A100C918002A03D00A68F3
:10B0F00002239A4301E06A7892000A60E978002905
:10B1000010D082000F482978101802690E4B1A409F
:10B110000261E206D20C8907890B0A4301690A43DE
:10B12000026108E0381840302A78017A9201114310
:10B13000017200E004263046F8BD00000035002012
:10B140000007005000650040FFE0FCFF034909696B
:10B15000C140C807C00F00D0012070470005005053
:10B1600070B5114D2878002801D0082070BD00204E
:10B17000411E2A182032401CC0B211732028F8D377
:10B1800000242046FEF7EEFC641CE4B20A2CF8D33F
:10B1900001210620FFF71AFF01200449C00748607B
:10B1A00001202870002070BD0035002000630040A1
:10B1B00002480078002800D00120704700350020A8
:10B1C000820006481018026803231B049A43026099
:10B1D000026809040A43026070470000000700503B
:10B1E000034940180068012800D000207047000083
:10B1F0000060004010B500280AD0022807D1FEF7F1
:10B2000037FB002803D000221146FDF775FB10BD67
:10B2100001F044FD10BD000010B50078002809D1F0
:10B2200005483B21808876DF002803D000221146A4
:10B23000FDF762FB10BD00000020002010B51D4A84
:10B240001D490300FDF7B2F905040B312027120058
:10B25000487801281FD0022808D1032005E048784B
:10B26000002804D0032801D10220487010BD134BE0
:10B2700004201860124B012018609368D2689A422B
:10B28000F3D0FDF7D3F910BD4878012806D0022885
:10B2900004D00328F7D1FDF701FA10BD9068D168FA
:10B2A0008142EED1FDF7E8F910BD48780128E8D0D9
:10B2B00010BD0000643500202C2100200025004036
:10B2C0000020004080B5EFF30581002901D08220E5
:10B2D00080BD024FBC4600DF80BD000039CD0100BB
:10B2E00080B5EFF30580002801D0822080BDEFF308
:10B2F0001480C00703D0034FBC4600DF80BD01F0BF
:10B3000025FD80BD4DCD010080B588B0EFF30580EF
:10B31000002802D0822008B080BDEFF3148081079E
:10B320001248890F06D001291AD0022910D003290A
:10B3300018D112E008A981F309880078C0070AD063
:10B34000022080F31488BFF34F8FBFF36F8F09E0A3
:10B350000078C00706D10320F3E70078C00701D0CA
:10B36000FF20D8E7024FBC4600DFD4E748D50100F4
:10B37000C5CD010080B5EFF30582002A01D0002081
:10B3800080BDEFF31482064BD2075B78D20F1A43CD
:10B3900003D0044FBC4600DF80BD01F037FD80BD07
:10B3A0006C2100200DCE01009EB50246EFF3058012
:10B3B000002816D08020002A01D0002904D0029A4B
:10B3C0000199009003B090BD11780129F7D101A92E
:10B3D0001046FFF78BFC042801D00020EFE7102077
:10B3E000EDE7024F1046BC4600DFEBE737CE010029
:10B3F00080B5EFF30583002B02D0FFF75FFC80BD23
:10B40000014FBC4600DF80BD73CE010080B5EFF375
:10B410000581002908D1EFF31481C90704D0044F36
:10B420000021BC4600DF80BD002101F0DDFE80BDB3
:10B43000E9D1010080B5EFF30581002901D000209A
:10B4400080BDEFF31481064AC9075278C90F114332
:10B4500003D0044FBC4600DF80BD01F026FD80BD57
:10B460006C210020ABCE010080B5EFF30582002AED
:10B4700007D1EFF31482D20703D0034FBC4600DF9D
:10B4800080BD01F0C2FE80BD0BD2010080B5EFF39C
:10B490000582002A01D0002080BDEFF31482064B04
:10B4A000D2075B78D20F1A4303D0044FBC4600DFAB
:10B4B00080BD01F011FD80BD6C210020D9CE0100BE
:10B4C000034FBC4600DF034FBC4600DFFEE7000031
:10B4D00051CF01006DCF010080B5024FBC4600DFA7
:10B4E00080BD0000A9CF0100B0B5EFF30583002BAC
:10B4F00001D00020B0BDEFF31483064CDB07647865
:10B50000DB0F234303D0044FBC4600DFB0BD01F086
:10B5100059FDB0BD6C210020C5CF010080B5EFF30F
:10B520000582002A01D0822080BD024FBC4600DF88
:10B5300080BD000005D0010080B5EFF30581002932
:10B5400001D0822080BD024FBC4600DF80BD0000DC
:10B550004FD001000025094CED4329462068FFF734
:10B5600023FF02460846102AF7D1FFF7B5FF00284F
:10B57000F3D0024608469047EFE700008C200020F9
:10B58000FEE70000194E1A4F1A4D0124346000F0F6
:10B5900041F80002000A022824D97968164A4018A6
:10B5A000904201D952428018114A40321060AC607A
:10B5B0000120124A4004106072B63068002807D09B
:10B5C00001231B046B6030BF0D4A00201060AB608C
:10B5D00062B66C607868884201D3401A02E0064A7D
:10B5E000511A081800F00EF8D0E70000742000206F
:10B5F0000015014000130140FFFFFF0000E100E0E3
:10B600004011014080B5024FBC4600DF80BD000004
:10B6100021C4010080B5024FBC4600DF80BD0000A0
:10B6200071C50100094901208861094900224A6069
:10B63000820790604A68002AFCD0064A2021916067
:10B640000549486005490860112070470005004021
:10B6500000010040001501400013014000100140AE
:10B6600005480168002905D004494968C90701D087
:10B6700000210160704700000011014000130140EB
:10B680000021425C002A01D001207047491C062994
:10B69000F7D300207047000070B505461C200B4909
:10B6A00068434418204611300621FCF728FE204646
:10B6B0001021FCF724FEFF2121740020A176C04355
:10B6C0002083284601F060FE70BD0000C4320020D7
:10B6D000044908182C214156042901DB0120704738
:10B6E0000020704700350020044908182C214156DD
:10B6F000042901D201207047002070470035002046
:10B7000070B50D00044604D1002211461046FDF725
:10B71000F3F8002C04D1002211461046FDF7ECF896
:10B720002878207069886170090AA170A988E17081
:10B73000090A2171E8886071000AA07170BD0000DB
:10B7400007490978002906D0002806D0054949781C
:10B75000016000207047082070470E2070470000ED
:10B76000342100207435002030B5124B1B78002B9B
:10B7700007D0002807D0002A05D00468002C12D179
:10B7800003E0082030BD0E2030BD0B4B1D68002D9E
:10B7900009D045681889414369185D89454358684F
:10B7A0002818884201D8072030BD1460002051605D
:10B7B00030BD00003421002040360020F8B5054699
:10B7C0001B480F460078002805D0002D05D02868BA
:10B7D000002820D103E00820F8BD0E20F8BD154C4C
:10B7E00000262068002816D06089218948436168B6
:10B7F0004118686881420ED9FFF75AFA00280CD028
:10B8000029686868090109194A680989801AFCF7DA
:10B8100039FD002903D00720F8BD1020F8BD3B46B4
:10B820000022294604200096FEF7C2FAF8BD000067
:10B830003421002040360020F8B50026214C224853
:10B84000A680667006704670867035462846FEF7FC
:10B850009FFA6D1C0A2DF9D31C4F668078693D0450
:10B86000401C05D0286981B27869FCF70BFD00E027
:10B8700068692969801E89B24843A0601248A68081
:10B88000CC30066006818681468108206070786928
:10B89000401C05D0286981B27869FCF7F3FC00E010
:10B8A00068692969401E89B24843296989B2FCF751
:10B8B000E9FC28DF002803D1034A0121917021709F
:10B8C000F8BD000034210020743500200010001065
:10B8D000FFB5264881B000781F4616460D46002861
:10B8E00008D0002D09D00198002806D0286800282B
:10B8F00018D104E0082005B0F0BD0E20FBE71C4C79
:10B90000206800280ED06189208962684143891827
:10B910006A68914206D9002E04D0B04202D3F119D0
:10B92000814201D90720E6E70198FFF7C1F9002815
:10B930001AD03846FFF7BCF9002815D06868FFF721
:10B94000B7F9002810D068683246C1190198FCF791
:10B95000AFFC0096286800220001245803212846E5
:10B96000019BA0470020C6E71020C4E73421002037
:10B9700040360020F8B5044639480F4600780028C4
:10B980001DD0002C1DD0002F1BD02068002818D0FF
:10B9900001252D07A688286980B2864230D8102E4E
:10B9A0002ED3E088009000282AD02E484169491CF7
:10B9B00009D02969406989B2FCF764FC04E00820D9
:10B9C000F8BD0E20F8BD68692969401E89B2484358
:10B9D000234B00999D6871434B19984210D3012065
:10B9E0000007006980B2814208DD0120000700697C
:10B9F000314680B2FCF746FC002901D1B00701D0E6
:10BA00000720F8BD1648418801291AD0164822C7D8
:10BA10000A011618756023688350A0883081E08879
:10BA20007081A088E3880022584301231B07521C21
:10BA30001C6992B2A4B2844205D21C69A4B2001B54
:10BA400002E00420F8BD00201C69A4B2651900289A
:10BA5000EDD10348491C8560B28141800020F8BDCA
:10BA6000342100200010001040360020F8B50446B4
:10BA700020481E46007815460F46002807D0002FA4
:10BA800007D0002C05D02068002817D103E008203B
:10BA9000F8BD0E20F8BD1848016800290ED0428973
:10BAA000018940684A4310186268904206D9002D07
:10BAB00004D0A94202D3A819884201D90720F8BDB1
:10BAC0003846FFF7F5F8002811D03046FFF7F0F8B8
:10BAD00000280CD06068FFF7EBF8002807D02B4651
:10BAE0003A46214602200096FEF762F9F8BD102082
:10BAF000F8BD00003421002040360020F8B507468C
:10BB00000020464E8646B07801281ED10020444BC6
:10BB1000B0705A78082A19D0344625781421694320
:10BB20000C19022F20D0032F0FD16079401CC0B216
:10BB30006071241D03286AD0FEF7A0F8002804D005
:10BB4000112802D02146FCF70DFFF8BD022F09D0C5
:10BB50001870FEF709F90028F7D031781422514304
:10BB6000891959E05870F4E72D498B885B1C9EB207
:10BB70008E802379241D022B05D16788B102B9423A
:10BB800001D3012100E000218C46052B01D1072AB9
:10BB900003D00021042B02D003E00121FAE7072A99
:10BBA00003D00027042B02D007E00127FAE76488BE
:10BBB000B302A34201D3002A27D000223943114304
:10BBC0006246114317D0164A144950709080487845
:10BBD000401E4870681CC0B208700A2801D30A3899
:10BBE00008701420684341187046091DFCF7BAFE1E
:10BBF0002846FEF7CDF8FEF7B7F80028A5D007498C
:10BC000014230A785A43511806E00122D6E7307807
:10BC10001421484381190D20091D94E77435002033
:10BC200034210020F8B5044620481E460078154609
:10BC30000F46002807D0002F07D0002C05D0206821
:10BC4000002817D103E00820F8BD0E20F8BD1848E1
:10BC5000016800290ED04289018940684A431018C2
:10BC60006268904206D9002D04D0A94202D3A819D7
:10BC7000884201D90720F8BD3846FFF719F8002897
:10BC800011D03046FFF714F800280CD06068FFF799
:10BC90000FF8002807D02B463A462146052000968B
:10BCA000FEF786F8F8BD1020F8BD00003421002012
:10BCB000403600200146EFF31080C207D20F72B663
:10BCC0000868002801D003680B60002A00D162B622
:10BCD000704710B500280ED000290CD00B318A080F
:10BCE0009200016844680B1A1B1B934205D2084658
:10BCF00009680029F5D1002010BD002C07D02118BB
:10BD000003680B604A6001600846083010BD42605D
:10BD1000083010BD70B50D4600280FD00849094CF9
:10BD2000884204D222680146104600F011FB2068C8
:10BD30004570054800F0E9F800F02EFC70BD0000E9
:10BD4000FFFF0000742100209036002010B50E483F
:10BD50000C4942680D480B680068934204D00A60A1
:10BD6000CB88421E9A188A808A8880B2824208D183
:10BD700000200860044800F0C8F80146024800F0BE
:10BD80000FFB10BD88210020903600208421002068
:10BD9000002906D08068002803D0002204C1001FBB
:10BDA000FCD1704770B51A4DE86800282FD0A88ADA
:10BDB000401EA882002624E0A068002808D0616800
:10BDC00041606068002802D0A16881606660A6605A
:10BDD0000F482146183800F0E3FAA08AA88260785C
:10BDE000042804D10B49E08A09884018A082012068
:10BDF0006070E068E860E068002801D00561E660F6
:10BE00002661A88A002802D1EC68002CD4D170BD2C
:10BE1000A83600208421002070B504000ED00C4DFF
:10BE2000A17828680126827891420BD900F0D6FAD1
:10BE300028684670204600F0AFFB70BD054800F052
:10BE400064F8F8E766702146024800F0A9FA70BD70
:10BE5000742100209036002010B50321FFF75AFF0F
:10BE600010BD000010B50446008B084320836278A3
:10BE7000618B062A17D0052A14D10A46104211D028
:10BE80000240628388432083204600F014FB012097
:10BE90006070628B0821204600F009FB21460448AF
:10BEA00000F07EFA10BD0A468243EBD010BD0000C0
:10BEB00090360020814202D342688A4201D8012094
:10BEC0007047EFF31082D207D20F72B603680B608F
:10BED000016000D162B600207047002810D0002910
:10BEE0000ED00839002203E002460068002807D07F
:10BEF0008842F9D1002A05D0006810600020704700
:10BF00000120704700214160F8E70146406842681F
:10BF10004A600B780022022B05D0012B03D0032BA3
:10BF200001D0426070474368002B01D099604260A5
:10BF300082607047810700D00020704770B50446CA
:10BF4000154600202070012262702246A170203226
:10BF500011716060A060E06020612062A082E082D8
:10BF6000208360835071E08C002803D10448FFF7E0
:10BF7000A1FEE0622946204600F01EF870BD0000D8
:10BF8000A0280020002801D0082901D201207047F4
:10BF90004118091F002201600A6042601046704784
:10BFA00003480021016003490988C18070470000EF
:10BFB0008821002044D5010030B5C28C920803D1FD
:10BFC0000E4A12881204920CC36A92009A18530700
:10BFD00000D5121F403A01231B06D363002391634F
:10BFE0001C469D005B1C54510E2BFAD3C36913628F
:10BFF00082620163C06A0249016030BD40D5010020
:10C00000A52E5AE2C1898089081A70470122027060
:10C010000022427082704260028142818281034A22
:10C0200089038918090CC181704700000000FCFFDA
:10C03000F8B50446406800270D46002844D06078D3
:10C040000126012837D0022813D0032832D1084610
:10C05000FFF730FE05002DD02046FFF756FF0446BF
:10C06000294600F021FA6670204600F024FA2146A5
:10C070001DE02046FFF749FF0546002100F014FAB5
:10C080002189E86989000919086172B6A089401CF4
:10C09000A08162B62089401C80B22081E18988425B
:10C0A00000D127816E70284600F005FA2946134812
:10C0B00000F076F9F8BD2046FFF727FF04462A4630
:10C0C000102100F0F4F9CEE7A089E189884211D26D
:10C0D000208980000019056172B6A089401CA081EA
:10C0E00062B62089401C80B22081E1898842E1D17A
:10C0F0002781F8BD0320FFF743FAF8BD90360020F2
:10C1000070B5436816460D46002B02D041780129D0
:10C110000DD08189C4890022A14226D1002E14D0DD
:10C120001B4C002B216812D000F03AF916E0FFF703
:10C13000ECFE04462A46102100F0B9F9204600F032
:10C14000BAF92046FFF768FE20E0012070BD41608B
:10C1500021684A60216888600221417020680821B6
:10C16000C5613046FFF7D6FDEFE701898900091860
:10C170000D6172B68189491C818162B60189491CB1
:10C1800089B20181C389994200D10281002070BD2A
:10C190007421002070B504468089002615460028C9
:10C1A00034D0608980000019006908606089401CF3
:10C1B00080B26081E189884200D166816068002890
:10C1C00002D06078022806D072B6A089401EA081F5
:10C1D00062B6002070BD2046FFF797FE054600219D
:10C1E00000F062F92189E86989000919086120894C
:10C1F000401C80B22081E189884200D126812846F6
:10C2000000F059F92846FFF707FEE2E7002D08D0B5
:10C210000B4862680168002A05D0204600F0C0F88B
:10C2200008E0012070BD616001684E6000688460B4
:10C230000120607008212846FFF76CFDF1E700003F
:10C240007421002010B5411C11D00A490A4C8842C3
:10C250000BD87D21C900484308490A688018401E50
:10C260001146FCF70FF8A04200D9204610BD024845
:10C27000401C10BD00093D00FEFF000054D5010028
:10C2800070B51848012102685170006800F0A6F8E6
:10C29000154C657813E0E800011948680278002A17
:10C2A00017D0012A1AD000F035F9E0786D1C8542CC
:10C2B00000D1002572B6A078401EA07062B6A078AA
:10C2C0000028E8D165700948FFF71FFE00F064F907
:10C2D00070BD098989B2FFF7C5FDE6E78968FFF7F8
:10C2E000A7FEE2E7742100203032002090360020C3
:10C2F00005480178002902D00121417070470120D2
:10C3000002490007486070477C21002000ED00E0F2
:10C3100070B50E4BDD789C1C1E4672B69A78AA4208
:10C3200007D2521C22703278541CAC4200D1002437
:10C33000347062B6DC78944204D9D200D21891608D
:10C34000506070BD0220FFF71BF970BD3032002035
:10C3500010B5124AD368002B17D013469B8A04E00D
:10C36000002C12D02246A48AE318D4688B42F7D35B
:10C37000C460D0600261C468002C00D02061591AEA
:10C380008182908A401A908210BD0024C460D060DF
:10C39000C91A02619182848210BD0000A836002073
:10C3A00030B502780023022A03D0012A01D0032AE3
:10C3B00000D101238C7800E010464268002A02D0A8
:10C3C0009578A542F8D24A604160002B04D0002A3B
:10C3D00000D09160886030BD0020FBE703494A68C7
:10C3E0004260002282604860704700009036002062
:10C3F00010B583680446002B05D1607801280CD164
:10C40000064B03E09B6818780028FBD0204600F01C
:10C4100067F821461846FFF7C3FF10BD903600208D
:10C42000F8B505461B48012701684F700068FFF703
:10C43000D5FF1949002008601848194CC168002927
:10C440001AD0818AA94211D822686E1A89182160EF
:10C4500087820746FFF7A6FC002E10D02068761EC4
:10C46000401C2060F8680028F4D108E023685A19BD
:10C47000491B2260818202E0206840192060284622
:10C4800000F0F4FE0748FFF740FD00F085F800F0EB
:10C49000CFFAF8BD7421002088210020A8360020A2
:10C4A0008421002090360020806A01627047806AF3
:10C4B00042620162704710B5016900290FD0C2685D
:10C4C000CA60C3680022002B07D08B8A848A1B199C
:10C4D0008B82C3681961C26000E08A82026110BD6C
:10C4E0008168002907D042684A604168002901D06C
:10C4F000806888607047064906E04A68824202D137
:10C5000040684860704711460029F6D17047000026
:10C510009036002010B5416800290FD0FFF7F5FCD8
:10C520000446FFF7C8FF0120607001462046FFF770
:10C53000BBFF21460348FFF733FF10BD4188491C6C
:10C54000418010BD9036002010B507480068816A10
:10C55000C06A814203D300680449884202D00120A6
:10C56000FFF70EF810BD000074210020A52E5AE23E
:10C5700010B5074C00F0EAF90648C168002900D060
:10C58000848A00F08BFEA04200D20446204610BDF3
:10C59000FFFF0000A83600200249486002214170D8
:10C5A000704700007421002070B500200446264A20
:10C5B000264902E08300D450401C0B889842F9D3EE
:10C5C0002348342201882348FCF70CF82248012133
:10C5D0000088C90780B24218204801682048FCF74B
:10C5E00001F82048082201881F480068FBF7FAFF7D
:10C5F0001E4DFF20E870EC841D4A00212846FFF7FD
:10C600009DFC1C480421017044601B480170C460FB
:10C610000461848219481B4905600220687018482B
:10C62000047044700978C170FFF7BAFC1648016ABB
:10C63000FF22120411430162C169026A5202920E82
:10C6400092061143C16170BDB43200203CD5010097
:10C650005CD50100C027002040D5010060D5010055
:10C66000A028002084D50100702000205C36002026
:10C6700085B5010090360020A836002074210020E6
:10C680003032002068D5010000ED00E010B5FEF763
:10C69000C9FF0C490028086013DB82080A49920090
:10C6A00051180A688307DC0EFF23A3401A430A606F
:10C6B000C206D20E012191404011044A8000801828
:10C6C000016010BD8021002000E400E000E100E0F6
:10C6D00010B50B480121026851700068FFF77EFE1B
:10C6E000FFF734FB07480168491C0160FFF75AFB5C
:10C6F00000F096FD0448FFF708FCFFF74DFF10BD62
:10C70000742100208421002090360020002805D0CC
:10C71000810702D10178002900D000207047000075
:10C7200030B50D4C0023626805E015898D4204D8B0
:10C7300013461268491B002AF7D189B202600181B1
:10C74000002A02D01589691A1181002B01D01860C6
:10C7500030BD606030BD00006C2100200F4B002216
:10C76000596803E0814204D00A4609680029F9D1DA
:10C7700006E0002904D00168002A04D0116003E01B
:10C780000020C043704759600168002903D00A891E
:10C790000089101808810020704700006C210020DB
:10C7A000FFB5080681B01E4617460C46000E00D1A4
:10C7B0004C1C1448FFF77EFA050021D02002000C23
:10C7C000EF62E884EE61E1B22846019AFFF7B6FB1A
:10C7D00001240D480D4906E0A2001218403AD26B20
:10C7E000002A04D0641C0A889442F5D90024A100D0
:10C7F00008184038C563EC702846FFF70DFB20464B
:10C8000005B0F0BDC0270020B43200203CD50100A7
:10C81000F8B5484D0028296802D0CA78824238D13C
:10C8200000274F70FBF763FC29688862FFF78CFED6
:10C830002868046A19E06068002815D02046FFF7D0
:10C8400064FB06460021FFF72FFE3046FFF733FE5C
:10C850000120707031463848FFF7A2FD0121618048
:10C86000A660316AE1603462E468002CE3D1286894
:10C87000C1788A00314951184039CF63C16A3048C4
:10C88000FFF718FB29682F48CF62FFF713FB2F60D3
:10C890004AE02D49098888420ED8810027480F18A0
:10C8A000403FFD6B002D07D02846FFF719FE2846B4
:10C8B000FFF701FE2C6A1DE0FF20F8BD606800282C
:10C8C00017D02046FFF721FB06460021FFF7ECFDBD
:10C8D0003046FFF7F0FD0120707031461648FFF733
:10C8E0005FFD01216180A660316AE1603462E46825
:10C8F00000E0E468002CE1D1FC631148E96AFFF72D
:10C90000D9FA29460F48EC62FFF7D4FA0A48406882
:10C910008278084801688B789A4208D901224A70C7
:10C9200001680548FFF73CFD0020FFF775FA00207D
:10C93000F8BD00007421002090360020B4320020A1
:10C94000A0280020C02700203CD5010030B51048A9
:10C95000012243680F49002B09DA0F4C052323619C
:10C9600002704A68920E1A40827050060EE0DD0690
:10C97000ED0E1446AC405B11084D9B005B191C602A
:10C9800002704A68D200D20F8270D006486030BD73
:10C990007C21002000ED00E000E000E080E100E00C
:10C9A00070B51B4D002811D01A4A1288904220D829
:10C9B0008200194810184038C46B002C19D0A1709F
:10C9C000242001552868A04205D014E02868817011
:10C9D000286820300171114840688078884215D954
:10C9E0000E482968FFF7DCFC296801204870002008
:10C9F0000AE0FF2070BD2046FFF7FAFC60780128AE
:10CA000004D10648FFF781FAFFF706FA002070BD4F
:10CA1000742100203CD50100B43200209036002063
:10CA200002480068002800D0C078704774210020B8
:10CA300070B510480022014643680F4C8978002BDE
:10CA400008DA0E4D07232B61027043789B000B43DD
:10CA500099060CE0DE06F60E0125B5405B11084E86
:10CA60009B009B191D6002704378194309076160A0
:10CA7000427070BD7C21002000ED00E000E000E08D
:10CA800000E100E010B511485121016001240A21A4
:10CA900084604160047301460D4800F01BF80B48A8
:10CAA0000E211030016084601E2141600024047357
:10CAB00001460748083000F00DF8044820300473A0
:10CAC00001460348103000F005F810BDA0250020F5
:10CAD000202000200A7B002A03D049680160002141
:10CAE00002E00968016001210171704710B5047905
:10CAF0008B680268002C08D049688C1A9C4201D9C6
:10CB0000D11807E00160002108E00968541A9C422E
:10CB100002D9D11A016002E00160012101710068AF
:10CB200010BDF7B582B002981446806A0F460028FF
:10CB300033D0029800252030009028E00298816AC6
:10CB40000C2068430E18217830794A1C2270C01CD2
:10CB5000785420781622411C21703A542078C1194B
:10CB6000308800F00BFC21784018C0B22070B288E9
:10CB7000002A09D0B16800290FD0C019FBF798FB33
:10CB800020783179401820706D1C0098EDB2007B40
:10CB9000A842D3D8002005B0F0BD0720FBE7000075
:10CBA00030B59BB0032118A80172142110A8FBF71F
:10CBB000A6FB0024012510A8109405711AA8129054
:10CBC000601C0107090F10A81031017344738473AE
:10CBD000601C0107090F10A81031C1730020014625
:10CBE00010A8017401462748FCF710FC002803D068
:10CBF00000221146FBF780FE142115A8FBF77FFBEE
:10CC00000120014618A8103141700120014618A8E2
:10CC1000103181700020014618A8C1700120014622
:10CC200018A81031017110A815940576642118A870
:10CC300017940170134815A91838FCF735FA002825
:10CC400003D000221146FBF757FE40216846FBF750
:10CC500056FB0DA16846FCF72FFC0120014608A8F1
:10CC6000103101770020014608A841776846FCF79B
:10CC7000D7FA002803D000221146FBF73DFE1BB077
:10CC800030BD0000502500204E6F7264696353650B
:10CC90006D69636F6E647563746F720010B5002008
:10CCA000FCF7E6FD002803D000221146FBF724FE26
:10CCB000FCF734FD002803D000221146FBF71CFED0
:10CCC0003CDF002803D000221146FBF715FE10BD03
:10CCD00010B508461146C046C04610BD002803D016
:10CCE0000249C860002070470E207047582100207C
:10CCF00070B5002901D08C0701D0072070BD064C0B
:10CD00000125A16062800549636010DF0028F5D12C
:10CD1000257016202EDF70BD58210020D1CC0100D7
:10CD2000002803D002490861002070470E20704798
:10CD3000582100200020704710B5002805D0FFF7CB
:10CD400081FA80B2FFF788F8402010BD10B5154C6D
:10CD5000207800280DD11448400706D113480168F7
:10CD60001148FFF70FF9002801D0852010BDFFF70B
:10CD70001BFC0F49FF2009688870207800280BD120
:10CD800000210C4800F042F80B49086000210B48D4
:10CD900000F0A2F80A4908600120207000206070AD
:10CDA00010BD00006C210020082B002064D501007C
:10CDB000742100207CD501008C2000206CD501005E
:10CDC0008820002070B50F4D6878002801D0002021
:10CDD00070BD0D4C2068203001790020FFF7E0FD88
:10CDE0002168C878FF2803D1886A203080F3098839
:10CDF0006068002800D103C4FFF748FC0120687078
:10CE0000E5E700006C2100207421002010B504002B
:10CE100008D02168002905D06068002802D0027877
:10CE2000002A01D0002010BD8900103189B2FFF71F
:10CE3000EDF8606810BD3EB5044680200D46002C1C
:10CE400013D02178012910D12846FFF7FBF982B2CF
:10CE500001A92046FFF79EF9012801D0102004E027
:10CE6000002D01D0402000E00020029A019903B07B
:10CE700030BD70B50E460500144602D02878012852
:10CE800001D0802070BD1046FFF7DCF982B2314638
:10CE90002846FFF735F9012801D0002070BD002C8D
:10CEA00001D0C12070BD812070BD10B5040011D02B
:10CEB000216800290ED06268002A0BD0A0680028E3
:10CEC00008D0D21C9208920051430C31FBF78AFB28
:10CED000A06810BD002010BD70B50E4604002ED015
:10CEE000206800282BD00420205EC11C27DB0328EB
:10CEF00025DCE168002905D01248FEF7EAFE0500AE
:10CF000016D000E000250421615EE068091D0002E2
:10CF1000014333462A462068FFF742FC002808D028
:10CF20000949800040184038C06B0849826A516343
:10CF300070BD002D03D029460248FEF7CEFF002029
:10CF400070BD0000082B0020B4320020C1B40100E5
:10CF500010B5FFF765FD002804D003498000401894
:10CF60004038C06B10BD0000B432002010B5FFF790
:10CF7000CDFB002804D0C18C002903D0C46A02E094
:10CF8000802010BD0024C078FFF742FCFF2807D0A6
:10CF9000002C03D021460348FEF79FFF002010BD60
:10CFA000812010BD082B002010B5FEF7C3FF00281C
:10CFB00005D00169C26809680846114610BD002005
:10CFC000014610BD10B5030010D0186800280DD020
:10CFD000586800280BD0002901D0012906D1084C3F
:10CFE0002468002C02D00479002C01D0002010BD50
:10CFF000002404600124047141710361C26010BD0A
:10D000008820002070B50D46FEF794FF04000AD07A
:10D010002846FFF717F9050007D0207901280DD021
:10D02000022809D103E0802070BD862070BD204613
:10D03000FFF794FB002804D0812070BD02202071EE
:10D04000658129462046FFF76BFB002070BD10B5B7
:10D05000FEF770FF002803D00179022908D101E012
:10D06000802010BD01210171FFF778FB0028F8D066
:10D07000812010BDFFB583B00F46594D069A059922
:10D0800006466B78114303200191002B03D1002940
:10D090000FD001216970059A697801249200240754
:10D0A00000920B00FBF782FA073207213454748395
:10D0B00032000221EEE74B484169491C05D0216945
:10D0C000406989B2FBF7DEF800E060692169401E23
:10D0D00089B24843216909048A0C216989B27943DC
:10D0E00029DF002812D102210FE0384628DF00286E
:10D0F0000CD10599002901D0032106E006990029E9
:10D100001FD13178042968D020E0697007B0F0BDE4
:10D1100034484169491C05D02169406989B2FBF74F
:10D12000B1F800E060692169401E89B2414320697D
:10D13000059A80B2784329DF0028E7D106990029B3
:10D1400001D00421E1E7317804292ED00521DCE764
:10D1500024484169491C05D02169406989B2FBF71F
:10D1600091F800E060692169401E89B248437188E6
:10D17000421800981018226992B27A435218009906
:10D18000531801461846069A29DF0028DBD0BDE770
:10D190002069718880B2784380188A08316929DF54
:10D1A0000028B3D10199002917D00621ADE70D4819
:10D1B0004169491C05D02169406989B2FBF762F8D1
:10D1C00000E060692169401E89B24843216989B243
:10D1D000FBF758F828DF002898D1072195E70000D1
:10D1E000342100200010001070B50D4606000AD052
:10D1F000FEF760FD0446002D03D001463046FEF7E1
:10D20000C7FD204670BD002070BD10B5002805D0B8
:10D21000FEF750FE002800D0862010BD802010BDF3
:10D22000F8B5104E7468002C16D020890E4F401EA1
:10D2300020810EE025462468746000222946386863
:10D24000FDF73CFD6879012807D001202871002CEA
:10D2500002D020890028EDD0F8BD69892846FFF763
:10D260005FFAF4E76C2100208C20002070B50446A2
:10D270000126094D06E00189A14209D8641A0681F8
:10D28000FFF7CEFF6868002801D0002CF3D170BDF5
:10D290000189091B018170BD6C2100200348406891
:10D2A000002801D000897047014870476C21002098
:10D2B000FFFF000010B50446FEF720FC2046FBF7F8
:10D2C000D3FD10BD70B50C00054604D100221146F7
:10D2D0001046FBF711FB002D04D100221146104629
:10D2E000FBF70AFB207828702088FF2109020840FC
:10D2F000000A6870206809020840000CA8702068C5
:10D30000000EE87020792871207A68712089000A5F
:10D31000A871A068000CE87170BD000010B5134939
:10D320001348FFF7E3FB124C81B2283CA068401C75
:10D33000A0600E486038FCF73DF800280BD00828A4
:10D3400009D00C49884206D00B49884203D00022FC
:10D350001146FBF7D1FA0321A068FAF793FF0029E1
:10D3600001D0012000E00020207010BDB025002079
:10D370002820002004300000013400000870000A5A
:10D380004870022070470000012181400248426835
:10D390008A43426070470000DC20002038B5154900
:10D3A000154A488890420FD04A78144C521CD2B289
:10D3B0004A70237B934208D3083175DF002803D0DD
:10D3C000A169002900D0884738BD00254D70217C17
:10D3D000002907D03B2176DF002803D0A16900296E
:10D3E00000D0884761690029EED0684605708847FB
:10D3F00038BD000014210020FFFF0000E4340020AD
:10D40000F8B51546069C1E4607460222009400F019
:10D410000AF8002806D133461022294638460094DF
:10D4200000F001F8F8BDFFB583B0074600200C9C62
:10D430008646267805463AE07868A90041180A88A9
:10D44000684682804988C1800022694601A865DF5C
:10D45000002810D1684601780598814226D170468F
:10D46000002801D0002200E002222078891841180B
:10D470001F2902D90C2007B0F0BD7146002908D140
:10D48000401CC0B2411C069B049A21701A54012012
:10D490008646217806980A18694601A865DF0028A3
:10D4A000E9D1694620780978401820706D1C3888C9
:10D4B000A842C1DC7046002804D020780699801B61
:10D4C000401E88550020D6E70179002902D1007B53
:10D4D000002800D001207047F58B0100D0250020E6
:10D4E0001DD30100E4250020080000009021002049
:10D4F0000800000030000000F825002041950100E0
:10D500000100000001000000000000001100000008
:10D5100012000000130000001400000011000300BE
:10D52000319701001200030031970100130003003E
:10D53000319701001400030031970100040000003E
:10D54000C800020105000100010000000200010006
:10D550004A000400E803000000000000DC000000B6
:10D5600068020000280700001000000055B5010007
:10D57000020000000100000020030000080000007D
:10D580009027002000000000C7AF010085A901001E
:10D59000A1A8010041AA0100C3AF010055A90100E3
:10D5A0009DA8010039AA0100BFAF0100A5A8010094
:10D5B00099A8010031AA010003000000DCD5010098
:10D5C00000200020900100006083010004D60100CB
:10D5D00090210020301D0000D68501004201033358
:10D5E000FFFF0C2B0D1801000F1801000A1801A3F2
:10D5F00024F46459AD0142010377E803032FFFFFD0
:04D6000002640100BF
:04000005000180C1B5
:00000001FF
