:020000040001F9
:10C00000403D0020F5C001000FC1010011C1010039
:10C010000000000000000000000000000000000020
:10C0200000000000000000000000000013C101003B
:10C03000000000000000000015C1010017C1010050
:10C0400019C1010019C101006DC4010019C101002D
:10C0500019C101000000000029C2010019C101003E
:10C0600019C1010019C1010019C1010019C1010064
:10C0700019C1010019C1010019C1010019C1010054
:10C0800019C1010081C3010019C1010019C10100DA
:10C09000A1C3010019C10100F5C3010019C10100CC
:10C0A00019C1010019C101000000000000000000DA
:10C0B0000000000000000000000000000000000080
:10C0C0000348854600F080F8004800475DF601000F
:10C0D000403D0020401E00BF00BF00BF00BF00BFAA
:10C0E00000BF00BF00BF00BF00BF00BF00BFF1D155
:10C0F000704700000321094802680A4302600848AB
:10C1000002680A4302600748804707480047FEE785
:10C11000FEE7FEE7FEE7FEE7FEE70000240500403D
:10C120005405004019C40100C1C0010030B50B46E0
:10C13000014600202022012409E00D46D5409D4201
:10C1400005D31D469540491B254695404019154687
:10C15000521E002DF1DC30BD03460B439B0703D07C
:10C1600009E008C9121F08C0042AFAD203E00B78BC
:10C170000370401C491C521EF9D27047D2B201E034
:10C180000270401C491EFBD270470022F6E710B532
:10C1900013460A4604461946FFF7F0FF204610BD35
:10C1A000421C0178401C0029FBD1801A704730B531
:10C1B00004460020034600E05B1C934203D2E05C8F
:10C1C000CD5C401BF8D030BD064C0125064E05E085
:10C1D000E36807CC2B430C3C98471034B442F7D3A8
:10C1E000FFF772FF80100200A010020030B58C181B
:10C1F0000278401C13071B0F01D10378401C120961
:10C2000006D10278401C03E005780D70401C491CE3
:10C210005B1EF9D101E00B70491C521EFBD1A142FB
:10C22000E6D3002030BD0000FEB50024FF25013517
:10C23000012726460194284603F098FC00280AD0DE
:10C24000374901204968B040014204D035480021F7
:10C2500028183C4301602D1D7F00761CADB2042ED2
:10C26000E9D3FF207D3003F081FC002807D02E4861
:10C2700000210160400704432C48006901902C4FC5
:10C28000200713D00126002526420BD02948AA00FA
:10C29000111808690969C004C00E8903890FD219F1
:10C2A0005268904776006D1C042DEDD3002C34DAD3
:10C2B00000241F4F012638194030007B8506AD0E43
:10C2C00080090090AE40284603F0BAFD002821D036
:10C2D000284601F05BFE8000C0194768002F19D086
:10C2E0001549A8004018006801998003800F0E428C
:10C2F00002D0022802D00DE003280BD100990329B7
:10C3000005D102280AD00221284603F01FFC284646
:10C310000099B847641C062CCBD3FEBD0321F3E77C
:10C3200000630040006000407C6100400005005058
:10C33000EC33002000650040000700508307FF2217
:10C34000DB0E9A408907090E994000280BDA000796
:10C35000000F0838830808489B001818C3699343E6
:10C360000B43C3617047830804489B001B1818687F
:10C37000904308431860704700ED00E000E400E0DF
:10C3800010B506490020086048608860C86003490D
:10C3900040390860486004F0CFFC10BD40110140F6
:10C3A000FEB50020C043124D0290686901906846B6
:10C3B0002E6902F001FD074603F08EF80446002FB7
:10C3C00008D002AA0199009802F016FD029803F025
:10C3D000CDF806E0029803F0C9F8002801D1002C3E
:10C3E00002D0304601F0F4FE00206871FEBD00006E
:10C3F0003829002010B507484068002807D080473A
:10C40000002803D00022114600F06CFA10BD02F0A3
:10C4100095FF10BD6029002010B502F0DDFF002857
:10C4200005D00E490C484860C8130D4988610D4875
:10C43000018CC9B201290ED1818C09070BD1018D64
:10C440000906090F042906D1808D0006000F02D1CC
:10C4500005490120886010BDDFFF07C000050040CE
:10C46000006C0040C00F00F0000600407CB51B4C83
:10C47000A0681B4E0025002818D0A56019488069C7
:10C48000C1B2194800F065FA002805D001216A46BA
:10C4900011700190684607E013488168C068401A2F
:10C4A000012803D16846057071688847E069002853
:10C4B00003D0E561032003F057FC606A00280BD02D
:10C4C0006562084980390868086002216A4611706F
:10C4D00001907168684688477CBD000000210040DB
:10C4E0000C29002000250040403400200FB410B576
:10C4F00003A9044B044A029800F024F810BC08BCBD
:10C5000004B0184751EE01005C29002030B4744695
:10C51000641E2578641CAB4200D21D46635D5B003F
:10C52000E31830BC184702E008C8121F08C1002AEF
:10C53000FAD170477047002001E001C1121F002AA4
:10C54000FBD17047FFB581B00546002706E02528DE
:10C550000AD0049A039990476D1C7F1C2878002804
:10C56000F5D1384605B0F0BD002269786D1C104643
:10C570002E2913D1697804226D1C2A2909D1029928
:10C580006D1C01C9029109E00A235843303808188C
:10C590006D1C29780B46303B092BF5D92B78002BE5
:10C5A000DFD0632B07D0732B10D0049A1846039961
:10C5B00090477F1C2DE002996C460B782370091D73
:10C5C0000291002161706E46012104E0029940C988
:10C5D00002910021C94352070AD5002400E0641CDF
:10C5E00084420DDA8C42FADB325D002AF7D107E093
:10C5F000002400E0641C8C42FCDB305D0028F9D193
:10C600003F1904E03078049A761C03999047641E21
:10C61000F8D26D1CA2E7000038B50D4C60780228F6
:10C6200002D00C490120886069460B4800F06EF981
:10C63000002802D000F016F838BD0848802181603B
:10C640006A46074B1278DA6102226270416038BD97
:10C650000C2900200020004050340020002300401E
:10C66000002500401CB506490120C86005494870F6
:10C6700003206A4610704968684688471CBD000060
:10C68000002000400C290020044900204870044983
:10C690000122CA604A600349086070470C290020E3
:10C6A0000020004000250040F7B582B00026054676
:10C6B000167000781446002805D02846039903F028
:10C6C000C3F8060008D1A87800281ED02078039F60
:10C6D000001D1F2802D90C2005B0F0BD684679DF87
:10C6E0000028F9D121780322481C20707A5421783F
:10C6F0001922481C20707A542078C1196846008895
:10C7000004F099FB217840182070E8780223002873
:10C7100010D02078039A411C21701354207803997B
:10C72000471C012227700A542078EA78471C039995
:10C7300027700A546868002815D0002141562078D7
:10C740008C460246C01C03991F28C4D8501C207078
:10C750008B5422780A23501C20708B542078624618
:10C76000431C23700A542889002809D028460094C5
:10C77000062202210830039B04F0DAFB0600ABD14D
:10C78000288A002809D02846009407220321103067
:10C79000039B04F0CDFB06009ED1288B002809D016
:10C7A00028460094152214211830039B04F0C0FB86
:10C7B000060091D1286A002805D02246039901F08D
:10C7C00059FD060088D1686A002805D022460399E1
:10C7D00003F008F8060084D12C20405D002806D024
:10C7E00022462846039904F05AF80600C7D130467D
:10C7F00072E710B501220221002001F0F5F90028AE
:10C8000001D0072812D107220221012001F0ECF902
:10C81000002801D0072809D100210A22084601F08A
:10C82000E3F9002801D0072800D1002010BD000046
:10C83000044842680121C9050B46934383600A40BE
:10C84000C26070470005005070B50024064D06E038
:10C850006968E000085C012103F062F8641C287834
:10C860008442F5D3002070BD20290020F8B515467C
:10C870000C460646052A01D20720F8BD03F012F93E
:10C88000002803D103F0E6F80028F6D11149002072
:10C890004E600C7008618D6048610F4D0DE0E00046
:10C8A00029688019009181786A46517000780B4A96
:10C8B000694603F07BF80028DFD12046641EE4B20D
:10C8C0000028ECD10348064A00210C3000F064F83F
:10C8D000F8BD0000202900207C100200D9F20100E0
:10C8E000BDE30100BFF34F8F04490348C860BFF3A5
:10C8F0004F8F00BFFDE700000400FA0500ED00E0E7
:10C90000014B1B6818470000B43200208268C368DE
:10C9100093420AD0826883881A4003689A5C0A703E
:10C920008168491C816000207047052070470029FC
:10C9300006D0002A02D0531E134203D009207047AC
:10C940000E2070470160838000218160C16008462D
:10C9500070478268C3689B1A8288934208D8C3686C
:10C9600013400268D154C168491CC160002070475F
:10C970000420704738B50C46A268064B12019D583A
:10C980000978628800920246204608302369A84749
:10C9900038BD00002C35002070B5114CA568002D65
:10C9A00006D0002A06D0002804D00023247809E00D
:10C9B000082070BD072070BD24265E43AE5D002EAA
:10C9C00004D05B1CA342F7DB042070BD24240126A5
:10C9D0005C432E5564196170A2610360002070BD34
:10C9E00038290020FFB59807002481B01E4615465F
:10C9F0000F4600280BD1002E09D003F0E3FE224998
:10CA00000A9888610F70324600208E6008E0072087
:10CA100005B0F0BD24234343D4549B181C75401C1F
:10CA2000B842F7DB24204743BB19032048700F4668
:10CA30001846CB6019461830002218232E465E4354
:10CA4000D3005B181C705C709D7058603018521CCD
:10CA5000032AF5DB0020C0433861BC70FC70012460
:10CA60000A482405046003211420FFF767FC0848E6
:10CA70000460084C0198A06003211120FFF75EFCC0
:10CA8000606878610020C3E73829002080E200E078
:10CA900000E100E000150140FEB504461D481746C0
:10CAA00082680D46002A0CD001788C4201D2052DF7
:10CAB00001D20720FEBD214624235943535C012B9C
:10CAC00001D00820FEBD8818407801281DD000261E
:10CAD00004F0F2F9C0000F490190C9684018694696
:10CAE00004F014FA002812D0012101700A494460B0
:10CAF00049680830E2C007490198C96841180098A0
:10CB0000487004F0A7F80020FEBD2E46E0E70420A0
:10CB1000FEBD00003829002000150140F8B5144D75
:10CB20000446A868002809D029788C4201D3072040
:10CB3000F8BD24216143405C012801D00820F8BDE4
:10CB400004F0BAF9C600E8686946301804F0DEF966
:10CB500000280AD0022101704460E868311800986A
:10CB6000487004F077F80020F8BD0420F8BD0000FC
:10CB700038290020FFB5584F83B000260D460446E3
:10CB80007E707A6000292AD0A888296882B253482A
:10CB9000FFF7CDFE002823D1A889A96882B24F48AB
:10CBA0001030FFF7C4FE00281AD160784C490322E8
:10CBB00080004018026022783046920051180E60C2
:10CBC000484D6178E96021786961A1686962454EE4
:10CBD00061794036002905D00E21F16203E007207B
:10CBE00007B0F0BDF0622379022B17D03E493F4ACF
:10CBF000012B45D004232B608860C861F06A40088F
:10CC00004000F062581FA860286101209060106009
:10CC100078700C98008800283FD043E002F042FF73
:10CC2000002803D102F016FF0028D9D13048694608
:10CC300000680090A07802F03DFF0028D0D1401E8F
:10CC40002861A078A860F06A01210843F0622848B2
:10CC5000284A40680190E07801A902F0A7FE002868
:10CC6000BED1E078012102F05BFEE07802F0E8FE40
:10CC7000002801D0002000E0012003F075F8C8E78B
:10CC800004232B608860C861F16A01200143F162CE
:10CC9000E1782961A178A960B8E70C993878088013
:10CCA000401C387000211448C9438160A1218900CB
:10CCB0004160124904200860114B06991A68FF244C
:10CCC00024048907090EA24309040A431A600D4986
:10CCD0000860002084E700000C2900204034002078
:10CCE00000070050002500400021004000200040C7
:10CCF0007410020025F301000023004080E200E0F0
:10CD000000E400E000E100E010B501460448FFF750
:10CD100020FE0446022003F027F8204610BD000044
:10CD200050340020F0B50546007D002493B00E4637
:10CD300000280DD00120014668461031039401738C
:10CD4000717B4173817BF92001406846891C8173A6
:10CD50001C2104A8FFF719FA6946087C0221084340
:10CD6000694608742A7DEF21002A02D01022104360
:10CD700000E008406A461074059407940894287DE2
:10CD8000002800D003A8099001270A941046977143
:10CD9000304A82800094B27B0270F27B42708078CD
:10CDA000F9221040F722801C1040EF210840410872
:10CDB000490068468170317B017214210BA8FFF78E
:10CDC000E4F901A80B9068460C908786C486078713
:10CDD00002A80F90A888AB1D0BAA04A9A2DF002807
:10CDE00035D1B068002830D0684687711A498180F3
:10CDF0000094317C017000200146684641708078C3
:10CE0000F9210840F721801C0840EF210840410823
:10CE100049006846817011A8B16800F091FD06468E
:10CE200014210BA8FFF7B1F901A80B9068460C90EC
:10CE30008686C486068711A80F902A46E8880E3297
:10CE40000BA9A3DF002802D100E0EC81002013B081
:10CE5000F0BD0000192A00000829000010B50C4997
:10CE60000C4803F001FDC1B20948483800F03EFA11
:10CE700000280BD0082809D00749884206D0074966
:10CE8000884203D000221146FFF72CFD10BD0000A0
:10CE90000C2E00201828002004300000013400006F
:10CEA00070B50C4692B000216A46117007251171C9
:10CEB000002809D0C17849070CD502A9FFF7F4FB77
:10CEC000002808D102AE00E00026002C0ED0E07849
:10CED000002802D0284612B070BD01AA0AA9204637
:10CEE000FFF7E2FB0028F6D10AAA00E0002268461C
:10CEF00003790178304672DFEDE70000F8B50D46A2
:10CF000006991746040013D0002F11D04A48002676
:10CF10004671C3600161202239464848FFF71CF979
:10CF20004648C168002905D00169002902D002E005
:10CF30000E20F8BD06728169002902D0C16900295E
:10CF400000D1067500F0E0F83C4930310846103851
:10CF500001602031816030215038FFF716F93748E1
:10CF6000217830380170A1788170E178C1706178E2
:10CF700041706269216942610161E268A168C26031
:10CF800081600146E369A269CB618A61616A002917
:10CF900017D00146A0310246AC3241628A60636A12
:10CFA0001B880B80616A436A898899800021436AE3
:10CFB00004E0666AB668765C5654491C9E888E42C8
:10CFC000F7D8A16A00291CD01C4AA83211460C3996
:10CFD0008A608162A36A9B888B80A16A836A0988C0
:10CFE00019800021836A04E0A66AB668765C56540C
:10CFF000491C9E888E42F7D82C210A5D0F491039B2
:10D000000A73216A002909D00B4914310162226A8E
:10D0100052884A80216A026A098811806168002961
:10D0200004D00549C91D4160616841600348294633
:10D030003038FFF735FFF8BDD42800200833002032
:10D0400010B50288224C102A15D00021112A18D0C0
:10D05000192A0FD1807900280CD1607901281FD0BE
:10D06000022830D0032805D12171E2680846002A41
:10D0700000D0904710BD017D0129FBD1808820811F
:10D0800010BD617013490979A17180882189884296
:10D09000F6D1012012E021690029F1D0884710BDA6
:10D0A000A079002809D00A48193002F0A1FE002812
:10D0B00003D0A079401EA071EBE7022000F04CF8ED
:10D0C0000028E8D110BD022020710320F6E70000FF
:10D0D000D42800200833002010B5022801D00328EE
:10D0E0000ED1084C207800280AD0002020706079EA
:10D0F00000F032F8002803D02169002900D08847C9
:10D1000010BD0000D428002010B507210148FFF70A
:10D110003CF810BDEC28002010B50D48007801281F
:10D1200014D10C4C6078002810D16079002802D00E
:10D1300074DF00280BD101206070607900F00CF8DA
:10D14000002803D02169002900D08847002010BDA5
:10D1500008330020D4280020F0B5624C87B06071FD
:10D16000002606A8069602F0A3FE0127082806D08E
:10D17000002878D10698002802D02770AFE00696E4
:10D18000FFF7C2FF584D6878002808D06079012861
:10D1900016D1E168002906D0E7700720884760793A
:10D1A000012802D00CE0E67002E06878002805D083
:10D1B0004C48193002F01CFE002801D10220607199
:10D1C000287A002804D16079022801D103206071F7
:10D1D000287D002804D16079032801D16671267169
:10D1E000E16800290AD06079022801D0032805D11E
:10D1F0002878002802D06078002814D0A670182162
:10D200006846FEF7C2FF68460670019606720396EE
:10D21000607901280BD0344F0426203702280FD024
:10D22000032850D12EE0A77006208847E7E72D4855
:10D23000183001906846077046820682277145E0E3
:10D24000288A69464882A88908822748203003F046
:10D25000D3FE002805D02878002802D06078002866
:10D2600002D002202EE03BE00220694608721E48F0
:10D2700003973038C6700021FFF712FE00282FD127
:10D28000267120E0288B69460882A88B48821648C0
:10D29000203003F0B1FE002805D02878002802D005
:10D2A0006078002801D003200CE002206946087253
:10D2B0000D4803973038C6700021FFF7F1FD0028B4
:10D2C0000ED1052020716079002803D0684673DFF5
:10D2D000002805D1E168002901D020798847002085
:10D2E00007B0F0BDD42800200833002073B586B005
:10D2F00004466946227C097F00208A4225D0002509
:10D300000126684600950680458007A80190217493
:10D31000E188608A6A46A4DF002816D1608A0D4938
:10D32000884214D0207D002811D0029503950495E1
:10D330000595E18868460181867241888181049063
:10D3400001980590608A02A9A6DF08B070BD082088
:10D35000FBE70000FFFF000038B5044608682060C6
:10D360000020C043608208792075FF200D4620749C
:10D3700001216846817006490180221D694601200D
:10D38000A0DF002803D129462046FFF7CBFC38BD9B
:10D390000F18000038B50A88102A1AD0112A1AD09E
:10D3A000502A1BD1027D002A18D0CA884389891DC2
:10D3B0009A4213D10A8B022A10D10268002A0DD09A
:10D3C000CB7E8C7E19022143C907C90F07D00021EB
:10D3D00006E0898801E00021C943418238BD01216E
:10D3E0006B4619706946904738BD000070B5054618
:10D3F00001461C220F48FEF7AFFE0F4C0026267098
:10D400002968002907D00822A018FEF7A5FE2046AB
:10D4100008307ADF02E0084808307BDF002808D1B6
:10D42000401E608004486670044A0021001DFFF71A
:10D43000B3FA70BDD0330020F4280020550E02004E
:10D44000F8B5224C028800271F4DE689102A16D015
:10D4500029464968112A21D0122A2DD0502A1CD1E0
:10D46000C288801DB24218D1028B022A15D1C27E19
:10D47000837E10021843C007C00F0CD112E08188D0
:10D48000698001461048082216311030FEF764FE0C
:10D490006F70002E01D100F035FFF8BD0020C043B1
:10D4A00068806F700846FFF739FB0028F5D0A16946
:10D4B0000029F2D08847F8BD811D034808221030AA
:10D4C000FEF74AFEE7E70000F4280020D0330020F2
:10D4D0007FB504460121684681714A4981804A4AE4
:10D4E00001A90120A0DF00287ED1228825463C35F5
:10D4F000002A09D044482B46801C009043486168AC
:10D5000000F04CFD00287BD12289002A0AD03E4839
:10D510002B460A3000903D48E168401F00F03EFD78
:10D5200000286DD1228A002A0AD037482B461230B3
:10D53000009036486169001F00F030FD00285FD17F
:10D54000228B002A0AD030482B461A3000902F48F0
:10D55000E169801E00F022FD002851D1228C002AB2
:10D560000AD029482B46223000902848616AC01E04
:10D5700000F014FD002843D1228D002A0AD0224851
:10D580002B462A3000902148E16A401E00F006FD3B
:10D59000002835D1216B00290ED002A803F02EFB04
:10D5A00019482B46323000901848082202A9801FE3
:10D5B00000F0F4FC002823D1606B00280BD0124946
:10D5C0002B463A310091027901681048401C00F066
:10D5D000E5FC002814D1A16B002910D002A802F0AC
:10D5E00047FC0948423000E00AE0009007482B461B
:10D5F000072202A9273000F0D1FC002800D100202A
:10D6000004B070BD0A18000058280020292A000024
:10D6100010B5044601F022F821460A4800F0F4F85B
:10D62000084821461838FFF7B5FE2046FFF708FFE7
:10D63000204600F00DFA204602F0B4FA2046FFF72B
:10D64000FFFC10BDDC2D0020FEB500250F46044672
:10D650000221684601958180C5800290E189608D34
:10D6600001AAA5DF002814D168460088E18CC6070E
:10D67000F60F608D01AAA5DF00280AD16846008850
:10D680008007C00F304202D00120387000E03D70AA
:10D690000020FEBD30B50020074A084C0146FF239C
:10D6A0002C25454351552354401C1428F8DB0448CD
:10D6B0000180002030BD0000282E0020983100207D
:10D6C000B82800200148008870470000B8280020D2
:10D6D00070B5114D01462888142809D00F4A00243E
:10D6E0002C206043105C002804D0641C142CF7DB51
:10D6F000042070BD20462C2601237043135480184B
:10D700002A22801CFEF728FD054928880C54401C5D
:10D710002880002070BD0000B8280020282E00209E
:10D72000983100200B4610B509490988884201D379
:10D73000072010BD07492A22085C2C2148430649CE
:10D7400041181846891CFEF707FD002010BD000097
:10D75000B828002098310020282E0020084610B557
:10D760000349CA884280521CCA80FFF7B1FF10BD2E
:10D77000A4280020F0B58DB00D460446FFF78AFFBF
:10D7800000283AD1FFF79EFF1D4E002700280BD03E
:10D79000401EC0B201A9FFF7C5FF00282DD1684681
:10D7A000C088401CF08000E0F7802868206068682E
:10D7B00060602889A085A97A2E2001550020C043E9
:10D7C00060850020307037710121684681700D49F5
:10D7D00001802246083269460120A0DF00280CD1D2
:10D7E000204601F011FD002807D1204601F096FCEB
:10D7F000002802D1204602F047FF0DB0F0BD000026
:10D80000A42800200818000038B5324A0D880023EB
:10D810001478502D1ED008DC012D3CD0102D14D0D2
:10D82000112D01D1591E418538BD512D40D0532DA8
:10D83000FAD1C988438C9942F6D1032C07D04168AC
:10D840000029F1D00820884738BD8988418500200B
:10D85000107038BDCA88C489891DA24215D10A8BAF
:10D86000022AF6D1CA7E8C7E11022143C907C90F54
:10D8700002D069460B7002E001216A46117002680D
:10D88000002AE6D06946904738BD438C9A42FBD1C6
:10D8900002F0FCF938BD1371022C04D0012CF9D12F
:10D8A00002F010FE38BD0B490C3102F075FE38BD98
:10D8B0000A1D891D0B78022BF9D19279042AF6D022
:10D8C000062AF4D0052AF2D04A88438C9A42EED137
:10D8D000891CDDE7A4280020FF2313705370002368
:10D8E0009370536000280BD00B781370012801D976
:10D8F0004B785370022803D9801E9070891C5160A8
:10D900007047034610B5002000290FD01878087022
:10D91000587848700220002205E05C68A45C0C5432
:10D92000401CC0B2521C9C789442F6DC10BD70B50D
:10D9300004460D460846FEF733FC2080656070BD46
:10D940000A78027049784170022070471CB50023A4
:10D9500048221549082003F08FF8002803D0002240
:10D960001146FEF7BFFF0020009069460190087045
:10D97000684660DF002803D000221146FEF7B2FFA0
:10D980000A4803F06FF8002803D000221146FEF782
:10D99000A9FF074803F088F8002803D000221146A9
:10D9A000FEF7A0FF1CBD00007C2C002011D601005A
:10D9B000ED0B02001CB5044681786A460C4802F063
:10D9C0008BFA002812D160781C21484309491C2396
:10D9D00040181A46694602F037FB064806494430AB
:10D9E000807A80000A582146684690471CBD000096
:10D9F000CC28002070320020541002007CB5134E59
:10DA000000250C463060002918D06946002000F03F
:10DA1000B3F8002819D101A9012000F0ADF80028C1
:10DA200013D1684601790020002901D0022004E0CA
:10DA300069460978002900D00B2020707068002802
:10DA400002D1FEF7D6FE054628467CBD4C280020B4
:10DA500010B51C4C0188606810290DD011290AD11D
:10DA6000401E606007D1FEF7C4FE002803D0216885
:10DA7000002900D0884710BD00281ED100210122B6
:10DA8000084600F0B1F8002801D0072811D107227C
:10DA90000221012000F0A8F8002801D0072808D1B1
:10DAA00004220221002000F09FF8002805D007285A
:10DAB00003D02168002900D088476068401C60605E
:10DAC00010BD00004C28002010B5032000F006FA1D
:10DAD000002801D0062800D1002010BDF8B5074667
:10DAE0000024224802E0641C042C19D2A2008258AF
:10DAF000BA42F8D1042C13D21D4E1E4DF0690029F4
:10DB000028D001290DD002290AD16000201840191F
:10DB10004578002D04D0F168002901D028468847B7
:10DB2000F8BD610062182946AD5C51180091497832
:10DB3000002909D071680A2251430D4A521CFEF790
:10DB4000ABFF002800D1777000988178084810302A
:10DB50000155DEE7FEF7E2FF05486100611810306D
:10DB60004919005D8D78A842D3D0F8BD1410020089
:10DB70002C2800201C2E002004280CD2074A1269F1
:10DB8000074B80001B5C01209840904300D001208F
:10DB90000870002070470020FAE7000000050050E0
:10DBA0001410020010B504280BD0072815D00A283D
:10DBB00004D00E2801D102F02FFD10BD02F032FF7B
:10DBC00010BD08481321808876DF08E00028F7D0D0
:10DBD00000221146FEF786FE10BDFFF79DFA0828C9
:10DBE000F4D110BD0028002070B50023042811D204
:10DBF000440004190D4D012A02D101290DD0002243
:10DC000046008019094E801900290CD0012906D040
:10DC1000022906D00723184670BD0D30C2B22A551E
:10DC2000F9E74270F7E78270F5E700001C2E00204C
:10DC300010B5054A0146127A0020D20702D00846E4
:10DC400000F054F810BD00002C28002070B50E46DE
:10DC5000204905464E608D600020CA60A9071ED588
:10DC60000024012211462046FFF7BEFF641C042C4D
:10DC700002D20028F5D012E0002810D17208042149
:10DC80001548FEF7F3FD002809D1FEF7DDFD002859
:10DC900005D11048114A00211C30FEF77DFEE9072E
:10DCA00006D00F220E4952058A600023CB608A619C
:10DCB00000280DD107480B4A00211430FEF76CFEF6
:10DCC000002805D10348084A01211830FEF764FEF8
:10DCD00070BD00002C2800202410020019DF010074
:10DCE00000050050C1F4010031C80100FEB57849BB
:10DCF00006464F684B690093BB00FB1800200122C9
:10DD0000019352050546734C3300FEF7FFFB180DD7
:10DD100013133749596C828E858E97A1A5A5A5A5A9
:10DD2000A5C3C8CDD4DADA120B225205A260E56091
:10DD30000D70FEBD05208005A060E56060680F23C2
:10DD40005B055840800209D5A260E560022E02D131
:10DD5000E120C0000AE07D20400107E0E260A5600C
:10DD6000022E01D1C82001E0FF2091300E70642105
:10DD7000FEF7DCF978430022014646E005208005E5
:10DD8000A060E56060680F235B055840800204D501
:10DD9000A260E56019204001E8E7E260A560E1E7E4
:10DDA00005208005A060E56060680F235B05584092
:10DDB000800202D5A260E560CDE7E260A560D3E70E
:10DDC00005208005A060E56060680F235B05584072
:10DDD000800202D5A260E56001E0E260A5600E70FD
:10DDE0007900002211E005208005A060E5606068F0
:10DDF0000F235B055840800202D5A260E56001E078
:10DE0000E260A5600E70002239460098FEF744FEDD
:10DE1000FEBD05239B0544E06068012189050A4693
:10DE20008243A2600840E06010E061680120800544
:10DE300002468A43A2600140E160E4E76168012094
:10DE4000800502468A43A2600140E1600199C8E76B
:10DE50000F214905E1601BE00F468869FEF75EFE71
:10DE600011218A1B1C4E01D0002802D0A660E5605B
:10DE7000FEBD012A0BD91046C82148436421FEF794
:10DE800055F9796800224143B869FEF705FEE6605E
:10DE9000A560FEBD0F225205A260E56015E00723D4
:10DEA0009B05A360E5600EE00D225205A260E560CF
:10DEB0000122920507E00322D205A260E5609210DC
:10DEC00001E00F225205E260A5600E70FEBD000069
:10DED0002C2800200005005000008000F0B5002133
:10DEE0000B4C0C4D03273F048A00A2589200561990
:10DEF000326801238B40034000D00323BA431B0444
:10DF000013433360491C0429EED30020F0BD000008
:10DF1000141002000007005010B500780221FFF72E
:10DF2000DDFD10BD054900228300D2435B185A6015
:10DF3000042802D30818403002727047EC330020E6
:10DF4000F0B50025ED43002A02D00023042601E0AD
:10DF500004230A260C4C05E09F003F197F687F1CB4
:10DF600004D05B1CB342F7D32846F0BD26185DB23F
:10DF7000203635739E0036197160002AF4D1E118FD
:10DF800040310872F0E70000EC3300200249091824
:10DF90002C20085670470000EC330020FFB58FB0EE
:10DFA0001E4615460F0004D1002211461046FEF70A
:10DFB00099FC002D04D1002211461046FEF792FC78
:10DFC0001C216846FEF7E1F868460178022001430B
:10DFD000684601700024019403940494059401217F
:10DFE00008A80694817068460F99018407943178D7
:10DFF000017771784177807FF9210840F721801CF3
:10E000000840EF2108404108490068468177142103
:10E0100009A8FEF7BAF808A8099007A80A90684668
:10E020008585C485058604480D9709AA6946008838
:10E03000189BA2DF13B0F0BD58280020F8B53B496B
:10E0400014230A780F205A43541821792569384E31
:10E05000241D02291AD004292ED0052964D101F0EB
:10E06000B5FF01462846FEF761F8064601F0AEFF0F
:10E070000146A08871434019401A870801F0A6FFA5
:10E08000711C4843A1886288891836E0B0882269EB
:10E09000800261881318091AA28828181018012212
:10E0A0009202914203D28A08194629DF37E0FF2203
:10E0B0000132194629DF32E0A2681C481101CC3038
:10E0C000091808894B894968A94203D161885843D6
:10E0D00088421BD0022A19D001F078FF0146284659
:10E0E000FEF724F8064601F071FF7043281A8708EE
:10E0F00001F06CFF711C484361883A464919401A87
:10E1000083083146204602F0DBFC08E001F05EFFA8
:10E1100001462846FEF70AF8B188401828DF002893
:10E1200002D1024901228A70F8BD0000603400204B
:10E130001429002010B5084900204A78002A09D087
:10E140008978002906D1FFF779FF002802D011282D
:10E1500000D1002010BD0000603400201422504384
:10E16000054A002180180171C18001220161C2604D
:10E17000416101817047000060340020F8B5134C04
:10E18000069E65780A2D1FD027787D19EDB20A2DDD
:10E1900001D30A3DEDB214277D432D1928710020CB
:10E1A00068716A6103C92961E860EB802E81A178FA
:10E1B0000020002904D1FFF741FF112800D10020E1
:10E1C0006178491C6170F8BD0420F8BD60340020FE
:10E1D000F8B5224801694A1C3DD024225143826887
:10E1E00089184E681E494C6847690079E11B0D0289
:10E1F0002D0AED1C002814D101201A4A0004506099
:10E20000184A403A506018494000086017490860B1
:10E210001749012008602F20FDF75CFF0F490120FE
:10E220000871B54200D23546E81900020C49000ACF
:10E23000403108600A494968001B091B0902090AA4
:10E240000002000AC91C814204D901200649400489
:10E2500080390860F8BD02F0B5FAF8BD3829002011
:10E26000001501404013014080E200E000E100E0C1
:10E2700000100140F8B50D4611780646881D144679
:10E280001F2801D90C20F8BD33880720062BFAD3AC
:10E290001927FF01BB4202D9164A9342F3D1728873
:10E2A000062AF0D3BA4202D9124FBA42EBD1114F2B
:10E2B000BB4203D0BA4201D09342E4D8481C0522A5
:10E2C00020706A5420781222411C21702A54207830
:10E2D0004119308802F0AFFD21784018C0B220709B
:10E2E0004119708802F0A7FD2178401820700020A5
:10E2F000F8BD0000FFFF000010B500221146FEF738
:10E30000F1FA10BDF8B5164801F058F8144D002682
:10E31000103D144C002807D0616900291BD0012052
:10E320006A461070684615E02878002805D06169B3
:10E33000002910D0684606700CE0687800280CD0E0
:10E34000A16800226868FEF7A7FB002803D0A16936
:10E35000002900D088472E70F8BD6168F1E7000001
:10E3600004290020D033002070B5094B04469E7A62
:10E37000082000250E4207D00648844202D01889A2
:10E38000A04202D10020156070BD052070BD0000C4
:10E39000A8320020FFFF00000C214843064910B5B9
:10E3A000012240188272911E0181FF21C172072152
:10E3B000FDF7EBFE10BD0000A8320020F8B50026E6
:10E3C0000124154D23E06968F0004718387821468C
:10E3D0006A698140114218D08A436A6101F030FBBA
:10E3E0003A7821462B69914019400346934099425F
:10E3F0000BD17978012901D0012100E000217B684F
:10E400004140002B01D010469847761CF6B2287880
:10E410008642D8D3F8BD000020290020FEB50E4664
:10E42000044681786A46234801F056FD002827D12A
:10E4300060780C21204F4843C019807A400620D4D0
:10E44000022E1ED0012E1ED01C4DA0781C21484348
:10E4500019490023FC3941181C226846A8470028A6
:10E4600013D0022E0CD020780C21484312490C31D5
:10E470004018807A124980000A5821466846904721
:10E48000FEBD104DE1E7104DDFE7022EF8D06078B9
:10E490000C214843C019817ABF22114081726078F3
:10E4A0001C2148430449383941181C231A46684640
:10E4B000A847D8E7CC280020A8320020BD0A0200D7
:10E4C000441002008D030200D501020070B505461C
:10E4D000114A124800241C2363431B189B7EFF2B08
:10E4E00004D0641C072CF6D3104670BD0A78022AAB
:10E4F00009D01C2262431018FD22827607221030B8
:10E50000FDF72AFE04E01C2161430818FE218176F4
:10E510002C700022E8E7000043800000AC310020AE
:10E52000F7B505250F4F06460024002E0AD01C2003
:10E530006043C019072231461030FDF738FE00282D
:10E5400007D00AE01C206043C019018B0298814269
:10E5500003D101980025046002E0641C072CE4D379
:10E560002846FEBDAC3100207CB5054681B26A4626
:10E57000074801F0B1FC040008D15821684601F0B9
:10E58000D5FC040002D1284601F03EFC20467CBDAB
:10E59000CC28002070B50D461446014604221048D0
:10E5A000FDF7DAFD200003D000221146FEF79AF9AC
:10E5B0002878112811D10A488078FF280DD0084802
:10E5C00001211438002249040069FEF765FA002889
:10E5D00003D000221146FEF785F9002070BD00002F
:10E5E000142800201FB56946087301F0F5FC0028C7
:10E5F00003D000221146FEF775F903A800F028FAAF
:10E60000002803D000221146FEF76CF901A805216D
:10E610000130FDF7BAFD6946487901221043DF2138
:10E620000840072369468B711023CB71094900917B
:10E6300069460A7102210843E3210840694648718E
:10E64000054800F019FB002803D000221146FEF710
:10E6500049F91FBD95E5010002280020F0B50546E7
:10E6600093B000200290FF24ED480E94007800281B
:10E670004BD0EC4F3868002847D001A800F0DAF9F9
:10E68000002803D000221146FEF72CF9281D059022
:10E690002A2069460883FF20002688710E710396A0
:10E6A000E04C28880C3C10280ED0A88803AA022130
:10E6B000FFF75AFE002807D103980C21414309199E
:10E6C000CA7A69468A7148712888132217287CD033
:10E6D0000FDC10281BD0112853D0132876D0142813
:10E6E00013D103980C2148430019C07AFF2871D038
:10E6F0008DE0CD4918286BD01C286AD0522804D14F
:10E70000B87A8000095801A8884713B0F0BDC74FF8
:10E7100003AA01213846FFF727FE0028F5D1039907
:10E720000C20484302220019827211236A46137496
:10E730005171A98801810722A91DFDF70DFD687D92
:10E74000C10707D04108B6480830405CFF2808D010
:10E750000E9006E03A460EA9A81DFFF7E1FE00283C
:10E760000ED103990C22514309190E98C8728A7A66
:10E7700008231A438A726946887101A8FFF71AF9BB
:10E7800039E103980C2148430119887AFD22104091
:10E790008872010706D5C0090DD0002101A8FFF736
:10E7A0003DFE08E068468079FF2804D001F02CFB8C
:10E7B000FF206946887103980C22504310210019EC
:10E7C000817212206946087415E17FE030E001E0B3
:10E7D000D5E00EE1EA890EA90020FFF7A1FE00288E
:10E7E0000ED103980C22504300190E99C172837AFE
:10E7F0000822134383726846817101A8FFF7DAF893
:10E8000003980C2148430019C07AFF2806D00398CA
:10E810001C214843834944394018029003981C2125
:10E82000484383494218A8880023029982DF6CE795
:10E8300068460274039B0C2058430119887A04220D
:10E8400010438872C87AFF2830D0162069460874B1
:10E850001C20434373481421283818180830FDF74A
:10E8600094FC03980C2148430019817A40221143FB
:10E87000817203990C2200204A430A901219D27A1D
:10E880001C235A436A4B0C90D2180B921C22514302
:10E890001A46C43289180791089009903A1DA88831
:10E8A00007AB00217FDF0028C1D1A4E00EA8FFF74D
:10E8B0000DFE002801D00646DBE769460E988871F8
:10E8C00003990C2251430919C872D2E7787A40089B
:10E8D00040007872039A0C209446424311198B7AB7
:10E8E000FB2003408B7214206F463874A8790028EF
:10E8F00004D0C87AFFF738FEAE797CE0E8794007AB
:10E9000079D5B879FF2876D008273B438B72EB7A0C
:10E910009B0708D51C2503466B43454D5B199D7E1F
:10E920006D086D009D76CB7AFF2B64D0A25C022A25
:10E9300010D01C2250433E4D072240191030FDF7E5
:10E940000BFC684680791C2148434019817EFD22DA
:10E9500011400EE061461C225143324A443A891864
:10E960004A8A1C214843324940180283817E490863
:10E9700049008176012101A8FFF750FD3BE0A8790D
:10E980000209012A23D10007000F01281FD1039893
:10E990000C2242431219927A120718D51C214843BF
:10E9A00020492839401814210830FDF7EEFB1620C5
:10E9B0006946087403980C2148430119887A60223B
:10E9C00010438872787A0221084378720FE0039826
:10E9D0000C2250430019827A80231A438272152038
:10E9E0006A461074B87A8000095801A88847002642
:10E9F00001E068460274324604A901A8FDF780FFD1
:10EA00006846007C122800D07FE603980C21414321
:10EA10000919897A0129F7D0FFF7BEFC75E60000D5
:10EA2000BC280020B432002064100200FFFF000068
:10EA3000AC310020002806D0FF21017041708170A8
:10EA4000C170002070470148704700000E80000030
:10EA5000F0B585B0040036D0294800250560457220
:10EA600085722846FFF798FC25481C212838FDF7B9
:10EA70008CFB0026FF27304601F0C6F92148875558
:10EA8000761C072EF7D35821684681800721C18064
:10EA90001D481C4900900831684601F027FB0028FA
:10EAA0000FD1184E0120083E3070207800280CD07D
:10EAB00069468888C988484381B23046103001F0E1
:10EAC00035FA05B0F0BD1148FBE7114F00240D48A1
:10EAD000A1B202AA083001F0FFF9002809D11C20D8
:10EAE0006043C01900231C2202A901F0ADFA0028DE
:10EAF00001D03570E5E7641C072CE8D3E1E700009E
:10EB0000B4320020C428002015EB01000E80000064
:10EB1000AC310020FFB555488FB00068189F1E46E5
:10EB2000002851D0582F4FD86846FFF783FF0028A0
:10EB300003D000221146FDF7D5FE0024684604707C
:10EB40000471254605970696A9B20DAA484801F01A
:10EB5000C3F9002806D108220DA90F98FDF727FB5D
:10EB6000002819D06D1C072DEED3684680780790D9
:10EB7000FF2829D010982025042810D03D481C21BA
:10EB8000301AFDF7D3FA012707282DD204A80290E6
:10EB9000119800281AD021E068468570E5E7582FC3
:10EBA00003D040206946087101E068460571694656
:10EBB0000879032108436946087104A8029001A955
:10EBC0006846119AFDF79CFE13B0F0BD07993846D0
:10EBD00088402749103949680842F5D0079802F063
:10EBE0002FF96846057138E020481C214438301A56
:10EBF000FDF79CFA00280BD01C4D1C21283D701BF2
:10EC0000FDF794FA00281AD0402069460871DBE726
:10EC100004A8029068460571447014480A940C30A8
:10EC20000B9050380790684680781C214843114962
:10EC30004018089007A80690182005900DE0302194
:10EC4000684601714470C77008480C38807A8007A4
:10EC500003D428461C21FDF798FA1098694603282A
:10EC6000087901D00221A5E73843A5E7B432002096
:10EC7000CC280020AC31002070B5064618480D465F
:10EC8000007800280ED01749002E0ED0002D0CD091
:10EC90002868002809D0144C2168002907D01148A1
:10ECA0000A3870BD0F48801F70BD084670BD2060D7
:10ECB0000522691D201DFDF74FFA2879A072207AE0
:10ECC0000221400840000843FB2210402072E079F6
:10ECD0000123184308431040E0710020307070BDDC
:10ECE000BC2800200E800000B432002010B513496B
:10ECF000134B0978002910D0002803D0017800298F
:10ED00000BD102E00E48801D10BD0E490A68002A92
:10ED100003D0407800280ED101E0184610BD094A02
:10ED20000C3A947A012C06D01846A307F6D5108920
:10ED3000091D7EDF10BD0248083010BDBC28002030
:10ED400008800000B432002010B5184A184B127821
:10ED5000002A13D09A1D002805D0002903D002787C
:10ED6000002A0BD101E0104610BD124C002224688D
:10ED7000002C03D0407800280CD101E0184610BDCB
:10ED80000C480C38807A012804D02423184204D07F
:10ED9000012005E00648083010BD000602D502201B
:10EDA000087000E00A70002010BD0000BC280020A0
:10EDB00008800000B432002010B50E4900238A7884
:10EDC000CC78A24212D0521CD2B28A70022A00D150
:10EDD0008B708A78074B92001C339A5802604869FE
:10EDE00010180002000A4861012010BD03600020D5
:10EDF00010BD000038290020F7B5144C0025A76885
:10EE000023691EE024215943C9194E68864202D95C
:10EE1000301A486017E0801B751900264E600E7589
:10EE20000E699C460B6AB646002E0AD0019E7619E2
:10EE30003602360A8E607646CE6016680E626146ED
:10EE40001160591CDED12361FEBD0000382900206D
:10EE500010B50446C0B2FDF757FF204610BD0000B4
:10EE60000EB51120694608720E2213A102A87CDF9C
:10EE7000002803D000221146FDF734FD0120800256
:10EE800078DF002803D000221146FDF72BFD00207B
:10EE900000900822694601900A8050224A808880AA
:10EEA000FF209130C88068467ADF002803D0002216
:10EEB0001146FDF717FD0EBD4E6F726469635F4723
:10EEC0006C75636F73650000002070470020704709
:10EED00000207047F8B5064640781C2104464C4394
:10EEE00024490C2250436118224A00254B681C32E9
:10EEF0008018AE462F469C46002B0CD0827A1346D3
:10EF0000D20908D05A0606D40D461A4A614689B27B
:10EF1000175908358E46174C00891C343B467246FB
:10EF20002946A9DF0B2819D0002800D01248012F4C
:10EF300013D170780C214843001900890F4AA7DFCC
:10EF400000280AD00E49884212D0082810D0891C07
:10EF500088420DD011280BD00020F8BD70780C210C
:10EF6000484301230019008972462946A9DFE0E7DA
:10EF70000148F8BD8C32002041800000FFFF0000F6
:10EF80000230000070B50C46014660781C22084D26
:10EF900050434019382301F057F8002807D1617811
:10EFA0001C22514349194A68521C00D14A6070BD65
:10EFB0008C320020F3B587B00D4614206946888254
:10EFC00068780C2103274843224E3B46801900896C
:10EFD00005AA6946AADF002838D168781C21484371
:10EFE000741A001969468A8A0830FDF7E0F800288B
:10EFF000687807D01C2148430119496800290DD0C1
:10F00000154E0CE00C2141438919897A89071DD4DA
:10F010001C2148430019FDF7B8F817E00F4E2750A0
:10F020006846828A68781C214843001942606878E3
:10F030004843001969460830FDF78EF868781C21AE
:10F040004843011938231C220798B047002009B013
:10F05000F0BD0000A83200208D030200D50102009F
:10F0600010B5FFF737FF10BD10B5FFF78BFF10BDD0
:10F0700010B5FFF79FFF10BDF8B504460078087083
:10F080000E46491C608801F0D1FE401CC7B2F5193C
:10F09000A088294601F0CAFEA1792954401CC0B2BB
:10F0A000E1792954401CC0B2217A2954401CC0B2D5
:10F0B000617A2954401CC0B2A17A2954401CC0195D
:10F0C000C5B22078C00705D07119A08901F0AEFE45
:10F0D0004019C5B22078800715D5218AA07B090583
:10F0E0000003090D084370556D1CE9B2000A705405
:10F0F000491CC8B2A27CE17C12070901120F11431E
:10F100003154401CC5B22078000705D57119A08A7A
:10F1100001F08CFE4019C5B22846F8BD70B590B01C
:10F1200005461C216846FDF730F869460878022636
:10F130003043087000240194039404940594012042
:10F1400008A906948870184869460884601C00075E
:10F15000000F20300794087700204877887FF92136
:10F160000840F721801C0840EF210840400840007B
:10F170006946887714210AA8FDF707F8A88D08A921
:10F180000871000A487107A80A910B9069460E861B
:10F190004C868E8609A80E902B4628891A330AAA17
:10F1A000A2DF10B070BD0000512A000030B50A4641
:10F1B0008DB0044606A91046FFF75EFF6946054676
:10F1C00008800020019002900390049062898A8058
:10F1D00001228A71088106A803910490608D01A91B
:10F1E000A6DF002804D169460988A94202D00C2074
:10F1F0000DB030BD0349CA78521CCA700A79521C3E
:10F200000A71F5E7A428002070B500240546601CAB
:10F21000A0B00007000F08A910300D940875601CFD
:10F220000007000F20304875887DF9263040801C8B
:10F2300088751C2106A8FCF7A8FF6946087E1021E6
:10F240000843694608760DA807940B9009940A9420
:10F25000012208A90C948A761E4869460887002076
:10F26000059408754875887DF7213040801C08405A
:10F27000EF21084010436946887514216846FCF761
:10F2800084FF2C210FA8FCF780FFFEF71BFA000675
:10F29000000E06D0401EC0B20FA9FEF743FA0028A8
:10F2A00015D10EA8009005A801901AA90FA8FFF784
:10F2B000E3FE0146684601811421448181811AA838
:10F2C00004902B4628890A336A4606A9A2DF20B09B
:10F2D00070BD0000182A000070B50646104C0125CC
:10F2E000B540E068FDF71AFC00280CD1616929429D
:10F2F00007D1304600F0A4FB0028206904D0284341
:10F3000003E0A943616170BDA843206160690022E8
:10F3100028436061A168E068FDF7BEFB70BD000096
:10F320002029002010B500F08BFB002801D0002020
:10F3300000E0012000F018FD10BD0000F8B51E4CE3
:10F340002078002837D02069002807D00026E06800
:10F35000002805D00025002E04D013E00126F6E792
:10F360000125F8E7684651DF052806D0002806D0B9
:10F3700000221146FDF7B6FA04E0012602E02169F9
:10F3800000988847002D12D1608869460880A068DF
:10F3900061DF052806D0002806D000221146FDF7BF
:10F3A000A1FA04E0012502E0E168A0688847002E88
:10F3B000D8D0002DCFD0F8BD602900204188054865
:10F3C0000288914204D34088814201D801207047CD
:10F3D00000207047FC2800201048018CC9B2012988
:10F3E00017D1818C090714D1018D09060A0F03D1A9
:10F3F000828D1206120F0ED0090F012903D1828DC2
:10F400001206120F07D0032903D1808D0006000FCA
:10F4100001D000207047012070470000C00F00F0AD
:10F4200070B500220A70224C037803250522247847
:10F43000032B02D0002C35D110E0012C01D0072085
:10F440000AE04378002B01D00D702BE08078002873
:10F4500001D00A7026E00120087023E0012B03D0C0
:10F46000042B01D00220F7E7447804262300FDF79F
:10F470004DF8071B0518091805051B0080780028A2
:10F48000E7D10CE043681B78012B05D00920022B43
:10F49000E2D0072BE0D2DCE780780328D9D1012025
:10F4A00070BD0E70002070BD072CFAD2CCE70000B2
:10F4B000A4280020800701D0002070470120704759
:10F4C00010B50448017AC90702D00078FEF70EFC97
:10F4D00010BD00002C280020F8B5234801690091D8
:10F4E000457833E02048E900C0680E1834782AE0F7
:10F4F000182060437168641C0818B178E4B2A14216
:10F5000000D100240178022902D003291BD113E085
:10F51000154A40682421926841438F18397D00299B
:10F5200011D001F0D1FB002038750CE0242778437E
:10F53000C0180275006A03E00B4900228B68086955
:10F54000471CF3D108617078A042D1D128466D1EC6
:10F55000EDB20028C6D1044801690098814201D06B
:10F560000120F8BD0020F8BD38290020F8B5044678
:10F57000384800270169009146785CE03548F10081
:10F58000C2688D1851E0601C07D0324A242092686E
:10F59000604321468018046A24E0287818214143FA
:10F5A0006A68401CC0B252182870A978884200D1FD
:10F5B0002F70284B516824209B684843C01813784B
:10F5C000012B34D1037D002B31D193688360D36844
:10F5D000C360136903615269C2611E4A5279002AED
:10F5E00000D087601B4B82685B6996469C46D31AA5
:10F5F0001A02194B120A9A4202D2C368D21808E0C2
:10F60000724663469A1A1202C368120A934202D9DA
:10F610009A1A426000E0476087600122C760027565
:10F62000921E0262084601F01DFB601CABD12878D7
:10F6300069788842A7D13046761EF6B200289DD15F
:10F64000044801690098814201D00120F8BD0020E2
:10F65000F8BD000038290020FFFF7F0096B001F0C0
:10F66000ABFB564A05AB07CA07C3002568460584AD
:10F67000534801900124534803902002049008A8A5
:10F68000009002940323504A01A905A8FDF772FADD
:10F69000002803D000221146FDF724F94B4A4C49BB
:10F6A0000320FEF7D3FA002803D000221146FDF70D
:10F6B00019F969460020FEF7A1F9002803D00022BD
:10F6C0001146FDF70FF96846007802286CD000213A
:10F6D00068460171FEF73AF968460079FEF782FF45
:10F6E000FFF7BEFB302101A8FCF74FFD0221684661
:10F6F000017184710521C171032686823048202161
:10F700001F3006900DA8FCF740FD08A804772820BC
:10F710001090B42011902F4B0DAA0021009501A844
:10F72000FDF7ECFB002803D000221146FDF7DAF8C4
:10F7300001F0FAF828485121016064218460416099
:10F74000047301461E48173001F082F81C216846F8
:10F75000FCF71BFD0520C00301900F200004029060
:10F76000009568460673C58105741C4805901C48C1
:10F7700006906846FDF73AFE002803D000221146A5
:10F78000FDF7B0F80E480521401E00220904C068AC
:10F79000FDF782F9002803D000221146FDF7A2F8F8
:10F7A0000220FDF7D9FC02E0012191E748DF0028A3
:10F7B000FCD000221146FDF795F8F7E7081002008B
:10F7C00001280020C42C0020150E0200A5DB01003A
:10F7D000CD0C000081FB01000C2E002069FC010013
:10F7E000F9E2010070B5054600790E46801C14460A
:10F7F000C0B21178821C8A181F2A01D90C2070BD52
:10F800000A46491C2170401CB0542078FF22411C3C
:10F810002170325420788119288801F00CFB21785E
:10F820004018C0B22070AA88002A09D0A96800290F
:10F8300008D08019FCF790FC2078297940182070B6
:10F84000002070BD072070BDF8B514780746A01CD5
:10F8500015460E461F2803D87878801C1F2801D92A
:10F860000C20F8BD1D20001B80B26946864608802A
:10F870003019801C7DDF0028F3D13878022805D1AB
:10F8800068460088704501D8092107E0787808218A
:10F89000002801D0704501D968460088421C3255C5
:10F8A000641CE2B2B1542978801C0818287000202A
:10F8B000F8BD00207047002070470020704700000E
:10F8C0008207D30EFF229A408907090E10B599408E
:10F8D00000280BDA03071B0F083B9C080C4BA40005
:10F8E000E318DC6994430C43DC6107E08408094BAE
:10F8F000A400E418236893430B432360C106C90E98
:10F9000001208840044908600449086010BD0000D7
:10F9100000ED00E000E400E080E200E000E100E053
:10F9200070B50D46064600F08BFA012400283046DB
:10F9300018D0FEF72BFB1849001F08184030007B39
:10F940008009032802D0012805D006E01348006989
:10F95000B440204201D1022100E00321304600F0F2
:10F96000F5F870BD00F078FA0028FAD03046FEF7BE
:10F970000DFB8100CA1D0A4BF932C9180B6992B2FE
:10F9800023430B610749511800220A60002DE8D07B
:10F9900084400548446070BDEC33002000050050F1
:10F9A000006500400060004000630040F8B5204F53
:10F9B0000D46044638192C2141560026C817134617
:10F9C000401C01D0082630E0EA7819462046FEF7B0
:10F9D000B7FA411C28D0174BAA78A100C918002AF1
:10F9E00003D00A6802239A4301E06A7892000A6011
:10F9F000E978002910D082000F4829781018026990
:10FA00000E4B1A400261E206D20C8907890B0A43A9
:10FA100001690A43026108E0381840302A78017A07
:10FA200092011143017200E004263046F8BD000047
:10FA3000EC3300200007005000650040FFE0FCFFB1
:10FA400003490969C140C807C00F00D001207047B1
:10FA50000005005070B5114D2878002801D008200D
:10FA600070BD0020411E2A182032401CC0B2117304
:10FA70002028F8D300242046FEF754FA641CE4B290
:10FA80000A2CF8D301210620FFF71AFF01200449B0
:10FA9000C007486001202870002070BDEC330020B2
:10FAA0000063004002480078002800D00120704721
:10FAB000EC330020F8B504461F480D4600192030ED
:10FAC0000C2141560026491C01D008262FE0A978B8
:10FAD00000291DD0012200212046FEF731FA411CE9
:10FAE00014D0830015482A78181869780369144FD0
:10FAF0003B4003610369E706FF0C9207920BC907BD
:10FB0000C90A3B430A431343036104E004260EE0A1
:10FB10000121C94301730B4A0320A1008918086021
:10FB20006A780120A0400849012A02D0C860304606
:10FB3000F8BD8860FBE70000EC3300200065004062
:10FB4000FFE0ECFF0007005000050050820006486F
:10FB50001018026803231B049A4302600268090418
:10FB60000A43026070470000000700500349401834
:10FB70000068012800D000207047000000600040AD
:10FB800010B500280AD0022807D1FEF751F8002846
:10FB900003D000221146FCF7A5FE10BD00F042FF85
:10FBA00010BD000030B504462A4D0088AA8887B0F1
:10FBB00017281BD01CDC022845D0102837D0152868
:10FBC00014D10622A11D04A8FCF7C6FA002069463C
:10FBD00088752869FCF7A2FF002803D0002211468F
:10FBE000FCF780FE04A91CA0FCF780FC07B030BD28
:10FBF0001828FBD05128F9D1A1790029F6D0A07A94
:10FC0000042803D0062801D00528EFD102291ED0F0
:10FC1000012069460870FF20833088801046A8DFE5
:10FC20000028E3D000221146FCF75CFEDEE7072047
:10FC3000FDF7FEFF002803D000221146FCF752FE1C
:10FC4000A088A880D2E70021104667DFE8E70220FD
:10FC5000DFE7000000280020506173736B65793A7C
:10FC60002025730A0000000010B50078002809D193
:10FC700005483B21808876DF002803D0002211460A
:10FC8000FCF730FE10BD00000028002070B58AB0DF
:10FC90000D46044602206946087307A92046FDF771
:10FCA000D3FC002859D16846007F002815D029468A
:10FCB000287E01AA1A31FDF70FFE694601A8FFF759
:10FCC000AFFB0026274D002868462BD00682608DAA
:10FCD00003A9A8DF002840D107E0FF208230694651
:10FCE0000882608D03A9A8DF35E068460079012805
:10FCF00007D0042803D101A9204600F01BFD0AB05B
:10FD000070BD029920468A784B78110201222A7030
:10FD1000AE706A4652796A701943EE70298100F01C
:10FD2000D1FBECE7007800280ED068460682608D93
:10FD300003A9A8DF002810D128706846017902784D
:10FD4000204600F017FCDAE7FF2081306946088280
:10FD5000608D03A9A8DF0028D1D061680029CED02A
:10FD60008847CCE7A428002010B51D4A1D49030090
:10FD7000FCF7CCFB05040B31202712004878012842
:10FD80001FD0022808D1032005E04878002804D0BD
:10FD9000032801D10220487010BD134B04201860C5
:10FDA000124B012018609368D2689A42F3D0FCF796
:10FDB00033FC10BD4878012806D0022804D003285F
:10FDC000F7D1FCF761FC10BD9068D1688142EED19B
:10FDD000FCF748FC10BD48780128E8D010BD0000B1
:10FDE000503400200C290020002500400020004055
:10FDF0000021425C002A01D001207047491C0629DD
:10FE0000F7D300207047000070B505461C200B4951
:10FE100068434418204611300621FCF7B6F9204605
:10FE20001021FCF7B2F9FF2121740020A176C04314
:10FE30002083284601F004F870BD0000AC3100209A
:10FE4000044908182C214156042901DB0120704780
:10FE500000207047EC330020044908182C2141563B
:10FE6000042901D20120704700207047EC330020A4
:10FE700070B50D00044604D1002211461046FCF76F
:10FE800031FD002C04D1002211461046FCF72AFD5A
:10FE90002878207069886170090AA170A988E170CA
:10FEA000090A2171E8886071000AA07170BD000024
:10FEB00007490978002906D0002806D00549497865
:10FEC000016000207047082070470E207047000036
:10FED000142900206034002030B5124B1B78002B11
:10FEE00007D0002807D0002A05D00468002C12D1C2
:10FEF00003E0082030BD0E2030BD0B4B1D68002DE7
:10FF000009D045681889414369185D894543586897
:10FF10002818884201D8072030BD146000205160A5
:10FF200030BD0000142900202C350020F8B505460E
:10FF30001B480F460078002805D0002D05D0286802
:10FF4000002820D103E00820F8BD0E20F8BD154C94
:10FF500000262068002816D06089218948436168FE
:10FF60004118686881420ED9FFF7A4FA00280CD026
:10FF700029686868090109194A680989801AFCF723
:10FF8000D5F8002903D00720F8BD1020F8BD3B4666
:10FF90000022294604200096FEF7F0F8F8BD000084
:10FFA000142900202C35002010B507484469601C36
:10FFB00006D000F00BF801462046FCF7B7F810BD5C
:10FFC00001200007406910BD00100010012000074B
:10FFD000006980B270470000F8B50024184D194E32
:10FFE000AC806C7034707470B47027463846FEF77D
:10FFF000B5F87F1C0A2FF9D36C80FFF7D5FF871E59
:020000040002F8
:10000000FFF7E4FF47430F48AF60AC80CC3004609B
:1000100004818481448108206870FFF7D7FF074678
:10002000FFF7C2FF441EFFF7D1FF60433946FCF7DC
:100030007DF828DF002802D10121B1702970F8BDB8
:100040001429002060340020FFB5264881B00078D4
:100050001F4616460D46002808D0002D09D00198ED
:10006000002806D02868002818D104E0082005B030
:10007000F0BD0E20FBE71C4C206800280ED06189E3
:1000800020896268414389186A68914206D9002E26
:1000900004D0B04202D3F119814201D90720E6E72A
:1000A0000198FFF707FA00281AD03846FFF702FA3E
:1000B000002815D06868FFF7FDF9002810D068689F
:1000C0003246C1190198FCF747F8009628680022CB
:1000D0000001245803212846019BA0470020C6E7C1
:1000E0001020C4E7142900202C350020F8B5374D26
:1000F000044628780E4600282ED0002C2ED0002E44
:100100002CD02068002829D0FFF760FF0146A08886
:10011000814228D3102826D3E088002823D0FFF777
:1001200043FF471EFFF752FF4743E088A18848433B
:10013000A9684018874216D3FFF748FF0146E088B8
:10014000A288504381420BDAFFF740FFA188FBF7FA
:10015000EDFF002907D103E00820F8BD0E20F8BD0F
:100160002079800701D00720F8BD688801281BD0BE
:100170003060174FA9680201D01971604160216891
:10018000B950A1880181E1884181A088E1880026D9
:1001900048430446761CB6B2FFF718FFA04205D2CA
:1001A000FFF714FF241A02E00420F8BD0024FFF733
:1001B0000DFFA9684018A860002CEBD168880101E8
:1001C000C9198E81401C68800020F8BD14290020C8
:1001D0002C350020F8B5044620481E460078154608
:1001E0000F46002807D0002F07D0002C05D020682C
:1001F000002817D103E00820F8BD0E20F8BD1848EC
:10020000016800290ED04289018940684A431018CC
:100210006268904206D9002D04D0A94202D3A819E1
:10022000884201D90720F8BD3846FFF743F9002876
:1002300011D03046FFF73EF900280CD06068FFF778
:1002400039F9002807D02B463A462146022000966D
:10025000FDF794FFF8BD1020F8BD00001429002020
:100260002C350020F8B507460020464E8646B0786B
:1002700001281ED10020444BB0705A78082A19D0AA
:1002800034462578142169430C19022F20D0032FFE
:100290000FD16079401CC0B26071241D03286AD060
:1002A000FDF7CCFE002804D0112802D02146FCF72F
:1002B00061FBF8BD022F09D01870FDF73BFF002845
:1002C000F7D0317814225143891959E05870F4E776
:1002D0002D498B885B1C9EB28E802379241D022BB6
:1002E00005D16788B102B94201D3012100E00021A4
:1002F0008C46052B01D1072A03D00021042B02D004
:1003000003E00121FAE7072A03D00027042B02D0DB
:1003100007E00127FAE76488B302A34201D3002A69
:1003200027D00022394311436246114317D0164AA1
:100330001449507090804878401E4870681CC0B2C4
:1003400008700A2801D30A3808701420684341183D
:100350007046091DFCF70EFB2846FDF7FFFEFDF772
:10036000E9FE0028A5D0074914230A785A435118FA
:1003700006E00122D6E730781421484381190D2088
:10038000091D94E76034002014290020F8B50446C4
:1003900020481E46007815460F46002807D0002F3B
:1003A00007D0002C05D02068002817D103E00820D2
:1003B000F8BD0E20F8BD1848016800290ED042890A
:1003C000018940684A4310186268904206D9002D9E
:1003D00004D0A94202D3A819884201D90720F8BD48
:1003E0003846FFF767F8002811D03046FFF762F86B
:1003F00000280CD06068FFF75DF8002807D02B4676
:100400003A46214605200096FDF7B8FEF8BD1020BB
:10041000F8BD0000142900202C35002010B58CB048
:100420000446FDF74FF91149CA78002A07D1002880
:1004300005D04978052905D0062906D00CE0002012
:1004400008700FE06946002002E0401EC0B2694615
:10045000FDF768F9002806D169462046FEF7A6FE9A
:10046000002800D100200CB010BD0000A4280020FE
:1004700070B58CB00646FDF725F90546104C13E023
:100480006946FDF74FF9002817D168464088218951
:10049000884206D369463046FEF788FE00280CD114
:1004A00005E0A078401CA070A078A842E8D3A0780E
:1004B000A84201D10020207000200CB070BD0000C7
:1004C000A428002030B58BB00546284C49E0607860
:1004D00001280AD0032821D005281BD0062819D0CE
:1004E0006968002928D0032025E0FDF7EBF8A27801
:1004F000824202D30020207022E069461046FDF7B8
:1005000011F900280DD169462846FEF74FFE002854
:1005100007D115E02846FFF781FF02E02846FFF7E4
:10052000A7FF00280CD0082806D01149C84205D0E2
:100530006968002900D08847002020700BB030BDCA
:100540002078012805D0E1782846002905D001222D
:1005500004E0A078401CA070B9E70622012100F059
:1005600009F820780128B2D0E8E70000A42800208C
:10057000FCCFFFFF10B5074B06241C7000245C70F5
:1005800002249C709C1E5C6021706270194600F011
:1005900003F810BDB028002070B51D4C054620782A
:1005A0008EB00A46022804D02079002801D002200B
:1005B00022E007A91046FDF7A4F96946064608801F
:1005C000002001900290039004906A8C8A8002229D
:1005D0008A71088107A803910490688D01A9A6DF9C
:1005E0000C4900280BD0082805D0C842DFD0696824
:1005F000002900D08847002020700EB070BD6846EA
:100600000088B04201D00C20F1E70320F4E700009D
:10061000A4280020FCCFFFFF10B58CB0072069464E
:1006200008701548888001238B71CB710C200872EB
:100630001E2048720F2088721048027A8A73C4887C
:100640000C8200228A818B74CB748A82173421B287
:100650000B4BC180994202DDFF39B339C18001786B
:10066000C91CC9B201703B2900D90270694605480E
:10067000FDF774F80CB010BDDC0700000028002066
:10068000AB030000DC2D002070B500240546601C83
:1006900090B00007000F08A9103008940870601C83
:1006A0000007000F203048708878F9263040801C01
:1006B00088701C2101A8FBF768FD6946087928218C
:1006C00008436946087108A80294069004940594AA
:1006D000012208A907948A71154869468884002078
:1006E00000940870401C0007000F20304870887884
:1006F000F7213040801C0840102108431043694610
:10070000887014210AA8FBF740FD09A80A906846E2
:100710000B9069460C8617204C8688860E942B46D3
:10072000288922330AAA01A9A2DF10B070BD0000F7
:10073000522A0000F3B58BB00E46FCF7C3FF054606
:1007400070780024012806D0032806D0052823D07D
:10075000062821D023E02C4621E07068817840787B
:100760000F020743002614E0F0B26946FCF7DAFFF7
:10077000002806D00B994968002900D088470DB0A1
:10078000F0BD68464088B84201D3641CA4B2761C10
:10079000B6B2AE42E8D302E0002D00D001240848F2
:1007A000052101700021417002218170811E41608C
:1007B0000C70200A4870891C0B98FFF7EDFEDEE7ED
:1007C000B028002070B501240B49600408600B4973
:1007D00040108860094940398860094D6C602F20BD
:1007E000FBF778FCAC60074D00242F206C61FBF711
:1007F00071FC2C7170BD000080E100E040130140ED
:10080000001001403829002008B50F480F498088A2
:10081000884218D00C4869461430FEF795FA002833
:1008200003D000221146FCF75DF8684600780028E6
:1008300009D105481430FEF759FA002803D00022E8
:100840001146FCF74FF808BD00280020FFFF00000C
:100850000A7B002A03D049680160002102E0096890
:10086000016001210171704710B504798B6802683D
:10087000002C08D049688C1A9C4201D9D11807E095
:100880000160002108E00968541A9C4202D9D11A7B
:10089000016002E0016001210171006810BDF7B53F
:1008A00082B002981446806A0F46002833D002981E
:1008B00000252030009028E00298816A0C206843CF
:1008C0000E18217830794A1C2270C01C7854207888
:1008D0001622411C21703A542078C119308800F04A
:1008E000AAFA21784018C0B22070B288002A09D034
:1008F000B16800290FD0C019FBF72EFC20783179A0
:10090000401820706D1C0098EDB2007BA842D3D82F
:10091000002005B0F0BD0720FBE710B5002211460E
:10092000FBF7E0FF10BD000070B59CB00025324819
:100930001690FF202C46423004431595179510A8B9
:1009400084838577012615A92C48FCF713FF00281E
:1009500003D000221146FBF7C5FF142110A8FBF7B6
:1009600014FC0120014610A81031417301200146FA
:1009700010A8103181730020014610A8C173012016
:10098000014610A81031017410950671642112956A
:100990000173014619481838FCF7DEFC002803D023
:1009A00000221146FBF79EFF40216846FBF7EDFB56
:1009B00013A16846FCF7BBFF16A104A8FCF7B7FF1C
:1009C0001648189016481A9018A855210C9019919D
:1009D0000120014608A8103101770020014608A82F
:1009E00041776846FCF774FD002803D000221146C9
:1009F000FBF778FF1CB070BD1B090200DC2D002046
:100A00004E6F7264696353656D69636F6E6475637D
:100A1000746F72006E5246353100000055AA55AA17
:100A2000EEBBEE0010B50020FDF702F9002803D060
:100A300000221146FBF756FFFDF746F8002803D0C9
:100A400000221146FBF74EFF3CDF002803D00022B6
:100A50001146FBF747FF10BD10B508461146C046CA
:100A6000C04610BD002803D00249C860002070476E
:100A70000E2070476029002070B5002901D08C0736
:100A800001D0072070BD064C0125A1606280054998
:100A9000636010DF0028F5D1257016202EDF70BDB1
:100AA00060290020590A0200002803D00249086189
:100AB000002070470E2070476029002000207047FA
:100AC000FFB581B0484C0E46039F049A05466178F5
:100AD00003201743002903D1002F0DD0012161709D
:100AE000039AC9B2920000920B00FBF70FFD072C8E
:100AF000071B2E465D6C2C000221F0E7FFF766FA1B
:100B00008708FFF763FA70430546FFF74DFA461E64
:100B1000FFF75CFA70433A46294629DF002812D1D4
:100B200002210FE0304628DF00280CD1039900296C
:100B300001D0032106E00499002917D1297804295E
:100B400050D018E0617005B0F0BDFFF72DFA471ED8
:100B5000FFF73CFA4743FFF739FA70433946039AE7
:100B600029DF0028EFD10499002901D00421E9E709
:100B70002978042925D00521E4E7FFF715FA471E57
:100B8000FFF724FA47436888391800980F18FFF7D1
:100B90001DFA6988704341180098049A081839466C
:100BA00029DF0028E4D0CEE7FFF710FA0099704360
:100BB000401869888A08296929DF0028C3D1002FD5
:100BC00010D00621BEE7FFF701FA0646FFF7ECF961
:100BD000451EFFF7FBF968433146FBF7A7FA28DF0C
:100BE0000028B0D10721ADE71429002010B5044634
:100BF000FFF738FB2046FCF76FFA10BD70B50C000C
:100C0000054604D1002211461046FBF76BFE002D6D
:100C100004D1002211461046FBF764FE20782870AC
:100C20002088FF2109020840000A68702068090234
:100C30000840000CA8702068000EE8702079287128
:100C4000207A68712089000AA871A068000CE871F8
:100C500070BD0000012002490005086070470000D7
:100C600000E200E0F0B5174F2421BC6841430D19A4
:100C700039694A1C09D024224A4316196B687268E4
:100C8000934204D8D21A726029623861F0BD0A46D4
:100C900002E00A46396A9B1B4E1C0BD024264E43A9
:100CA00037197E689E42F4D324264E43361977685E
:100CB000FF1A77606B60296224214A431119086288
:100CC000F0BD00003829002070B5194C2269A568D4
:100CD0001346114606E0814207D00A462426714396
:100CE0004919096A4E1CF6D170BD002EFCD08A420B
:100CF0000CD1242043435819006A2061401C05D1BF
:100D00000C4B0120986000236361607124204143F3
:100D10004819242341685A43006A52191062421C40
:100D2000E2D024225043401942685118416070BDFE
:100D30003829002000100140F8B51D4C2569681CB9
:100D400035D01C48002640686169401A07023F0AF6
:100D500019E024204543A0682A185068B84214D8E6
:100D6000A3693F1A8619156A002B09D0D1699069C9
:100D70009847002807D000221146FBF7B3FD02E098
:100D80009169D0698847681CE3D1A178E0788142F5
:100D900006D1401CC0B2E070022801D10020E070F2
:100DA00003490006800D1C310E50FFF753FFF8BDBC
:100DB000382900200015014008B50020114B0522FC
:100DC00008210090FBF70EFE002803D000221146F8
:100DD000FBF788FD0C4A01210C48FBF7DDFD0028DC
:100DE00003D000221146FBF77DFD0848084A002188
:100DF000001DFBF7D1FD002803D000221146FBF7B0
:100E000071FD08BD742900205DCE01000C28002072
:100E10000908020010B50178022901D0012904D186
:100E2000002240681146FBF75DFD10BD0870000A06
:100E30004870022070470870000A4870022070470E
:100E400001218140024842688A43426070470000A5
:100E5000BC28002038B51549154A488890420FD063
:100E60004A78144C521CD2B24A70237B934208D366
:100E7000083175DF002803D0A169002900D0884718
:100E800038BD00254D70217C002907D03B2176DF3D
:100E9000002803D0A169002900D088476169002992
:100EA000EED068460570884738BD0000F428002061
:100EB000FFFF0000D033002012494868C005C00D74
:100EC00019D0103840B2002807DA0207120F083A8A
:100ED000920892005118C96904E081080A4A890001
:100EE000891809688007C00EC1400806800F0128D4
:100EF00003D0032803D00220704700207047012050
:100F00007047000000ED00E000E400E042788378E4
:100F1000521C934200D100220378934201D1002059
:100F200070470A604168407818225043081870479B
:100F3000F8B51546069C1E4607460222009400F0AE
:100F40000AF8002806D13346102229463846009474
:100F500000F001F8F8BDFFB583B0074600200C9CF7
:100F60008646267805463AE07868A90041180A883E
:100F7000684682804988C1800022694601A865DFF1
:100F8000002810D1684601780598814226D1704624
:100F9000002801D0002200E00222207889184118A0
:100FA0001F2902D90C2007B0F0BD7146002908D1D5
:100FB000401CC0B2411C069B049A21701A540120A7
:100FC0008646217806980A18694601A865DF002838
:100FD000E9D1694620780978401820706D1C38885E
:100FE000A842C1DC7046002804D020780699801BF6
:100FF000401E88550020D6E70179002902D1007BE8
:10100000002800D0012070470B09080A01000000E9
:1010100000509D00110000001200000013000000AD
:101020001400000011000300DDDA010012000300CB
:10103000DDDA010013000300DDDA01001400030013
:10104000DDDA0100BBF80100B5EF0100D1EE0100CF
:1010500071F00100B7F8010085EF0100CDEE01004D
:1010600069F00100B3F80100D5EE0100C9EE0100FE
:1010700061F0010000010000030000000300000017
:10108000A01002000028002074010000ECC1010043
:10109000C410020074290020CC13000036C50100E2
:1010A00042050717FFFF2602FDFF0C2B0818010061
:1010B0000F1801000A1801038624F4032FFFFF0212
:0410C00068010000C3
:040000050001C0C175
:00000001FF
